{
  "_format": "hh-sol-artifact-1",
  "contractName": "FanStockToken",
  "sourceName": "contracts/FanStockToken.sol",
  "abi": [
    {
      "inputs": [
        {
          "internalType": "string",
          "name": "_name",
          "type": "string"
        },
        {
          "internalType": "string",
          "name": "_symbol",
          "type": "string"
        },
        {
          "components": [
            {
              "internalType": "string",
              "name": "name",
              "type": "string"
            },
            {
              "internalType": "string",
              "name": "location",
              "type": "string"
            },
            {
              "internalType": "uint256",
              "name": "foundedYear",
              "type": "uint256"
            },
            {
              "internalType": "string",
              "name": "league",
              "type": "string"
            }
          ],
          "internalType": "struct FanStockToken.ClubInfo",
          "name": "_clubInfo",
          "type": "tuple"
        },
        {
          "components": [
            {
              "internalType": "uint256",
              "name": "pricePerToken",
              "type": "uint256"
            },
            {
              "internalType": "uint256",
              "name": "maxSupply",
              "type": "uint256"
            },
            {
              "internalType": "uint256",
              "name": "soldTokens",
              "type": "uint256"
            },
            {
              "internalType": "bool",
              "name": "saleActive",
              "type": "bool"
            },
            {
              "internalType": "uint256",
              "name": "minPurchase",
              "type": "uint256"
            },
            {
              "internalType": "uint256",
              "name": "maxPurchase",
              "type": "uint256"
            }
          ],
          "internalType": "struct FanStockToken.TokenSale",
          "name": "_tokenSale",
          "type": "tuple"
        },
        {
          "components": [
            {
              "internalType": "uint256",
              "name": "playerSalesShare",
              "type": "uint256"
            },
            {
              "internalType": "uint256",
              "name": "sponsorshipShare",
              "type": "uint256"
            },
            {
              "internalType": "uint256",
              "name": "tournamentShare",
              "type": "uint256"
            },
            {
              "internalType": "uint256",
              "name": "totalRevenue",
              "type": "uint256"
            },
            {
              "internalType": "uint256",
              "name": "totalDistributed",
              "type": "uint256"
            }
          ],
          "internalType": "struct FanStockToken.RevenueShare",
          "name": "_revenueShare",
          "type": "tuple"
        }
      ],
      "stateMutability": "nonpayable",
      "type": "constructor"
    },
    {
      "inputs": [
        {
          "internalType": "address",
          "name": "spender",
          "type": "address"
        },
        {
          "internalType": "uint256",
          "name": "allowance",
          "type": "uint256"
        },
        {
          "internalType": "uint256",
          "name": "needed",
          "type": "uint256"
        }
      ],
      "name": "ERC20InsufficientAllowance",
      "type": "error"
    },
    {
      "inputs": [
        {
          "internalType": "address",
          "name": "sender",
          "type": "address"
        },
        {
          "internalType": "uint256",
          "name": "balance",
          "type": "uint256"
        },
        {
          "internalType": "uint256",
          "name": "needed",
          "type": "uint256"
        }
      ],
      "name": "ERC20InsufficientBalance",
      "type": "error"
    },
    {
      "inputs": [
        {
          "internalType": "address",
          "name": "approver",
          "type": "address"
        }
      ],
      "name": "ERC20InvalidApprover",
      "type": "error"
    },
    {
      "inputs": [
        {
          "internalType": "address",
          "name": "receiver",
          "type": "address"
        }
      ],
      "name": "ERC20InvalidReceiver",
      "type": "error"
    },
    {
      "inputs": [
        {
          "internalType": "address",
          "name": "sender",
          "type": "address"
        }
      ],
      "name": "ERC20InvalidSender",
      "type": "error"
    },
    {
      "inputs": [
        {
          "internalType": "address",
          "name": "spender",
          "type": "address"
        }
      ],
      "name": "ERC20InvalidSpender",
      "type": "error"
    },
    {
      "inputs": [
        {
          "internalType": "address",
          "name": "owner",
          "type": "address"
        }
      ],
      "name": "OwnableInvalidOwner",
      "type": "error"
    },
    {
      "inputs": [
        {
          "internalType": "address",
          "name": "account",
          "type": "address"
        }
      ],
      "name": "OwnableUnauthorizedAccount",
      "type": "error"
    },
    {
      "inputs": [],
      "name": "ReentrancyGuardReentrantCall",
      "type": "error"
    },
    {
      "anonymous": false,
      "inputs": [
        {
          "indexed": true,
          "internalType": "address",
          "name": "owner",
          "type": "address"
        },
        {
          "indexed": true,
          "internalType": "address",
          "name": "spender",
          "type": "address"
        },
        {
          "indexed": false,
          "internalType": "uint256",
          "name": "value",
          "type": "uint256"
        }
      ],
      "name": "Approval",
      "type": "event"
    },
    {
      "anonymous": false,
      "inputs": [
        {
          "indexed": true,
          "internalType": "address",
          "name": "holder",
          "type": "address"
        },
        {
          "indexed": false,
          "internalType": "uint256",
          "name": "amount",
          "type": "uint256"
        }
      ],
      "name": "DividendClaimed",
      "type": "event"
    },
    {
      "anonymous": false,
      "inputs": [
        {
          "indexed": false,
          "internalType": "uint256",
          "name": "totalAmount",
          "type": "uint256"
        },
        {
          "indexed": false,
          "internalType": "uint256",
          "name": "perToken",
          "type": "uint256"
        }
      ],
      "name": "DividendsDistributed",
      "type": "event"
    },
    {
      "anonymous": false,
      "inputs": [
        {
          "indexed": true,
          "internalType": "address",
          "name": "previousOwner",
          "type": "address"
        },
        {
          "indexed": true,
          "internalType": "address",
          "name": "newOwner",
          "type": "address"
        }
      ],
      "name": "OwnershipTransferred",
      "type": "event"
    },
    {
      "anonymous": false,
      "inputs": [
        {
          "indexed": true,
          "internalType": "uint256",
          "name": "proposalId",
          "type": "uint256"
        },
        {
          "indexed": false,
          "internalType": "string",
          "name": "title",
          "type": "string"
        },
        {
          "indexed": false,
          "internalType": "enum FanStockToken.ProposalType",
          "name": "proposalType",
          "type": "uint8"
        }
      ],
      "name": "ProposalCreated",
      "type": "event"
    },
    {
      "anonymous": false,
      "inputs": [
        {
          "indexed": true,
          "internalType": "uint256",
          "name": "proposalId",
          "type": "uint256"
        },
        {
          "indexed": false,
          "internalType": "bool",
          "name": "approved",
          "type": "bool"
        }
      ],
      "name": "ProposalExecuted",
      "type": "event"
    },
    {
      "anonymous": false,
      "inputs": [
        {
          "indexed": true,
          "internalType": "uint256",
          "name": "proposalId",
          "type": "uint256"
        },
        {
          "indexed": true,
          "internalType": "address",
          "name": "voter",
          "type": "address"
        },
        {
          "indexed": false,
          "internalType": "bool",
          "name": "support",
          "type": "bool"
        },
        {
          "indexed": false,
          "internalType": "uint256",
          "name": "weight",
          "type": "uint256"
        }
      ],
      "name": "ProposalVoted",
      "type": "event"
    },
    {
      "anonymous": false,
      "inputs": [
        {
          "indexed": false,
          "internalType": "string",
          "name": "source",
          "type": "string"
        },
        {
          "indexed": false,
          "internalType": "uint256",
          "name": "amount",
          "type": "uint256"
        }
      ],
      "name": "RevenueAdded",
      "type": "event"
    },
    {
      "anonymous": false,
      "inputs": [
        {
          "indexed": true,
          "internalType": "address",
          "name": "buyer",
          "type": "address"
        },
        {
          "indexed": false,
          "internalType": "uint256",
          "name": "amount",
          "type": "uint256"
        },
        {
          "indexed": false,
          "internalType": "uint256",
          "name": "cost",
          "type": "uint256"
        }
      ],
      "name": "TokensPurchased",
      "type": "event"
    },
    {
      "anonymous": false,
      "inputs": [
        {
          "indexed": true,
          "internalType": "address",
          "name": "from",
          "type": "address"
        },
        {
          "indexed": true,
          "internalType": "address",
          "name": "to",
          "type": "address"
        },
        {
          "indexed": false,
          "internalType": "uint256",
          "name": "value",
          "type": "uint256"
        }
      ],
      "name": "Transfer",
      "type": "event"
    },
    {
      "inputs": [],
      "name": "MAX_VOTING_PERIOD",
      "outputs": [
        {
          "internalType": "uint256",
          "name": "",
          "type": "uint256"
        }
      ],
      "stateMutability": "view",
      "type": "function"
    },
    {
      "inputs": [],
      "name": "MIN_VOTING_PERIOD",
      "outputs": [
        {
          "internalType": "uint256",
          "name": "",
          "type": "uint256"
        }
      ],
      "stateMutability": "view",
      "type": "function"
    },
    {
      "inputs": [
        {
          "internalType": "string",
          "name": "_source",
          "type": "string"
        },
        {
          "internalType": "uint256",
          "name": "_amount",
          "type": "uint256"
        }
      ],
      "name": "addRevenue",
      "outputs": [],
      "stateMutability": "nonpayable",
      "type": "function"
    },
    {
      "inputs": [
        {
          "internalType": "address",
          "name": "owner",
          "type": "address"
        },
        {
          "internalType": "address",
          "name": "spender",
          "type": "address"
        }
      ],
      "name": "allowance",
      "outputs": [
        {
          "internalType": "uint256",
          "name": "",
          "type": "uint256"
        }
      ],
      "stateMutability": "view",
      "type": "function"
    },
    {
      "inputs": [
        {
          "internalType": "address",
          "name": "spender",
          "type": "address"
        },
        {
          "internalType": "uint256",
          "name": "value",
          "type": "uint256"
        }
      ],
      "name": "approve",
      "outputs": [
        {
          "internalType": "bool",
          "name": "",
          "type": "bool"
        }
      ],
      "stateMutability": "nonpayable",
      "type": "function"
    },
    {
      "inputs": [
        {
          "internalType": "address",
          "name": "account",
          "type": "address"
        }
      ],
      "name": "balanceOf",
      "outputs": [
        {
          "internalType": "uint256",
          "name": "",
          "type": "uint256"
        }
      ],
      "stateMutability": "view",
      "type": "function"
    },
    {
      "inputs": [
        {
          "internalType": "uint256",
          "name": "_amount",
          "type": "uint256"
        }
      ],
      "name": "buyTokens",
      "outputs": [],
      "stateMutability": "payable",
      "type": "function"
    },
    {
      "inputs": [
        {
          "internalType": "address",
          "name": "_holder",
          "type": "address"
        }
      ],
      "name": "calculateDividends",
      "outputs": [
        {
          "internalType": "uint256",
          "name": "",
          "type": "uint256"
        }
      ],
      "stateMutability": "view",
      "type": "function"
    },
    {
      "inputs": [],
      "name": "claimDividends",
      "outputs": [],
      "stateMutability": "nonpayable",
      "type": "function"
    },
    {
      "inputs": [],
      "name": "clubInfo",
      "outputs": [
        {
          "internalType": "string",
          "name": "name",
          "type": "string"
        },
        {
          "internalType": "string",
          "name": "location",
          "type": "string"
        },
        {
          "internalType": "uint256",
          "name": "foundedYear",
          "type": "uint256"
        },
        {
          "internalType": "string",
          "name": "league",
          "type": "string"
        }
      ],
      "stateMutability": "view",
      "type": "function"
    },
    {
      "inputs": [
        {
          "internalType": "string",
          "name": "_title",
          "type": "string"
        },
        {
          "internalType": "string",
          "name": "_description",
          "type": "string"
        },
        {
          "internalType": "enum FanStockToken.ProposalType",
          "name": "_proposalType",
          "type": "uint8"
        },
        {
          "internalType": "uint256",
          "name": "_amount",
          "type": "uint256"
        },
        {
          "internalType": "string",
          "name": "_details",
          "type": "string"
        },
        {
          "internalType": "uint256",
          "name": "_votingDays",
          "type": "uint256"
        }
      ],
      "name": "createProposal",
      "outputs": [],
      "stateMutability": "nonpayable",
      "type": "function"
    },
    {
      "inputs": [],
      "name": "decimals",
      "outputs": [
        {
          "internalType": "uint8",
          "name": "",
          "type": "uint8"
        }
      ],
      "stateMutability": "view",
      "type": "function"
    },
    {
      "inputs": [],
      "name": "distributeDividends",
      "outputs": [],
      "stateMutability": "nonpayable",
      "type": "function"
    },
    {
      "inputs": [
        {
          "internalType": "uint256",
          "name": "_proposalId",
          "type": "uint256"
        }
      ],
      "name": "executeProposal",
      "outputs": [],
      "stateMutability": "nonpayable",
      "type": "function"
    },
    {
      "inputs": [],
      "name": "getClubInfo",
      "outputs": [
        {
          "components": [
            {
              "internalType": "string",
              "name": "name",
              "type": "string"
            },
            {
              "internalType": "string",
              "name": "location",
              "type": "string"
            },
            {
              "internalType": "uint256",
              "name": "foundedYear",
              "type": "uint256"
            },
            {
              "internalType": "string",
              "name": "league",
              "type": "string"
            }
          ],
          "internalType": "struct FanStockToken.ClubInfo",
          "name": "",
          "type": "tuple"
        }
      ],
      "stateMutability": "view",
      "type": "function"
    },
    {
      "inputs": [
        {
          "internalType": "uint256",
          "name": "_proposalId",
          "type": "uint256"
        }
      ],
      "name": "getProposalResults",
      "outputs": [
        {
          "internalType": "string",
          "name": "title",
          "type": "string"
        },
        {
          "internalType": "string",
          "name": "description",
          "type": "string"
        },
        {
          "internalType": "enum FanStockToken.ProposalType",
          "name": "proposalType",
          "type": "uint8"
        },
        {
          "internalType": "uint256",
          "name": "amount",
          "type": "uint256"
        },
        {
          "internalType": "string",
          "name": "details",
          "type": "string"
        },
        {
          "internalType": "uint256",
          "name": "votesFor",
          "type": "uint256"
        },
        {
          "internalType": "uint256",
          "name": "votesAgainst",
          "type": "uint256"
        },
        {
          "internalType": "uint256",
          "name": "endTime",
          "type": "uint256"
        },
        {
          "internalType": "bool",
          "name": "executed",
          "type": "bool"
        }
      ],
      "stateMutability": "view",
      "type": "function"
    },
    {
      "inputs": [],
      "name": "getRevenueInfo",
      "outputs": [
        {
          "components": [
            {
              "internalType": "uint256",
              "name": "playerSalesShare",
              "type": "uint256"
            },
            {
              "internalType": "uint256",
              "name": "sponsorshipShare",
              "type": "uint256"
            },
            {
              "internalType": "uint256",
              "name": "tournamentShare",
              "type": "uint256"
            },
            {
              "internalType": "uint256",
              "name": "totalRevenue",
              "type": "uint256"
            },
            {
              "internalType": "uint256",
              "name": "totalDistributed",
              "type": "uint256"
            }
          ],
          "internalType": "struct FanStockToken.RevenueShare",
          "name": "",
          "type": "tuple"
        }
      ],
      "stateMutability": "view",
      "type": "function"
    },
    {
      "inputs": [],
      "name": "getTokenSaleInfo",
      "outputs": [
        {
          "components": [
            {
              "internalType": "uint256",
              "name": "pricePerToken",
              "type": "uint256"
            },
            {
              "internalType": "uint256",
              "name": "maxSupply",
              "type": "uint256"
            },
            {
              "internalType": "uint256",
              "name": "soldTokens",
              "type": "uint256"
            },
            {
              "internalType": "bool",
              "name": "saleActive",
              "type": "bool"
            },
            {
              "internalType": "uint256",
              "name": "minPurchase",
              "type": "uint256"
            },
            {
              "internalType": "uint256",
              "name": "maxPurchase",
              "type": "uint256"
            }
          ],
          "internalType": "struct FanStockToken.TokenSale",
          "name": "",
          "type": "tuple"
        }
      ],
      "stateMutability": "view",
      "type": "function"
    },
    {
      "inputs": [
        {
          "internalType": "uint256",
          "name": "_proposalId",
          "type": "uint256"
        },
        {
          "internalType": "address",
          "name": "_user",
          "type": "address"
        }
      ],
      "name": "hasUserVoted",
      "outputs": [
        {
          "internalType": "bool",
          "name": "",
          "type": "bool"
        }
      ],
      "stateMutability": "view",
      "type": "function"
    },
    {
      "inputs": [],
      "name": "name",
      "outputs": [
        {
          "internalType": "string",
          "name": "",
          "type": "string"
        }
      ],
      "stateMutability": "view",
      "type": "function"
    },
    {
      "inputs": [],
      "name": "owner",
      "outputs": [
        {
          "internalType": "address",
          "name": "",
          "type": "address"
        }
      ],
      "stateMutability": "view",
      "type": "function"
    },
    {
      "inputs": [
        {
          "internalType": "address",
          "name": "",
          "type": "address"
        }
      ],
      "name": "pendingDividends",
      "outputs": [
        {
          "internalType": "uint256",
          "name": "",
          "type": "uint256"
        }
      ],
      "stateMutability": "view",
      "type": "function"
    },
    {
      "inputs": [],
      "name": "proposalCounter",
      "outputs": [
        {
          "internalType": "uint256",
          "name": "",
          "type": "uint256"
        }
      ],
      "stateMutability": "view",
      "type": "function"
    },
    {
      "inputs": [
        {
          "internalType": "uint256",
          "name": "",
          "type": "uint256"
        }
      ],
      "name": "proposals",
      "outputs": [
        {
          "internalType": "uint256",
          "name": "id",
          "type": "uint256"
        },
        {
          "internalType": "string",
          "name": "title",
          "type": "string"
        },
        {
          "internalType": "string",
          "name": "description",
          "type": "string"
        },
        {
          "internalType": "enum FanStockToken.ProposalType",
          "name": "proposalType",
          "type": "uint8"
        },
        {
          "internalType": "uint256",
          "name": "amount",
          "type": "uint256"
        },
        {
          "internalType": "string",
          "name": "details",
          "type": "string"
        },
        {
          "internalType": "uint256",
          "name": "votesFor",
          "type": "uint256"
        },
        {
          "internalType": "uint256",
          "name": "votesAgainst",
          "type": "uint256"
        },
        {
          "internalType": "uint256",
          "name": "endTime",
          "type": "uint256"
        },
        {
          "internalType": "bool",
          "name": "executed",
          "type": "bool"
        }
      ],
      "stateMutability": "view",
      "type": "function"
    },
    {
      "inputs": [],
      "name": "renounceOwnership",
      "outputs": [],
      "stateMutability": "nonpayable",
      "type": "function"
    },
    {
      "inputs": [],
      "name": "revenueShare",
      "outputs": [
        {
          "internalType": "uint256",
          "name": "playerSalesShare",
          "type": "uint256"
        },
        {
          "internalType": "uint256",
          "name": "sponsorshipShare",
          "type": "uint256"
        },
        {
          "internalType": "uint256",
          "name": "tournamentShare",
          "type": "uint256"
        },
        {
          "internalType": "uint256",
          "name": "totalRevenue",
          "type": "uint256"
        },
        {
          "internalType": "uint256",
          "name": "totalDistributed",
          "type": "uint256"
        }
      ],
      "stateMutability": "view",
      "type": "function"
    },
    {
      "inputs": [],
      "name": "symbol",
      "outputs": [
        {
          "internalType": "string",
          "name": "",
          "type": "string"
        }
      ],
      "stateMutability": "view",
      "type": "function"
    },
    {
      "inputs": [],
      "name": "tokenSale",
      "outputs": [
        {
          "internalType": "uint256",
          "name": "pricePerToken",
          "type": "uint256"
        },
        {
          "internalType": "uint256",
          "name": "maxSupply",
          "type": "uint256"
        },
        {
          "internalType": "uint256",
          "name": "soldTokens",
          "type": "uint256"
        },
        {
          "internalType": "bool",
          "name": "saleActive",
          "type": "bool"
        },
        {
          "internalType": "uint256",
          "name": "minPurchase",
          "type": "uint256"
        },
        {
          "internalType": "uint256",
          "name": "maxPurchase",
          "type": "uint256"
        }
      ],
      "stateMutability": "view",
      "type": "function"
    },
    {
      "inputs": [],
      "name": "totalSupply",
      "outputs": [
        {
          "internalType": "uint256",
          "name": "",
          "type": "uint256"
        }
      ],
      "stateMutability": "view",
      "type": "function"
    },
    {
      "inputs": [
        {
          "internalType": "address",
          "name": "to",
          "type": "address"
        },
        {
          "internalType": "uint256",
          "name": "value",
          "type": "uint256"
        }
      ],
      "name": "transfer",
      "outputs": [
        {
          "internalType": "bool",
          "name": "",
          "type": "bool"
        }
      ],
      "stateMutability": "nonpayable",
      "type": "function"
    },
    {
      "inputs": [
        {
          "internalType": "address",
          "name": "from",
          "type": "address"
        },
        {
          "internalType": "address",
          "name": "to",
          "type": "address"
        },
        {
          "internalType": "uint256",
          "name": "value",
          "type": "uint256"
        }
      ],
      "name": "transferFrom",
      "outputs": [
        {
          "internalType": "bool",
          "name": "",
          "type": "bool"
        }
      ],
      "stateMutability": "nonpayable",
      "type": "function"
    },
    {
      "inputs": [
        {
          "internalType": "address",
          "name": "newOwner",
          "type": "address"
        }
      ],
      "name": "transferOwnership",
      "outputs": [],
      "stateMutability": "nonpayable",
      "type": "function"
    },
    {
      "inputs": [
        {
          "internalType": "uint256",
          "name": "_pricePerToken",
          "type": "uint256"
        },
        {
          "internalType": "bool",
          "name": "_saleActive",
          "type": "bool"
        },
        {
          "internalType": "uint256",
          "name": "_minPurchase",
          "type": "uint256"
        },
        {
          "internalType": "uint256",
          "name": "_maxPurchase",
          "type": "uint256"
        }
      ],
      "name": "updateTokenSale",
      "outputs": [],
      "stateMutability": "nonpayable",
      "type": "function"
    },
    {
      "inputs": [
        {
          "internalType": "address",
          "name": "",
          "type": "address"
        }
      ],
      "name": "userPurchases",
      "outputs": [
        {
          "internalType": "uint256",
          "name": "",
          "type": "uint256"
        }
      ],
      "stateMutability": "view",
      "type": "function"
    },
    {
      "inputs": [
        {
          "internalType": "uint256",
          "name": "_proposalId",
          "type": "uint256"
        },
        {
          "internalType": "bool",
          "name": "_support",
          "type": "bool"
        }
      ],
      "name": "voteOnProposal",
      "outputs": [],
      "stateMutability": "nonpayable",
      "type": "function"
    },
    {
      "inputs": [],
      "name": "withdrawFunds",
      "outputs": [],
      "stateMutability": "nonpayable",
      "type": "function"
    },
    {
      "stateMutability": "payable",
      "type": "receive"
    }
  ],
  "bytecode": "0x60806040523480156200001157600080fd5b50604051620031c0380380620031c08339810160408190526200003491620003a2565b33858560036200004583826200057a565b5060046200005482826200057a565b5050506001600160a01b0381166200008657604051631e4fbdf760e01b81526000600482015260240160405180910390fd5b62000091816200014e565b506001600655825183906007908190620000ac90826200057a565b5060208201516001820190620000c390826200057a565b506040820151600282015560608201516003820190620000e490826200057a565b50508251600b5550602080830151600c55604080840151600d55606080850151600e805460ff1916911515919091179055608080860151600f5560a09095015160105583516011559183015160125582015160135581015160145501516015555062000646915050565b600580546001600160a01b038381166001600160a01b0319831681179093556040519116919082907f8be0079c531659141344cd1fd0a4f28419497f9722a3daafe3b4186f6b6457e090600090a35050565b634e487b7160e01b600052604160045260246000fd5b604051608081016001600160401b0381118282101715620001db57620001db620001a0565b60405290565b604051601f8201601f191681016001600160401b03811182821017156200020c576200020c620001a0565b604052919050565b600082601f8301126200022657600080fd5b81516001600160401b03811115620002425762000242620001a0565b602062000258601f8301601f19168201620001e1565b82815285828487010111156200026d57600080fd5b60005b838110156200028d57858101830151828201840152820162000270565b506000928101909101919091529392505050565b600060c08284031215620002b457600080fd5b60405160c081016001600160401b0381118282101715620002d957620002d9620001a0565b8060405250809150825181526020830151602082015260408301516040820152606083015180151581146200030d57600080fd5b806060830152506080830151608082015260a083015160a08201525092915050565b600060a082840312156200034257600080fd5b60405160a081016001600160401b0381118282101715620003675762000367620001a0565b806040525080915082518152602083015160208201526040830151604082015260608301516060820152608083015160808201525092915050565b60008060008060006101c08688031215620003bc57600080fd5b85516001600160401b0380821115620003d457600080fd5b620003e289838a0162000214565b96506020880151915080821115620003f957600080fd5b6200040789838a0162000214565b955060408801519150808211156200041e57600080fd5b908701906080828a0312156200043357600080fd5b6200043d620001b6565b8251828111156200044d57600080fd5b6200045b8b82860162000214565b8252506020830151828111156200047157600080fd5b6200047f8b82860162000214565b60208301525060408301516040820152606083015182811115620004a257600080fd5b620004b08b82860162000214565b606083015250809550505050620004cb8760608801620002a1565b9150620004dd8761012088016200032f565b90509295509295909350565b600181811c90821680620004fe57607f821691505b6020821081036200051f57634e487b7160e01b600052602260045260246000fd5b50919050565b601f82111562000575576000816000526020600020601f850160051c81016020861015620005505750805b601f850160051c820191505b8181101562000571578281556001016200055c565b5050505b505050565b81516001600160401b03811115620005965762000596620001a0565b620005ae81620005a78454620004e9565b8462000525565b602080601f831160018114620005e65760008415620005cd5750858301515b600019600386901b1c1916600185901b17855562000571565b600085815260208120601f198616915b828110156200061757888601518255948401946001909101908401620005f6565b5085821015620006365787850151600019600388901b60f8161c191681555b5050505050600190811b01905550565b612b6a80620006566000396000f3fe6080604052600436106102135760003560e01c806370a0823111610118578063b9420310116100a0578063dc296ae11161006f578063dc296ae11461074c578063dd62ed3e14610796578063e00e850e146107dc578063f2fde38b146107fc578063ff0984ca1461081c57600080fd5b8063b94203101461063d578063c42f1f851461069a578063c7926458146106bc578063d9ec7e21146106e957600080fd5b806395d89b41116100e757806395d89b411461057a578063a4133c641461058f578063a64e024a146105af578063a9059cbb146105c6578063abc78e60146105e657600080fd5b806370a08231146104e7578063715018a61461051d5780638da5cb5b14610532578063912c15551461055a57600080fd5b8063215809ca1161019b5780633610724e1161016a5780633610724e1461043857806339f65c091461044b5780635bdcd008146104785780635e4c5813146104ad578063668038e0146104d257600080fd5b8063215809ca146103d057806323b872dd146103e757806324600fc314610407578063313ce5671461041c57600080fd5b80630c0512e9116101e25780630c0512e9146103375780630d61b5191461035b5780631614665c1461037b57806318160ddd1461039b5780631f7be99d146103b057600080fd5b8063013cf08b1461028f57806303c83302146102ce57806306fdde03146102e5578063095ea7b31461030757600080fd5b3661028a57346011600301600082825461022d9190612292565b909155505060408051818152600e818301526d111a5c9958dd081c185e5b595b9d60921b606082015234602082015290517f46fe7a30c2aa516aa571c929ccb0b1387435c0167fb41b5777df1fead51a90739181900360800190a1005b600080fd5b34801561029b57600080fd5b506102af6102aa3660046122a5565b61086b565b6040516102c59a9998979695949392919061233c565b60405180910390f35b3480156102da57600080fd5b506102e3610a5c565b005b3480156102f157600080fd5b506102fa610bf5565b6040516102c591906123bf565b34801561031357600080fd5b506103276103223660046123ee565b610c87565b60405190151581526020016102c5565b34801561034357600080fd5b5061034d60195481565b6040519081526020016102c5565b34801561036757600080fd5b506102e36103763660046122a5565b610ca1565b34801561038757600080fd5b506102e3610396366004612428565b610dc0565b3480156103a757600080fd5b5060025461034d565b3480156103bc57600080fd5b506102e36103cb3660046124f7565b610f92565b3480156103dc57600080fd5b5061034d6203f48081565b3480156103f357600080fd5b506103276104023660046125aa565b611187565b34801561041357600080fd5b506102e36111ad565b34801561042857600080fd5b50604051601281526020016102c5565b6102e36104463660046122a5565b611238565b34801561045757600080fd5b5061034d6104663660046125e6565b60176020526000908152604090205481565b34801561048457600080fd5b506104986104933660046122a5565b6114d5565b6040516102c599989796959493929190612601565b3480156104b957600080fd5b506104c2611726565b6040516102c5949392919061267c565b3480156104de57600080fd5b506102e36118da565b3480156104f357600080fd5b5061034d6105023660046125e6565b6001600160a01b031660009081526020819052604090205490565b34801561052957600080fd5b506102e3611a0a565b34801561053e57600080fd5b506005546040516001600160a01b0390911681526020016102c5565b34801561056657600080fd5b5061034d6105753660046125e6565b611a1c565b34801561058657600080fd5b506102fa611aab565b34801561059b57600080fd5b506102e36105aa3660046126c6565b611aba565b3480156105bb57600080fd5b5061034d6212750081565b3480156105d257600080fd5b506103276105e13660046123ee565b611b6a565b3480156105f257600080fd5b506105fb611b78565b6040516102c59190600060a082019050825182526020830151602083015260408301516040830152606083015160608301526080830151608083015292915050565b34801561064957600080fd5b50600b54600c54600d54600e54600f5460105461066b9594939260ff16919086565b6040805196875260208701959095529385019290925215156060840152608083015260a082015260c0016102c5565b3480156106a657600080fd5b506106af611bdf565b6040516102c5919061270b565b3480156106c857600080fd5b5061034d6106d73660046125e6565b60186020526000908152604090205481565b3480156106f557600080fd5b506106fe611ddc565b6040516102c59190600060c0820190508251825260208301516020830152604083015160408301526060830151151560608301526080830151608083015260a083015160a083015292915050565b34801561075857600080fd5b50610327610767366004612776565b60008281526016602090815260408083206001600160a01b0385168452600a0190915290205460ff1692915050565b3480156107a257600080fd5b5061034d6107b1366004612799565b6001600160a01b03918216600090815260016020908152604080832093909416825291909152205490565b3480156107e857600080fd5b506102e36107f73660046127c3565b611e59565b34801561080857600080fd5b506102e36108173660046125e6565b611e81565b34801561082857600080fd5b50601154601254601354601454601554610843949392919085565b604080519586526020860194909452928401919091526060830152608082015260a0016102c5565b6016602052600090815260409020805460018201805491929161088d906127fe565b80601f01602080910402602001604051908101604052809291908181526020018280546108b9906127fe565b80156109065780601f106108db57610100808354040283529160200191610906565b820191906000526020600020905b8154815290600101906020018083116108e957829003601f168201915b50505050509080600201805461091b906127fe565b80601f0160208091040260200160405190810160405280929190818152602001828054610947906127fe565b80156109945780601f1061096957610100808354040283529160200191610994565b820191906000526020600020905b81548152906001019060200180831161097757829003601f168201915b5050505060038301546004840154600585018054949560ff90931694919350906109bd906127fe565b80601f01602080910402602001604051908101604052809291908181526020018280546109e9906127fe565b8015610a365780601f10610a0b57610100808354040283529160200191610a36565b820191906000526020600020905b815481529060010190602001808311610a1957829003601f168201915b505050506006830154600784015460088501546009909501549394919390925060ff168a565b610a64611ebc565b610a6c611ee9565b601554601454600091610a7e91612838565b905060008111610ad55760405162461bcd60e51b815260206004820152601860248201527f4e6f20726576656e756520746f2064697374726962757465000000000000000060448201526064015b60405180910390fd5b6000610ae060025490565b11610b205760405162461bcd60e51b815260206004820152601060248201526f139bc81d1bdad95b9cc81a5cdcdd595960821b6044820152606401610acc565b6000610b2b60025490565b610b35908361284b565b905060008111610b7c5760405162461bcd60e51b8152602060048201526012602482015271111a5d9a59195b99081d1bdbc81cdb585b1b60721b6044820152606401610acc565b6000610b8760025490565b610b91908361286d565b90508060116004016000828254610ba89190612292565b909155505060408051828152602081018490527fac4c4b96e3856cb20170077826b7701a887bdaf8d743f369b438133249a1f82f910160405180910390a1505050610bf36001600655565b565b606060038054610c04906127fe565b80601f0160208091040260200160405190810160405280929190818152602001828054610c30906127fe565b8015610c7d5780601f10610c5257610100808354040283529160200191610c7d565b820191906000526020600020905b815481529060010190602001808311610c6057829003601f168201915b5050505050905090565b600033610c95818585611f13565b60019150505b92915050565b610ca9611ebc565b60008181526016602052604081208054909103610cd85760405162461bcd60e51b8152600401610acc90612884565b8060080154421015610d225760405162461bcd60e51b8152602060048201526013602482015272566f74696e67207374696c6c2061637469766560681b6044820152606401610acc565b600981015460ff1615610d6a5760405162461bcd60e51b815260206004820152601060248201526f105b1c9958591e48195e1958dd5d195960821b6044820152606401610acc565b60098101805460ff191660011790556007810154600682015460405191108082529083907f948f4a9cd986f1118c3fbd459f7a22b23c0693e1ca3ef06a6a8be5aa7d39cc039060200160405180910390a2505050565b60008281526016602052604081208054909103610def5760405162461bcd60e51b8152600401610acc90612884565b80600801544210610e385760405162461bcd60e51b8152602060048201526013602482015272159bdd1a5b99c81c195c9a5bd908195b991959606a1b6044820152606401610acc565b336000908152600a8201602052604090205460ff1615610e8a5760405162461bcd60e51b815260206004820152600d60248201526c105b1c9958591e481d9bdd1959609a1b6044820152606401610acc565b3360009081526020819052604081205411610ee75760405162461bcd60e51b815260206004820152601760248201527f4d757374206f776e20746f6b656e7320746f20766f74650000000000000000006044820152606401610acc565b3360009081526020818152604080832054600a8501909252909120805460ff191660011790558215610f325780826006016000828254610f279190612292565b90915550610f4c9050565b80826007016000828254610f469190612292565b90915550505b60408051841515815260208101839052339186917f78975aaf742630489badd22949b88ac50eaaea576339ee05440b671a33bfb6a991015b60405180910390a350505050565b610f9a611ebc565b610faa620151806203f48061284b565b8110158015610fc85750610fc4620151806212750061284b565b8111155b61100c5760405162461bcd60e51b8152602060048201526015602482015274125b9d985b1a59081d9bdd1a5b99c81c195c9a5bd9605a1b6044820152606401610acc565b600086511161104e5760405162461bcd60e51b815260206004820152600e60248201526d151a5d1b19481c995c5d5a5c995960921b6044820152606401610acc565b60008551116110965760405162461bcd60e51b815260206004820152601460248201527311195cd8dc9a5c1d1a5bdb881c995c5d5a5c995960621b6044820152606401610acc565b601980549060006110a6836128bb565b90915550506019546000818152601660205260409020908155600181016110cd8882612924565b50600281016110dc8782612924565b5060038101805486919060ff191660018360058111156110fe576110fe612304565b021790555060048101849055600581016111188482612924565b50611126826201518061286d565b6111309042612292565b600882015560098101805460ff191690556019546040517fd54d24c2f5d3c070ed74aa4a4926cc273f4bdf17b66ce3d0a6493b11da160e2890611176908a9089906129e4565b60405180910390a250505050505050565b600033611195858285611f25565b6111a0858585611fa4565b60019150505b9392505050565b6111b5611ebc565b47806111fa5760405162461bcd60e51b81526020600482015260146024820152734e6f2066756e647320746f20776974686472617760601b6044820152606401610acc565b6005546040516001600160a01b039091169082156108fc029083906000818181858888f19350505050158015611234573d6000803e3d6000fd5b5050565b611240611ee9565b600e5460ff1661128a5760405162461bcd60e51b8152602060048201526015602482015274546f6b656e2073616c65206e6f742061637469766560581b6044820152606401610acc565b600f548110156112d55760405162461bcd60e51b815260206004820152601660248201527542656c6f77206d696e696d756d20707572636861736560501b6044820152606401610acc565b601054336000908152601760205260409020546112f3908390612292565b11156113415760405162461bcd60e51b815260206004820152601d60248201527f45786365656473206d61782070757263686173652070657220757365720000006044820152606401610acc565b600c54600d54611352908390612292565b11156113955760405162461bcd60e51b815260206004820152601260248201527145786365656473206d617820737570706c7960701b6044820152606401610acc565b600b546000906113a5908361286d565b9050803410156113ee5760405162461bcd60e51b8152602060048201526014602482015273125b9cdd59999a58da595b9d081c185e5b595b9d60621b6044820152606401610acc565b8034111561142e57336108fc6114048334612838565b6040518115909202916000818181858888f1935050505015801561142c573d6000803e3d6000fd5b505b81600b60020160008282546114439190612292565b90915550503360009081526017602052604081208054849290611467908490612292565b9091555061148c90503361147d6012600a612aea565b611487908561286d565b612003565b604080518381526020810183905233917f8fafebcaf9d154343dad25669bfa277f4fbacd7ac6b0c4fed522580e040a0f33910160405180910390a2506114d26001600655565b50565b60608060008060606000806000806000601660008c81526020019081526020016000209050806000015460000361151e5760405162461bcd60e51b8152600401610acc90612884565b80600101816002018260030160009054906101000a900460ff168360040154846005018560060154866007015487600801548860090160009054906101000a900460ff1688805461156e906127fe565b80601f016020809104026020016040519081016040528092919081815260200182805461159a906127fe565b80156115e75780601f106115bc576101008083540402835291602001916115e7565b820191906000526020600020905b8154815290600101906020018083116115ca57829003601f168201915b505050505098508780546115fa906127fe565b80601f0160208091040260200160405190810160405280929190818152602001828054611626906127fe565b80156116735780601f1061164857610100808354040283529160200191611673565b820191906000526020600020905b81548152906001019060200180831161165657829003601f168201915b50505050509750848054611686906127fe565b80601f01602080910402602001604051908101604052809291908181526020018280546116b2906127fe565b80156116ff5780601f106116d4576101008083540402835291602001916116ff565b820191906000526020600020905b8154815290600101906020018083116116e257829003601f168201915b50505050509450995099509950995099509950995099509950509193959799909294969850565b600780548190611735906127fe565b80601f0160208091040260200160405190810160405280929190818152602001828054611761906127fe565b80156117ae5780601f10611783576101008083540402835291602001916117ae565b820191906000526020600020905b81548152906001019060200180831161179157829003601f168201915b5050505050908060010180546117c3906127fe565b80601f01602080910402602001604051908101604052809291908181526020018280546117ef906127fe565b801561183c5780601f106118115761010080835404028352916020019161183c565b820191906000526020600020905b81548152906001019060200180831161181f57829003601f168201915b505050505090806002015490806003018054611857906127fe565b80601f0160208091040260200160405190810160405280929190818152602001828054611883906127fe565b80156118d05780601f106118a5576101008083540402835291602001916118d0565b820191906000526020600020905b8154815290600101906020018083116118b357829003601f168201915b5050505050905084565b6118e2611ee9565b60405163912c155560e01b8152336004820152600090309063912c155590602401602060405180830381865afa158015611920573d6000803e3d6000fd5b505050506040513d601f19601f820116820180604052508101906119449190612af9565b90506000811161198e5760405162461bcd60e51b81526020600482015260156024820152744e6f206469766964656e647320746f20636c61696d60581b6044820152606401610acc565b336000818152601860205260408082208290555183156108fc0291849190818181858888f193505050501580156119c9573d6000803e3d6000fd5b5060405181815233907f5efa67896a23b651b741b525caacba039c00ca7853be3de8eb1f4269e8669c569060200160405180910390a250610bf36001600655565b611a12611ebc565b610bf36000612039565b6000611a2760025490565b1580611a4957506001600160a01b038216600090815260208190526040902054155b15611a5657506000919050565b601554601454600091611a6891612838565b905080600003611a7b5750600092915050565b6002546001600160a01b038416600090815260208190526040902054611aa1908361286d565b6111a6919061284b565b606060048054610c04906127fe565b611ac2611ebc565b60008111611b125760405162461bcd60e51b815260206004820152601760248201527f416d6f756e74206d75737420626520706f7369746976650000000000000000006044820152606401610acc565b8060116003016000828254611b279190612292565b90915550506040517f46fe7a30c2aa516aa571c929ccb0b1387435c0167fb41b5777df1fead51a907390611b5e9084908490612b12565b60405180910390a15050565b600033610c95818585611fa4565b611baa6040518060a0016040528060008152602001600081526020016000815260200160008152602001600081525090565b506040805160a08101825260115481526012546020820152601354918101919091526014546060820152601554608082015290565b611c0a6040518060800160405280606081526020016060815260200160008152602001606081525090565b6007604051806080016040529081600082018054611c27906127fe565b80601f0160208091040260200160405190810160405280929190818152602001828054611c53906127fe565b8015611ca05780601f10611c7557610100808354040283529160200191611ca0565b820191906000526020600020905b815481529060010190602001808311611c8357829003601f168201915b50505050508152602001600182018054611cb9906127fe565b80601f0160208091040260200160405190810160405280929190818152602001828054611ce5906127fe565b8015611d325780601f10611d0757610100808354040283529160200191611d32565b820191906000526020600020905b815481529060010190602001808311611d1557829003601f168201915b5050505050815260200160028201548152602001600382018054611d55906127fe565b80601f0160208091040260200160405190810160405280929190818152602001828054611d81906127fe565b8015611dce5780601f10611da357610100808354040283529160200191611dce565b820191906000526020600020905b815481529060010190602001808311611db157829003601f168201915b505050505081525050905090565b611e176040518060c0016040528060008152602001600081526020016000815260200160001515815260200160008152602001600081525090565b506040805160c081018252600b548152600c546020820152600d5491810191909152600e5460ff1615156060820152600f54608082015260105460a082015290565b611e61611ebc565b600b93909355600e805460ff191692151592909217909155600f55601055565b611e89611ebc565b6001600160a01b038116611eb357604051631e4fbdf760e01b815260006004820152602401610acc565b6114d281612039565b6005546001600160a01b03163314610bf35760405163118cdaa760e01b8152336004820152602401610acc565b600260065403611f0c57604051633ee5aeb560e01b815260040160405180910390fd5b6002600655565b611f20838383600161208b565b505050565b6001600160a01b03838116600090815260016020908152604080832093861683529290522054600019811015611f9e5781811015611f8f57604051637dc7a0d960e11b81526001600160a01b03841660048201526024810182905260448101839052606401610acc565b611f9e8484848403600061208b565b50505050565b6001600160a01b038316611fce57604051634b637e8f60e11b815260006004820152602401610acc565b6001600160a01b038216611ff85760405163ec442f0560e01b815260006004820152602401610acc565b611f20838383612152565b6001600160a01b03821661202d5760405163ec442f0560e01b815260006004820152602401610acc565b61123460008383612152565b600580546001600160a01b038381166001600160a01b0319831681179093556040519116919082907f8be0079c531659141344cd1fd0a4f28419497f9722a3daafe3b4186f6b6457e090600090a35050565b6001600160a01b0384166120b55760405163e602df0560e01b815260006004820152602401610acc565b6001600160a01b0383166120df57604051634a1406b160e11b815260006004820152602401610acc565b6001600160a01b0380851660009081526001602090815260408083209387168352929052208290558015611f9e57826001600160a01b0316846001600160a01b03167f8c5be1e5ebec7d5bd14f71427d1e84f3dd0314c0f7b2291e5b200ac8c7c3b92584604051610f8491815260200190565b6001600160a01b03831661217d5780600260008282546121729190612292565b909155506121ef9050565b6001600160a01b038316600090815260208190526040902054818110156121d05760405163391434e360e21b81526001600160a01b03851660048201526024810182905260448101839052606401610acc565b6001600160a01b03841660009081526020819052604090209082900390555b6001600160a01b03821661220b5760028054829003905561222a565b6001600160a01b03821660009081526020819052604090208054820190555b816001600160a01b0316836001600160a01b03167fddf252ad1be2c89b69c2b068fc378daa952ba7f163c4a11628f55a4df523b3ef8360405161226f91815260200190565b60405180910390a3505050565b634e487b7160e01b600052601160045260246000fd5b80820180821115610c9b57610c9b61227c565b6000602082840312156122b757600080fd5b5035919050565b6000815180845260005b818110156122e4576020818501810151868301820152016122c8565b506000602082860101526020601f19601f83011685010191505092915050565b634e487b7160e01b600052602160045260246000fd5b6006811061233857634e487b7160e01b600052602160045260246000fd5b9052565b60006101408c83528060208401526123568184018d6122be565b9050828103604084015261236a818c6122be565b9050612379606084018b61231a565b88608084015282810360a084015261239181896122be565b9150508560c08301528460e0830152836101008301528215156101208301529b9a5050505050505050505050565b6020815260006111a660208301846122be565b80356001600160a01b03811681146123e957600080fd5b919050565b6000806040838503121561240157600080fd5b61240a836123d2565b946020939093013593505050565b803580151581146123e957600080fd5b6000806040838503121561243b57600080fd5b8235915061244b60208401612418565b90509250929050565b634e487b7160e01b600052604160045260246000fd5b600082601f83011261247b57600080fd5b813567ffffffffffffffff8082111561249657612496612454565b604051601f8301601f19908116603f011681019082821181831017156124be576124be612454565b816040528381528660208588010111156124d757600080fd5b836020870160208301376000602085830101528094505050505092915050565b60008060008060008060c0878903121561251057600080fd5b863567ffffffffffffffff8082111561252857600080fd5b6125348a838b0161246a565b9750602089013591508082111561254a57600080fd5b6125568a838b0161246a565b9650604089013591506006821061256c57600080fd5b909450606088013593506080880135908082111561258957600080fd5b5061259689828a0161246a565b92505060a087013590509295509295509295565b6000806000606084860312156125bf57600080fd5b6125c8846123d2565b92506125d6602085016123d2565b9150604084013590509250925092565b6000602082840312156125f857600080fd5b6111a6826123d2565b60006101208083526126158184018d6122be565b90508281036020840152612629818c6122be565b9050612638604084018b61231a565b886060840152828103608084015261265081896122be565b9150508560a08301528460c08301528360e08301528215156101008301529a9950505050505050505050565b60808152600061268f60808301876122be565b82810360208401526126a181876122be565b905084604084015282810360608401526126bb81856122be565b979650505050505050565b600080604083850312156126d957600080fd5b823567ffffffffffffffff8111156126f057600080fd5b6126fc8582860161246a565b95602094909401359450505050565b60208152600082516080602084015261272760a08401826122be565b90506020840151601f198085840301604086015261274583836122be565b92506040860151606086015260608601519150808584030160808601525061276d82826122be565b95945050505050565b6000806040838503121561278957600080fd5b8235915061244b602084016123d2565b600080604083850312156127ac57600080fd5b6127b5836123d2565b915061244b602084016123d2565b600080600080608085870312156127d957600080fd5b843593506127e960208601612418565b93969395505050506040820135916060013590565b600181811c9082168061281257607f821691505b60208210810361283257634e487b7160e01b600052602260045260246000fd5b50919050565b81810381811115610c9b57610c9b61227c565b60008261286857634e487b7160e01b600052601260045260246000fd5b500490565b8082028115828204841417610c9b57610c9b61227c565b60208082526017908201527f50726f706f73616c20646f6573206e6f74206578697374000000000000000000604082015260600190565b6000600182016128cd576128cd61227c565b5060010190565b601f821115611f20576000816000526020600020601f850160051c810160208610156128fd5750805b601f850160051c820191505b8181101561291c57828155600101612909565b505050505050565b815167ffffffffffffffff81111561293e5761293e612454565b6129528161294c84546127fe565b846128d4565b602080601f831160018114612987576000841561296f5750858301515b600019600386901b1c1916600185901b17855561291c565b600085815260208120601f198616915b828110156129b657888601518255948401946001909101908401612997565b50858210156129d45787850151600019600388901b60f8161c191681555b5050505050600190811b01905550565b6040815260006129f760408301856122be565b90506111a6602083018461231a565b600181815b80851115612a41578160001904821115612a2757612a2761227c565b80851615612a3457918102915b93841c9390800290612a0b565b509250929050565b600082612a5857506001610c9b565b81612a6557506000610c9b565b8160018114612a7b5760028114612a8557612aa1565b6001915050610c9b565b60ff841115612a9657612a9661227c565b50506001821b610c9b565b5060208310610133831016604e8410600b8410161715612ac4575081810a610c9b565b612ace8383612a06565b8060001904821115612ae257612ae261227c565b029392505050565b60006111a660ff841683612a49565b600060208284031215612b0b57600080fd5b5051919050565b604081526000612b2560408301856122be565b9050826020830152939250505056fea2646970667358221220bf7058c38511c6ae1b10d9f079910fd2beba685dc559d65e14aa02261ba7a92d64736f6c63430008180033",
  "linkReferences": {},
  "deployedLinkReferences": {}
}