{
  "_format": "hh-sol-artifact-1",
  "contractName": "PriceOracle",
  "sourceName": "contracts/PriceOracle.sol",
  "abi": [
    {
      "inputs": [
        {
          "internalType": "uint256",
          "name": "_initialPrice",
          "type": "uint256"
        }
      ],
      "stateMutability": "nonpayable",
      "type": "constructor"
    },
    {
      "inputs": [
        {
          "internalType": "address",
          "name": "owner",
          "type": "address"
        }
      ],
      "name": "OwnableInvalidOwner",
      "type": "error"
    },
    {
      "inputs": [
        {
          "internalType": "address",
          "name": "account",
          "type": "address"
        }
      ],
      "name": "OwnableUnauthorizedAccount",
      "type": "error"
    },
    {
      "anonymous": false,
      "inputs": [
        {
          "indexed": true,
          "internalType": "address",
          "name": "previousOwner",
          "type": "address"
        },
        {
          "indexed": true,
          "internalType": "address",
          "name": "newOwner",
          "type": "address"
        }
      ],
      "name": "OwnershipTransferred",
      "type": "event"
    },
    {
      "anonymous": false,
      "inputs": [
        {
          "indexed": false,
          "internalType": "uint256",
          "name": "oldPrice",
          "type": "uint256"
        },
        {
          "indexed": false,
          "internalType": "uint256",
          "name": "newPrice",
          "type": "uint256"
        },
        {
          "indexed": false,
          "internalType": "uint256",
          "name": "timestamp",
          "type": "uint256"
        }
      ],
      "name": "PriceUpdated",
      "type": "event"
    },
    {
      "inputs": [],
      "name": "chzPriceInEurCents",
      "outputs": [
        {
          "internalType": "uint256",
          "name": "",
          "type": "uint256"
        }
      ],
      "stateMutability": "view",
      "type": "function"
    },
    {
      "inputs": [
        {
          "internalType": "uint256",
          "name": "chzAmount",
          "type": "uint256"
        }
      ],
      "name": "chzToEur",
      "outputs": [
        {
          "internalType": "uint256",
          "name": "",
          "type": "uint256"
        }
      ],
      "stateMutability": "view",
      "type": "function"
    },
    {
      "inputs": [
        {
          "internalType": "uint256",
          "name": "eurAmount",
          "type": "uint256"
        }
      ],
      "name": "eurToChz",
      "outputs": [
        {
          "internalType": "uint256",
          "name": "",
          "type": "uint256"
        }
      ],
      "stateMutability": "view",
      "type": "function"
    },
    {
      "inputs": [],
      "name": "getPriceInfo",
      "outputs": [
        {
          "internalType": "uint256",
          "name": "price",
          "type": "uint256"
        },
        {
          "internalType": "uint256",
          "name": "lastUpdateTime",
          "type": "uint256"
        },
        {
          "internalType": "bool",
          "name": "isStale",
          "type": "bool"
        }
      ],
      "stateMutability": "view",
      "type": "function"
    },
    {
      "inputs": [],
      "name": "lastUpdate",
      "outputs": [
        {
          "internalType": "uint256",
          "name": "",
          "type": "uint256"
        }
      ],
      "stateMutability": "view",
      "type": "function"
    },
    {
      "inputs": [],
      "name": "owner",
      "outputs": [
        {
          "internalType": "address",
          "name": "",
          "type": "address"
        }
      ],
      "stateMutability": "view",
      "type": "function"
    },
    {
      "inputs": [],
      "name": "renounceOwnership",
      "outputs": [],
      "stateMutability": "nonpayable",
      "type": "function"
    },
    {
      "inputs": [
        {
          "internalType": "address",
          "name": "newOwner",
          "type": "address"
        }
      ],
      "name": "transferOwnership",
      "outputs": [],
      "stateMutability": "nonpayable",
      "type": "function"
    },
    {
      "inputs": [
        {
          "internalType": "uint256",
          "name": "_newPrice",
          "type": "uint256"
        }
      ],
      "name": "updatePrice",
      "outputs": [],
      "stateMutability": "nonpayable",
      "type": "function"
    }
  ],
  "bytecode": "0x608060405234801561001057600080fd5b506040516104de3803806104de83398101604081905261002f916100bb565b338061005557604051631e4fbdf760e01b81526000600482015260240160405180910390fd5b61005e8161006b565b50600155426002556100d4565b600080546001600160a01b038381166001600160a01b0319831681178455604051919092169283917f8be0079c531659141344cd1fd0a4f28419497f9722a3daafe3b4186f6b6457e09190a35050565b6000602082840312156100cd57600080fd5b5051919050565b6103fb806100e36000396000f3fe608060405234801561001057600080fd5b50600436106100935760003560e01c80638d6cc56d116100665780638d6cc56d146100f65780638da5cb5b14610109578063c046371114610124578063e7e7ba461461012d578063f2fde38b1461014057600080fd5b80631c910b2114610098578063330227bf146100be57806337f05a3b146100e3578063715018a6146100ec575b600080fd5b6100ab6100a636600461031a565b610153565b6040519081526020015b60405180910390f35b6100c6610175565b6040805193845260208401929092521515908201526060016100b5565b6100ab60015481565b6100f4610192565b005b6100f461010436600461031a565b6101a6565b6000546040516001600160a01b0390911681526020016100b5565b6100ab60025481565b6100ab61013b36600461031a565b61024e565b6100f461014e366004610333565b61025f565b60006064600154836101659190610379565b61016f9190610390565b92915050565b6001546002546000610e1061018a83426103b2565b119050909192565b61019a61029d565b6101a460006102ca565b565b6101ae61029d565b600081116101fc5760405162461bcd60e51b81526020600482015260166024820152755072696365206d75737420626520706f73697469766560501b60448201526064015b60405180910390fd5b6001805490829055426002819055604080518381526020810185905280820192909252517f15819dd2fd9f6418b142e798d08a18d0bf06ea368f4480b7b0d3f75bd966bc489181900360600190a15050565b600154600090610165836064610379565b61026761029d565b6001600160a01b03811661029157604051631e4fbdf760e01b8152600060048201526024016101f3565b61029a816102ca565b50565b6000546001600160a01b031633146101a45760405163118cdaa760e01b81523360048201526024016101f3565b600080546001600160a01b038381166001600160a01b0319831681178455604051919092169283917f8be0079c531659141344cd1fd0a4f28419497f9722a3daafe3b4186f6b6457e09190a35050565b60006020828403121561032c57600080fd5b5035919050565b60006020828403121561034557600080fd5b81356001600160a01b038116811461035c57600080fd5b9392505050565b634e487b7160e01b600052601160045260246000fd5b808202811582820484141761016f5761016f610363565b6000826103ad57634e487b7160e01b600052601260045260246000fd5b500490565b8181038181111561016f5761016f61036356fea26469706673582212201f836ea95002c056628053fdc0592cf4a7f74c6775c77cbfd95b93e46d44183c64736f6c63430008180033",
  "linkReferences": {},
  "deployedLinkReferences": {}
}