{
  "_format": "hh-sol-artifact-1",
  "contractName": "FanStockFactory",
  "sourceName": "contracts/FanStockFactory.sol",
  "abi": [
    {
      "inputs": [],
      "stateMutability": "nonpayable",
      "type": "constructor"
    },
    {
      "inputs": [
        {
          "internalType": "address",
          "name": "owner",
          "type": "address"
        }
      ],
      "name": "OwnableInvalidOwner",
      "type": "error"
    },
    {
      "inputs": [
        {
          "internalType": "address",
          "name": "account",
          "type": "address"
        }
      ],
      "name": "OwnableUnauthorizedAccount",
      "type": "error"
    },
    {
      "inputs": [],
      "name": "ReentrancyGuardReentrantCall",
      "type": "error"
    },
    {
      "anonymous": false,
      "inputs": [
        {
          "indexed": true,
          "internalType": "address",
          "name": "tokenAddress",
          "type": "address"
        },
        {
          "indexed": false,
          "internalType": "bool",
          "name": "active",
          "type": "bool"
        }
      ],
      "name": "ClubStatusUpdated",
      "type": "event"
    },
    {
      "anonymous": false,
      "inputs": [
        {
          "indexed": true,
          "internalType": "address",
          "name": "tokenAddress",
          "type": "address"
        },
        {
          "indexed": false,
          "internalType": "string",
          "name": "clubName",
          "type": "string"
        },
        {
          "indexed": true,
          "internalType": "address",
          "name": "creator",
          "type": "address"
        },
        {
          "indexed": false,
          "internalType": "string",
          "name": "tokenName",
          "type": "string"
        },
        {
          "indexed": false,
          "internalType": "string",
          "name": "tokenSymbol",
          "type": "string"
        },
        {
          "indexed": false,
          "internalType": "uint256",
          "name": "tokenPrice",
          "type": "uint256"
        },
        {
          "indexed": false,
          "internalType": "uint256",
          "name": "fanVotingPower",
          "type": "uint256"
        },
        {
          "indexed": false,
          "internalType": "uint256",
          "name": "fanRevenueShare",
          "type": "uint256"
        }
      ],
      "name": "ClubTokenCreated",
      "type": "event"
    },
    {
      "anonymous": false,
      "inputs": [
        {
          "indexed": false,
          "internalType": "uint256",
          "name": "oldFee",
          "type": "uint256"
        },
        {
          "indexed": false,
          "internalType": "uint256",
          "name": "newFee",
          "type": "uint256"
        }
      ],
      "name": "FactoryFeeUpdated",
      "type": "event"
    },
    {
      "anonymous": false,
      "inputs": [
        {
          "indexed": true,
          "internalType": "address",
          "name": "previousOwner",
          "type": "address"
        },
        {
          "indexed": true,
          "internalType": "address",
          "name": "newOwner",
          "type": "address"
        }
      ],
      "name": "OwnershipTransferred",
      "type": "event"
    },
    {
      "inputs": [
        {
          "internalType": "uint256",
          "name": "",
          "type": "uint256"
        }
      ],
      "name": "allClubTokens",
      "outputs": [
        {
          "internalType": "address",
          "name": "",
          "type": "address"
        }
      ],
      "stateMutability": "view",
      "type": "function"
    },
    {
      "inputs": [
        {
          "internalType": "address",
          "name": "",
          "type": "address"
        }
      ],
      "name": "clubTokens",
      "outputs": [
        {
          "internalType": "address",
          "name": "tokenAddress",
          "type": "address"
        },
        {
          "internalType": "string",
          "name": "clubName",
          "type": "string"
        },
        {
          "internalType": "address",
          "name": "creator",
          "type": "address"
        },
        {
          "internalType": "uint256",
          "name": "createdAt",
          "type": "uint256"
        },
        {
          "internalType": "bool",
          "name": "active",
          "type": "bool"
        }
      ],
      "stateMutability": "view",
      "type": "function"
    },
    {
      "inputs": [
        {
          "internalType": "string",
          "name": "clubName",
          "type": "string"
        },
        {
          "internalType": "string",
          "name": "tokenName",
          "type": "string"
        },
        {
          "internalType": "string",
          "name": "tokenSymbol",
          "type": "string"
        },
        {
          "internalType": "address",
          "name": "clubWallet",
          "type": "address"
        },
        {
          "internalType": "uint256",
          "name": "customPrice",
          "type": "uint256"
        },
        {
          "internalType": "uint256",
          "name": "fanVotingPower",
          "type": "uint256"
        },
        {
          "internalType": "uint256",
          "name": "fanRevenueShare",
          "type": "uint256"
        }
      ],
      "name": "createClubToken",
      "outputs": [
        {
          "internalType": "address",
          "name": "",
          "type": "address"
        }
      ],
      "stateMutability": "payable",
      "type": "function"
    },
    {
      "inputs": [
        {
          "internalType": "address",
          "name": "",
          "type": "address"
        },
        {
          "internalType": "uint256",
          "name": "",
          "type": "uint256"
        }
      ],
      "name": "creatorClubs",
      "outputs": [
        {
          "internalType": "address",
          "name": "",
          "type": "address"
        }
      ],
      "stateMutability": "view",
      "type": "function"
    },
    {
      "inputs": [],
      "name": "factoryFee",
      "outputs": [
        {
          "internalType": "uint256",
          "name": "",
          "type": "uint256"
        }
      ],
      "stateMutability": "view",
      "type": "function"
    },
    {
      "inputs": [],
      "name": "getActiveClubTokens",
      "outputs": [
        {
          "internalType": "address[]",
          "name": "",
          "type": "address[]"
        }
      ],
      "stateMutability": "view",
      "type": "function"
    },
    {
      "inputs": [],
      "name": "getAllClubTokens",
      "outputs": [
        {
          "internalType": "address[]",
          "name": "",
          "type": "address[]"
        }
      ],
      "stateMutability": "view",
      "type": "function"
    },
    {
      "inputs": [
        {
          "internalType": "address",
          "name": "_tokenAddress",
          "type": "address"
        }
      ],
      "name": "getClubInfo",
      "outputs": [
        {
          "components": [
            {
              "internalType": "address",
              "name": "tokenAddress",
              "type": "address"
            },
            {
              "internalType": "string",
              "name": "clubName",
              "type": "string"
            },
            {
              "internalType": "address",
              "name": "creator",
              "type": "address"
            },
            {
              "internalType": "uint256",
              "name": "createdAt",
              "type": "uint256"
            },
            {
              "internalType": "bool",
              "name": "active",
              "type": "bool"
            }
          ],
          "internalType": "struct FanStockFactory.ClubInfo",
          "name": "",
          "type": "tuple"
        }
      ],
      "stateMutability": "view",
      "type": "function"
    },
    {
      "inputs": [],
      "name": "getContractBalance",
      "outputs": [
        {
          "internalType": "uint256",
          "name": "",
          "type": "uint256"
        }
      ],
      "stateMutability": "view",
      "type": "function"
    },
    {
      "inputs": [
        {
          "internalType": "address",
          "name": "_creator",
          "type": "address"
        }
      ],
      "name": "getCreatorClubs",
      "outputs": [
        {
          "internalType": "address[]",
          "name": "",
          "type": "address[]"
        }
      ],
      "stateMutability": "view",
      "type": "function"
    },
    {
      "inputs": [
        {
          "internalType": "address",
          "name": "_tokenAddress",
          "type": "address"
        }
      ],
      "name": "isValidClubToken",
      "outputs": [
        {
          "internalType": "bool",
          "name": "",
          "type": "bool"
        }
      ],
      "stateMutability": "view",
      "type": "function"
    },
    {
      "inputs": [],
      "name": "owner",
      "outputs": [
        {
          "internalType": "address",
          "name": "",
          "type": "address"
        }
      ],
      "stateMutability": "view",
      "type": "function"
    },
    {
      "inputs": [],
      "name": "renounceOwnership",
      "outputs": [],
      "stateMutability": "nonpayable",
      "type": "function"
    },
    {
      "inputs": [],
      "name": "totalClubsCreated",
      "outputs": [
        {
          "internalType": "uint256",
          "name": "",
          "type": "uint256"
        }
      ],
      "stateMutability": "view",
      "type": "function"
    },
    {
      "inputs": [
        {
          "internalType": "address",
          "name": "newOwner",
          "type": "address"
        }
      ],
      "name": "transferOwnership",
      "outputs": [],
      "stateMutability": "nonpayable",
      "type": "function"
    },
    {
      "inputs": [
        {
          "internalType": "address",
          "name": "_tokenAddress",
          "type": "address"
        },
        {
          "internalType": "bool",
          "name": "_active",
          "type": "bool"
        }
      ],
      "name": "updateClubStatus",
      "outputs": [],
      "stateMutability": "nonpayable",
      "type": "function"
    },
    {
      "inputs": [
        {
          "internalType": "uint256",
          "name": "_newFee",
          "type": "uint256"
        }
      ],
      "name": "updateFactoryFee",
      "outputs": [],
      "stateMutability": "nonpayable",
      "type": "function"
    },
    {
      "inputs": [],
      "name": "withdrawFees",
      "outputs": [],
      "stateMutability": "nonpayable",
      "type": "function"
    }
  ],
  "bytecode": "0x608060405266038d7ea4c6800060025534801561001b57600080fd5b50338061004257604051631e4fbdf760e01b81526000600482015260240160405180910390fd5b61004b81610055565b50600180556100a5565b600080546001600160a01b038381166001600160a01b0319831681178455604051919092169283917f8be0079c531659141344cd1fd0a4f28419497f9722a3daafe3b4186f6b6457e09190a35050565b613b33806100b46000396000f3fe6080604052600436106200011f5760003560e01c80638718091f11620000a1578063b0418ebc116200006c578063b0418ebc1462000302578063c64dd41c146200031a578063db0f3ef9146200033f578063f04cf4e81462000364578063f2fde38b146200039857600080fd5b80638718091f14620002625780638da5cb5b14620002985780639b91851d14620002b8578063adff1c2a14620002dd57600080fd5b80636286116a11620000ee5780636286116a14620001bf5780636f0fdc5614620001e65780636f7f9a36146200021e5780636f9fb98a1462000235578063715018a6146200024a57600080fd5b80630c63cb671462000124578063196de3751462000166578063476343ee146200018d5780634b52522c14620001a7575b600080fd5b3480156200013157600080fd5b5062000149620001433660046200100f565b620003bd565b6040516001600160a01b0390911681526020015b60405180910390f35b3480156200017357600080fd5b506200017e620003e8565b6040516200015d919062001029565b3480156200019a57600080fd5b50620001a562000586565b005b348015620001b457600080fd5b506200017e6200062c565b348015620001cc57600080fd5b50620001d760025481565b6040519081526020016200015d565b348015620001f357600080fd5b506200020b6200020536600462001095565b62000690565b6040516200015d95949392919062001102565b620001496200022f366004620011ef565b62000768565b3480156200024257600080fd5b5047620001d7565b3480156200025757600080fd5b50620001a562000bb5565b3480156200026f57600080fd5b50620002876200028136600462001095565b62000bcb565b60405190151581526020016200015d565b348015620002a557600080fd5b506000546001600160a01b031662000149565b348015620002c557600080fd5b506200017e620002d736600462001095565b62000c19565b348015620002ea57600080fd5b50620001a5620002fc3660046200100f565b62000c91565b3480156200030f57600080fd5b50620001d760035481565b3480156200032757600080fd5b506200014962000339366004620012af565b62000ce0565b3480156200034c57600080fd5b50620001a56200035e366004620012dc565b62000d19565b3480156200037157600080fd5b50620003896200038336600462001095565b62000dee565b6040516200015d91906200131c565b348015620003a557600080fd5b50620001a5620003b736600462001095565b62000f13565b60068181548110620003ce57600080fd5b6000918252602090912001546001600160a01b0316905081565b60606000805b6006548110156200045d5760046000600683815481106200041357620004136200137c565b60009182526020808320909101546001600160a01b0316835282019290925260400190206004015460ff16156200045457816200045081620013a8565b9250505b600101620003ee565b5060008167ffffffffffffffff8111156200047c576200047c62001144565b604051908082528060200260200182016040528015620004a6578160200160208202803683370190505b5090506000805b6006548110156200057d576004600060068381548110620004d257620004d26200137c565b60009182526020808320909101546001600160a01b0316835282019290925260400190206004015460ff16156200057457600681815481106200051957620005196200137c565b9060005260206000200160009054906101000a90046001600160a01b03168383815181106200054c576200054c6200137c565b6001600160a01b0390921660209283029190910190910152816200057081620013a8565b9250505b600101620004ad565b50909392505050565b6200059062000f57565b6200059a62000f86565b4780620005e45760405162461bcd60e51b81526020600482015260136024820152724e6f206665657320746f20776974686472617760681b60448201526064015b60405180910390fd5b600080546040516001600160a01b039091169183156108fc02918491818181858888f193505050501580156200061e573d6000803e3d6000fd5b50506200062a60018055565b565b606060068054806020026020016040519081016040528092919081815260200182805480156200068657602002820191906000526020600020905b81546001600160a01b0316815260019091019060200180831162000667575b5050505050905090565b600460205260009081526040902080546001820180546001600160a01b039092169291620006be90620013c4565b80601f0160208091040260200160405190810160405280929190818152602001828054620006ec90620013c4565b80156200073d5780601f1062000711576101008083540402835291602001916200073d565b820191906000526020600020905b8154815290600101906020018083116200071f57829003601f168201915b505050506002830154600384015460049094015492936001600160a01b039091169290915060ff1685565b60006200077462000f86565b600254341015620007c85760405162461bcd60e51b815260206004820152601860248201527f496e73756666696369656e7420666163746f72792066656500000000000000006044820152606401620005db565b60008851116200081b5760405162461bcd60e51b815260206004820152601960248201527f436c7562206e616d652063616e6e6f7420626520656d707479000000000000006044820152606401620005db565b60008751116200086e5760405162461bcd60e51b815260206004820152601a60248201527f546f6b656e206e616d652063616e6e6f7420626520656d7074790000000000006044820152606401620005db565b6000865111620008c15760405162461bcd60e51b815260206004820152601c60248201527f546f6b656e2073796d626f6c2063616e6e6f7420626520656d707479000000006044820152606401620005db565b6001600160a01b038516620009245760405162461bcd60e51b815260206004820152602260248201527f436c75622077616c6c65742063616e6e6f74206265207a65726f206164647265604482015261737360f01b6064820152608401620005db565b60008411620009765760405162461bcd60e51b815260206004820152601c60248201527f5072696365206d7573742062652067726561746572207468616e2030000000006044820152606401620005db565b600087878a878988886040516200098d9062001001565b6200099f979695949392919062001400565b604051809103906000f080158015620009bc573d6000803e3d6000fd5b506040805160a0810182526001600160a01b0383811680835260208084018f815233858701524260608601526001608086018190526000938452600490925294909120835181546001600160a01b031916931692909217825592519394508493919290919082019062000a309082620014c4565b506040828101516002830180546001600160a01b03199081166001600160a01b039384161790915560608501516003808601919091556080909501516004909401805460ff1916941515949094179093553360009081526005602090815292812080546001818101835591835293822090930180548516928716928317905560068054938401815581527ff652222313e28459528d920b65115c16c04f3efc82aaedc97be59f3f377c0d3f9092018054909316179091558154919062000af683620013a8565b919050555060025434111562000b465760025433906108fc9062000b1b903462001591565b6040518115909202916000818181858888f1935050505015801562000b44573d6000803e3d6000fd5b505b336001600160a01b0316816001600160a01b03167feee79ae76668c69825c8082b268b682c9a91a3cac7874876d58f584df66e93228c8c8c8b8b8b60405162000b9596959493929190620015a7565b60405180910390a391505062000baa60018055565b979650505050505050565b62000bbf62000f57565b6200062a600062000fb1565b6001600160a01b038181166000908152600460205260408120549091161580159062000c1357506001600160a01b0382166000908152600460208190526040909120015460ff165b92915050565b6001600160a01b03811660009081526005602090815260409182902080548351818402810184019094528084526060939283018282801562000c8557602002820191906000526020600020905b81546001600160a01b0316815260019091019060200180831162000c66575b50505050509050919050565b62000c9b62000f57565b600280549082905560408051828152602081018490527f7b36d62b02e909a784deee8cba0ade7d2412b17ca7510d2711f48e9cf02adcc9910160405180910390a15050565b6005602052816000526040600020818154811062000cfd57600080fd5b6000918252602090912001546001600160a01b03169150829050565b62000d2362000f57565b6001600160a01b038281166000908152600460205260409020541662000d8c5760405162461bcd60e51b815260206004820152601960248201527f436c756220746f6b656e20646f6573206e6f74206578697374000000000000006044820152606401620005db565b6001600160a01b038216600081815260046020818152604092839020909101805460ff191685151590811790915591519182527fc484c287a928688871a675a49ff34fe734275e1768930f9627db43bdba4796e9910160405180910390a25050565b6040805160a08082018352600080835260606020808501829052848601839052908401829052608084018290526001600160a01b0386811683526004825291859020855193840190955284549091168252600184018054939492939184019162000e5890620013c4565b80601f016020809104026020016040519081016040528092919081815260200182805462000e8690620013c4565b801562000ed75780601f1062000eab5761010080835404028352916020019162000ed7565b820191906000526020600020905b81548152906001019060200180831162000eb957829003601f168201915b505050918352505060028201546001600160a01b031660208201526003820154604082015260049091015460ff16151560609091015292915050565b62000f1d62000f57565b6001600160a01b03811662000f4957604051631e4fbdf760e01b815260006004820152602401620005db565b62000f548162000fb1565b50565b6000546001600160a01b031633146200062a5760405163118cdaa760e01b8152336004820152602401620005db565b60026001540362000faa57604051633ee5aeb560e01b815260040160405180910390fd5b6002600155565b600080546001600160a01b038381166001600160a01b0319831681178455604051919092169283917f8be0079c531659141344cd1fd0a4f28419497f9722a3daafe3b4186f6b6457e09190a35050565b6124f8806200160683390190565b6000602082840312156200102257600080fd5b5035919050565b6020808252825182820181905260009190848201906040850190845b818110156200106c5783516001600160a01b03168352928401929184019160010162001045565b50909695505050505050565b80356001600160a01b03811681146200109057600080fd5b919050565b600060208284031215620010a857600080fd5b620010b38262001078565b9392505050565b6000815180845260005b81811015620010e257602081850181015186830182015201620010c4565b506000602082860101526020601f19601f83011685010191505092915050565b600060018060a01b03808816835260a060208401526200112660a0840188620010ba565b95166040830152506060810192909252151560809091015292915050565b634e487b7160e01b600052604160045260246000fd5b600082601f8301126200116c57600080fd5b813567ffffffffffffffff808211156200118a576200118a62001144565b604051601f8301601f19908116603f01168101908282118183101715620011b557620011b562001144565b81604052838152866020858801011115620011cf57600080fd5b836020870160208301376000602085830101528094505050505092915050565b600080600080600080600060e0888a0312156200120b57600080fd5b873567ffffffffffffffff808211156200122457600080fd5b620012328b838c016200115a565b985060208a01359150808211156200124957600080fd5b620012578b838c016200115a565b975060408a01359150808211156200126e57600080fd5b506200127d8a828b016200115a565b9550506200128e6060890162001078565b9699959850939660808101359560a0820135955060c0909101359350915050565b60008060408385031215620012c357600080fd5b620012ce8362001078565b946020939093013593505050565b60008060408385031215620012f057600080fd5b620012fb8362001078565b9150602083013580151581146200131157600080fd5b809150509250929050565b60208152600060018060a01b03808451166020840152602084015160a060408501526200134d60c0850182620010ba565b9050816040860151166060850152606085015160808501526080850151151560a0850152809250505092915050565b634e487b7160e01b600052603260045260246000fd5b634e487b7160e01b600052601160045260246000fd5b600060018201620013bd57620013bd62001392565b5060010190565b600181811c90821680620013d957607f821691505b602082108103620013fa57634e487b7160e01b600052602260045260246000fd5b50919050565b60e0815260006200141560e083018a620010ba565b828103602084015262001429818a620010ba565b905082810360408401526200143f8189620010ba565b606084019790975250506001600160a01b0393909316608084015260a083019190915260c0909101529392505050565b601f821115620014bf576000816000526020600020601f850160051c810160208610156200149a5750805b601f850160051c820191505b81811015620014bb57828155600101620014a6565b5050505b505050565b815167ffffffffffffffff811115620014e157620014e162001144565b620014f981620014f28454620013c4565b846200146f565b602080601f831160018114620015315760008415620015185750858301515b600019600386901b1c1916600185901b178555620014bb565b600085815260208120601f198616915b82811015620015625788860151825594840194600190910190840162001541565b5085821015620015815787850151600019600388901b60f8161c191681555b5050505050600190811b01905550565b8181038181111562000c135762000c1362001392565b60c081526000620015bc60c0830189620010ba565b8281036020840152620015d08189620010ba565b90508281036040840152620015e68188620010ba565b60608401969096525050608081019290925260a090910152939250505056fe60806040523480156200001157600080fd5b50604051620024f8380380620024f883398101604081905262000034916200038c565b3387876003620000458382620004ef565b506004620000548282620004ef565b5050506001600160a01b0381166200008757604051631e4fbdf760e01b8152600060048201526024015b60405180910390fd5b620000928162000272565b506001600655600a8210801590620000ab575060318211155b620001095760405162461bcd60e51b815260206004820152602760248201527f46616e20766f74696e6720706f776572206d757374206265206265747765656e6044820152662031302d34392560c81b60648201526084016200007e565b600f8111156200016c5760405162461bcd60e51b815260206004820152602760248201527f46616e20726576656e7565207368617265206d757374206265206265747765656044820152666e20302d31352560c81b60648201526084016200007e565b6001600160a01b038316620001cf5760405162461bcd60e51b815260206004820152602260248201527f436c75622077616c6c65742063616e6e6f74206265207a65726f206164647265604482015261737360f01b60648201526084016200007e565b600084116200022c5760405162461bcd60e51b815260206004820152602260248201527f546f6b656e207072696365206d7573742062652067726561746572207468616e604482015261020360f41b60648201526084016200007e565b60076200023a8682620004ef565b50600893909355600980546001600160a01b0319166001600160a01b039390931692909217909155600a55600b5550620005bb915050565b600580546001600160a01b038381166001600160a01b0319831681179093556040519116919082907f8be0079c531659141344cd1fd0a4f28419497f9722a3daafe3b4186f6b6457e090600090a35050565b634e487b7160e01b600052604160045260246000fd5b600082601f830112620002ec57600080fd5b81516001600160401b0380821115620003095762000309620002c4565b604051601f8301601f19908116603f01168101908282118183101715620003345762000334620002c4565b81604052838152602092508660208588010111156200035257600080fd5b600091505b8382101562000376578582018301518183018401529082019062000357565b6000602085830101528094505050505092915050565b600080600080600080600060e0888a031215620003a857600080fd5b87516001600160401b0380821115620003c057600080fd5b620003ce8b838c01620002da565b985060208a0151915080821115620003e557600080fd5b620003f38b838c01620002da565b975060408a01519150808211156200040a57600080fd5b50620004198a828b01620002da565b60608a015160808b0151919750955090506001600160a01b03811681146200044057600080fd5b8093505060a0880151915060c0880151905092959891949750929550565b600181811c908216806200047357607f821691505b6020821081036200049457634e487b7160e01b600052602260045260246000fd5b50919050565b601f821115620004ea576000816000526020600020601f850160051c81016020861015620004c55750805b601f850160051c820191505b81811015620004e657828155600101620004d1565b5050505b505050565b81516001600160401b038111156200050b576200050b620002c4565b62000523816200051c84546200045e565b846200049a565b602080601f8311600181146200055b5760008415620005425750858301515b600019600386901b1c1916600185901b178555620004e6565b600085815260208120601f198616915b828110156200058c578886015182559484019460019091019084016200056b565b5085821015620005ab5787850151600019600388901b60f8161c191681555b5050505050600190811b01905550565b611f2d80620005cb6000396000f3fe60806040526004361061021a5760003560e01c806370a0823111610123578063c42f1f85116100ab578063dd62ed3e1161006f578063dd62ed3e146105fa578063eacb482b14610640578063f2fde38b1461066d578063f363d0631461068d578063fdf46aba146106a357600080fd5b8063c42f1f8514610567578063c7f758a81461058f578063c9d27afe146105af578063ce27489d146105cf578063da35c664146105e457600080fd5b80637ff9b596116100f25780637ff9b596146104e85780638da5cb5b146104fe57806395d89b411461051c578063a9059cbb14610531578063bf2d9e0b1461055157600080fd5b806370a082311461047f57806370cdc930146104b5578063715018a6146104cb57806371d1ae75146104e057600080fd5b80633610724e116101a657806358db267f1161017557806358db267f146103e75780635b1e3b88146103fc578063610ab0751461041257806363129f751461044a5780636f65108c1461045f57600080fd5b80633610724e14610355578063438596321461036857806349c2a1a6146103b2578063564f4f76146103d257600080fd5b806318160ddd116101ed57806318160ddd146102d057806323b872dd146102ef57806329868b331461030f5780632d07953a14610324578063313ce5671461033957600080fd5b8063013cf08b1461021f57806306fdde031461025c578063095ea7b31461027e5780630d61b519146102ae575b600080fd5b34801561022b57600080fd5b5061023f61023a3660046119b1565b6106b8565b604051610253989796959493929190611a10565b60405180910390f35b34801561026857600080fd5b50610271610794565b6040516102539190611a68565b34801561028a57600080fd5b5061029e610299366004611a9e565b610826565b6040519015158152602001610253565b3480156102ba57600080fd5b506102ce6102c93660046119b1565b610840565b005b3480156102dc57600080fd5b506002545b604051908152602001610253565b3480156102fb57600080fd5b5061029e61030a366004611ac8565b610a3f565b34801561031b57600080fd5b506102e1600f81565b34801561033057600080fd5b506102ce610a63565b34801561034557600080fd5b5060405160128152602001610253565b6102ce6103633660046119b1565b610bcb565b34801561037457600080fd5b5061029e610383366004611b04565b6000828152600f602090815260408083206001600160a01b038516845260060190915290205460ff1692915050565b3480156103be57600080fd5b506102e16103cd366004611b46565b610d0f565b3480156103de57600080fd5b506102ce610e24565b3480156103f357600080fd5b506102e1603181565b34801561040857600080fd5b506102e1600b5481565b34801561041e57600080fd5b50600954610432906001600160a01b031681565b6040516001600160a01b039091168152602001610253565b34801561045657600080fd5b506102e1600081565b34801561046b57600080fd5b506102ce61047a3660046119b1565b610efb565b34801561048b57600080fd5b506102e161049a366004611bf7565b6001600160a01b031660009081526020819052604090205490565b3480156104c157600080fd5b506102e1600d5481565b3480156104d757600080fd5b506102ce611037565b6102ce611049565b3480156104f457600080fd5b506102e160085481565b34801561050a57600080fd5b506005546001600160a01b0316610432565b34801561052857600080fd5b506102716110f7565b34801561053d57600080fd5b5061029e61054c366004611a9e565b611106565b34801561055d57600080fd5b506102e1600c5481565b34801561057357600080fd5b5061057c611114565b6040516102539796959493929190611c12565b34801561059b57600080fd5b5061023f6105aa3660046119b1565b6111ef565b3480156105bb57600080fd5b506102ce6105ca366004611c5f565b6112f4565b3480156105db57600080fd5b50610271611524565b3480156105f057600080fd5b506102e1600e5481565b34801561060657600080fd5b506102e1610615366004611c94565b6001600160a01b03918216600090815260016020908152604080832093909416825291909152205490565b34801561064c57600080fd5b506102e161065b366004611bf7565b60106020526000908152604090205481565b34801561067957600080fd5b506102ce610688366004611bf7565b6115b2565b34801561069957600080fd5b506102e1600a5481565b3480156106af57600080fd5b506102e1600a81565b600f60205260009081526040902080546001820180549192916106da90611cbe565b80601f016020809104026020016040519081016040528092919081815260200182805461070690611cbe565b80156107535780601f1061072857610100808354040283529160200191610753565b820191906000526020600020905b81548152906001019060200180831161073657829003601f168201915b505050506002830154600384015460048501546005909501549394919390925060ff808216916101008104909116906201000090046001600160a01b031688565b6060600380546107a390611cbe565b80601f01602080910402602001604051908101604052809291908181526020018280546107cf90611cbe565b801561081c5780601f106107f15761010080835404028352916020019161081c565b820191906000526020600020905b8154815290600101906020018083116107ff57829003601f168201915b5050505050905090565b6000336108348185856115ed565b60019150505b92915050565b6000818152600f6020526040902060048101544210156108a75760405162461bcd60e51b815260206004820152601760248201527f566f74696e6720706572696f64206e6f7420656e64656400000000000000000060448201526064015b60405180910390fd5b600581015460ff16156108cc5760405162461bcd60e51b815260040161089e90611cf8565b6005810154610100900460ff161561091c5760405162461bcd60e51b8152602060048201526013602482015272141c9bdc1bdcd85b081dd85cc81d995d1bd959606a1b604482015260640161089e565b6000816003015482600201546109329190611d45565b905060006064600a5461094460025490565b61094e9190611d58565b6109589190611d6f565b9050610965600282611d6f565b8210156109b45760405162461bcd60e51b815260206004820152601a60248201527f496e73756666696369656e742070617274696369706174696f6e000000000000604482015260640161089e565b82600301548360020154116109ff5760405162461bcd60e51b8152602060048201526011602482015270141c9bdc1bdcd85b081c995a9958dd1959607a1b604482015260640161089e565b60058301805460ff1916600117905560405184907f712ae1383f79ac853f8d882153778e0260ef8f03b504e2866e0593e04d2b291f90600090a250505050565b600033610a4d8582856115ff565b610a5885858561167e565b506001949350505050565b610a6b6116dd565b610a7361170a565b600d54600c5411610ac65760405162461bcd60e51b815260206004820152601c60248201527f4e6f206e657720726576656e756520746f206469737472696275746500000000604482015260640161089e565b6000600d54600c54610ad89190611d91565b905060006064600b5483610aec9190611d58565b610af69190611d6f565b90506000610b048284611d91565b9050600082118015610b1e57506000610b1c60025490565b115b15610b3b576000610b2e60025490565b610b389084611d6f565b50505b8015610b7d576009546040516001600160a01b039091169082156108fc029083906000818181858888f19350505050158015610b7b573d6000803e3d6000fd5b505b600c54600d5560408051838152602081018390527ff2838e4b541f90d41a1076a560d75e948f7d1008e72118a655568626a30b451f910160405180910390a1505050610bc96001600655565b565b610bd361170a565b60008111610c235760405162461bcd60e51b815260206004820152601d60248201527f416d6f756e74206d7573742062652067726561746572207468616e2030000000604482015260640161089e565b600060085482610c339190611d58565b905080341015610c7c5760405162461bcd60e51b8152602060048201526014602482015273125b9cdd59999a58da595b9d081c185e5b595b9d60621b604482015260640161089e565b610c863383611734565b80341115610cc657336108fc610c9c8334611d91565b6040518115909202916000818181858888f19350505050158015610cc4573d6000803e3d6000fd5b505b604080518381526020810183905233917f8fafebcaf9d154343dad25669bfa277f4fbacd7ac6b0c4fed522580e040a0f33910160405180910390a250610d0c6001600655565b50565b336000908152602081905260408120548110610d795760405162461bcd60e51b8152602060048201526024808201527f4d75737420686f6c6420746f6b656e7320746f206372656174652070726f706f60448201526373616c7360e01b606482015260840161089e565b600e805460009182610d8a83611da4565b909155506000818152600f6020526040902081815590915060018101610db08582611e0d565b50610dbe4262093a80611d45565b600482015560058101805462010000600160b01b031916336201000081029190911790915560405183917fc8c078bfee58e5822588f08b4509ed1eb5058e03f666cca84dd2d44bf5c288a891610e15918891611ecd565b60405180910390a25092915050565b610e2c61170a565b3360009081526010602052604090205480610e7f5760405162461bcd60e51b81526020600482015260136024820152724e6f20726576656e756520746f20636c61696d60681b604482015260640161089e565b336000818152601060205260408082208290555183156108fc0291849190818181858888f19350505050158015610eba573d6000803e3d6000fd5b5060405181815233907fc15f451120b13b6b40c6ad6203614ab3088308bef9150c0d6f46ea79bf4642249060200160405180910390a250610bc96001600655565b6009546001600160a01b0316331480610f1e57506005546001600160a01b031633145b610f6a5760405162461bcd60e51b815260206004820152601b60248201527f4f6e6c7920636c7562206f72206f776e65722063616e207665746f0000000000604482015260640161089e565b6000818152600f60205260409020600581015460ff1615610f9d5760405162461bcd60e51b815260040161089e90611cf8565b6005810154610100900460ff1615610ff75760405162461bcd60e51b815260206004820152601760248201527f50726f706f73616c20616c7265616479207665746f6564000000000000000000604482015260640161089e565b60058101805461ff00191661010017905560405182907fde0cea2a3a0097cc3d981d40c375407760e85bc9c5e69aea449ac3885f8615c690600090a25050565b61103f6116dd565b610bc9600061176e565b6110516116dd565b600034116110a15760405162461bcd60e51b815260206004820152601e60248201527f526576656e7565206d7573742062652067726561746572207468616e20300000604482015260640161089e565b34600c60008282546110b39190611d45565b9091555050600c546040805134815260208101929092527f5d22f5d15d95ed39d12130528f910a501ad34deb0428d9227c9d316d9bcb99e9910160405180910390a1565b6060600480546107a390611cbe565b60003361083481858561167e565b60606000806000806000806007600854600960009054906101000a90046001600160a01b0316600a54600b5461114960025490565b600c5486805461115890611cbe565b80601f016020809104026020016040519081016040528092919081815260200182805461118490611cbe565b80156111d15780601f106111a6576101008083540402835291602001916111d1565b820191906000526020600020905b8154815290600101906020018083116111b457829003601f168201915b50505050509650965096509650965096509650965090919293949596565b6000818152600f6020526040812080546002820154600383015460048401546005850154600186018054606097899788978897889788978897959694959460ff80831692610100810490911691620100009091046001600160a01b031690879061125890611cbe565b80601f016020809104026020016040519081016040528092919081815260200182805461128490611cbe565b80156112d15780601f106112a6576101008083540402835291602001916112d1565b820191906000526020600020905b8154815290600101906020018083116112b457829003601f168201915b505050505096509850985098509850985098509850985050919395975091939597565b33600090815260208190526040812054116113515760405162461bcd60e51b815260206004820152601860248201527f4d75737420686f6c6420746f6b656e7320746f20766f74650000000000000000604482015260640161089e565b6000828152600f60205260409020600481015442106113b25760405162461bcd60e51b815260206004820152601760248201527f566f74696e6720706572696f642068617320656e646564000000000000000000604482015260640161089e565b33600090815260068201602052604090205460ff16156114045760405162461bcd60e51b815260206004820152600d60248201526c105b1c9958591e481d9bdd1959609a1b604482015260640161089e565b600581015460ff16156114295760405162461bcd60e51b815260040161089e90611cf8565b6005810154610100900460ff16156114795760405162461bcd60e51b8152602060048201526013602482015272141c9bdc1bdcd85b081dd85cc81d995d1bd959606a1b604482015260640161089e565b336000908152602081815260408083205460068501909252909120805460ff1916600117905582156114c457808260020160008282546114b99190611d45565b909155506114de9050565b808260030160008282546114d89190611d45565b90915550505b60408051841515815260208101839052339186917fcbdf6214089cba887ecbf35a0b6a734589959c9763342c756bb2a80ca2bc9f6e91015b60405180910390a350505050565b6007805461153190611cbe565b80601f016020809104026020016040519081016040528092919081815260200182805461155d90611cbe565b80156115aa5780601f1061157f576101008083540402835291602001916115aa565b820191906000526020600020905b81548152906001019060200180831161158d57829003601f168201915b505050505081565b6115ba6116dd565b6001600160a01b0381166115e457604051631e4fbdf760e01b81526000600482015260240161089e565b610d0c8161176e565b6115fa83838360016117c0565b505050565b6001600160a01b03838116600090815260016020908152604080832093861683529290522054600019811015611678578181101561166957604051637dc7a0d960e11b81526001600160a01b0384166004820152602481018290526044810183905260640161089e565b611678848484840360006117c0565b50505050565b6001600160a01b0383166116a857604051634b637e8f60e11b81526000600482015260240161089e565b6001600160a01b0382166116d25760405163ec442f0560e01b81526000600482015260240161089e565b6115fa838383611887565b6005546001600160a01b03163314610bc95760405163118cdaa760e01b815233600482015260240161089e565b60026006540361172d57604051633ee5aeb560e01b815260040160405180910390fd5b6002600655565b6001600160a01b03821661175e5760405163ec442f0560e01b81526000600482015260240161089e565b61176a60008383611887565b5050565b600580546001600160a01b038381166001600160a01b0319831681179093556040519116919082907f8be0079c531659141344cd1fd0a4f28419497f9722a3daafe3b4186f6b6457e090600090a35050565b6001600160a01b0384166117ea5760405163e602df0560e01b81526000600482015260240161089e565b6001600160a01b03831661181457604051634a1406b160e11b81526000600482015260240161089e565b6001600160a01b038085166000908152600160209081526040808320938716835292905220829055801561167857826001600160a01b0316846001600160a01b03167f8c5be1e5ebec7d5bd14f71427d1e84f3dd0314c0f7b2291e5b200ac8c7c3b9258460405161151691815260200190565b6001600160a01b0383166118b25780600260008282546118a79190611d45565b909155506119249050565b6001600160a01b038316600090815260208190526040902054818110156119055760405163391434e360e21b81526001600160a01b0385166004820152602481018290526044810183905260640161089e565b6001600160a01b03841660009081526020819052604090209082900390555b6001600160a01b0382166119405760028054829003905561195f565b6001600160a01b03821660009081526020819052604090208054820190555b816001600160a01b0316836001600160a01b03167fddf252ad1be2c89b69c2b068fc378daa952ba7f163c4a11628f55a4df523b3ef836040516119a491815260200190565b60405180910390a3505050565b6000602082840312156119c357600080fd5b5035919050565b6000815180845260005b818110156119f0576020818501810151868301820152016119d4565b506000602082860101526020601f19601f83011685010191505092915050565b60006101008a8352806020840152611a2a8184018b6119ca565b604084019990995250506060810195909552608085019390935290151560a0840152151560c08301526001600160a01b031660e09091015292915050565b602081526000611a7b60208301846119ca565b9392505050565b80356001600160a01b0381168114611a9957600080fd5b919050565b60008060408385031215611ab157600080fd5b611aba83611a82565b946020939093013593505050565b600080600060608486031215611add57600080fd5b611ae684611a82565b9250611af460208501611a82565b9150604084013590509250925092565b60008060408385031215611b1757600080fd5b82359150611b2760208401611a82565b90509250929050565b634e487b7160e01b600052604160045260246000fd5b600060208284031215611b5857600080fd5b813567ffffffffffffffff80821115611b7057600080fd5b818401915084601f830112611b8457600080fd5b813581811115611b9657611b96611b30565b604051601f8201601f19908116603f01168101908382118183101715611bbe57611bbe611b30565b81604052828152876020848701011115611bd757600080fd5b826020860160208301376000928101602001929092525095945050505050565b600060208284031215611c0957600080fd5b611a7b82611a82565b60e081526000611c2560e083018a6119ca565b6020830198909852506001600160a01b039590951660408601526060850193909352608084019190915260a083015260c090910152919050565b60008060408385031215611c7257600080fd5b8235915060208301358015158114611c8957600080fd5b809150509250929050565b60008060408385031215611ca757600080fd5b611cb083611a82565b9150611b2760208401611a82565b600181811c90821680611cd257607f821691505b602082108103611cf257634e487b7160e01b600052602260045260246000fd5b50919050565b60208082526019908201527f50726f706f73616c20616c726561647920657865637574656400000000000000604082015260600190565b634e487b7160e01b600052601160045260246000fd5b8082018082111561083a5761083a611d2f565b808202811582820484141761083a5761083a611d2f565b600082611d8c57634e487b7160e01b600052601260045260246000fd5b500490565b8181038181111561083a5761083a611d2f565b600060018201611db657611db6611d2f565b5060010190565b601f8211156115fa576000816000526020600020601f850160051c81016020861015611de65750805b601f850160051c820191505b81811015611e0557828155600101611df2565b505050505050565b815167ffffffffffffffff811115611e2757611e27611b30565b611e3b81611e358454611cbe565b84611dbd565b602080601f831160018114611e705760008415611e585750858301515b600019600386901b1c1916600185901b178555611e05565b600085815260208120601f198616915b82811015611e9f57888601518255948401946001909101908401611e80565b5085821015611ebd5787850151600019600388901b60f8161c191681555b5050505050600190811b01905550565b604081526000611ee060408301856119ca565b905060018060a01b0383166020830152939250505056fea2646970667358221220c1050e0601d9eb679195d18f39954a2b92465898867c083d2fc2132a1577759b64736f6c63430008180033a2646970667358221220d05baf59d7777d4a5cc1767777c692def7ce3efe8dea3e7b2263ac3efb74f5cd64736f6c63430008180033",
  "linkReferences": {},
  "deployedLinkReferences": {}
}