{
  "_format": "hh-sol-artifact-1",
  "contractName": "ClubToken",
  "sourceName": "contracts/ClubToken.sol",
  "abi": [
    {
      "inputs": [
        {
          "internalType": "string",
          "name": "_name",
          "type": "string"
        },
        {
          "internalType": "string",
          "name": "_symbol",
          "type": "string"
        },
        {
          "internalType": "string",
          "name": "_clubName",
          "type": "string"
        },
        {
          "internalType": "uint256",
          "name": "_tokenPrice",
          "type": "uint256"
        },
        {
          "internalType": "address",
          "name": "_clubWallet",
          "type": "address"
        },
        {
          "internalType": "uint256",
          "name": "_fanVotingPower",
          "type": "uint256"
        },
        {
          "internalType": "uint256",
          "name": "_fanRevenueShare",
          "type": "uint256"
        }
      ],
      "stateMutability": "nonpayable",
      "type": "constructor"
    },
    {
      "inputs": [
        {
          "internalType": "address",
          "name": "spender",
          "type": "address"
        },
        {
          "internalType": "uint256",
          "name": "allowance",
          "type": "uint256"
        },
        {
          "internalType": "uint256",
          "name": "needed",
          "type": "uint256"
        }
      ],
      "name": "ERC20InsufficientAllowance",
      "type": "error"
    },
    {
      "inputs": [
        {
          "internalType": "address",
          "name": "sender",
          "type": "address"
        },
        {
          "internalType": "uint256",
          "name": "balance",
          "type": "uint256"
        },
        {
          "internalType": "uint256",
          "name": "needed",
          "type": "uint256"
        }
      ],
      "name": "ERC20InsufficientBalance",
      "type": "error"
    },
    {
      "inputs": [
        {
          "internalType": "address",
          "name": "approver",
          "type": "address"
        }
      ],
      "name": "ERC20InvalidApprover",
      "type": "error"
    },
    {
      "inputs": [
        {
          "internalType": "address",
          "name": "receiver",
          "type": "address"
        }
      ],
      "name": "ERC20InvalidReceiver",
      "type": "error"
    },
    {
      "inputs": [
        {
          "internalType": "address",
          "name": "sender",
          "type": "address"
        }
      ],
      "name": "ERC20InvalidSender",
      "type": "error"
    },
    {
      "inputs": [
        {
          "internalType": "address",
          "name": "spender",
          "type": "address"
        }
      ],
      "name": "ERC20InvalidSpender",
      "type": "error"
    },
    {
      "inputs": [
        {
          "internalType": "address",
          "name": "owner",
          "type": "address"
        }
      ],
      "name": "OwnableInvalidOwner",
      "type": "error"
    },
    {
      "inputs": [
        {
          "internalType": "address",
          "name": "account",
          "type": "address"
        }
      ],
      "name": "OwnableUnauthorizedAccount",
      "type": "error"
    },
    {
      "inputs": [],
      "name": "ReentrancyGuardReentrantCall",
      "type": "error"
    },
    {
      "anonymous": false,
      "inputs": [
        {
          "indexed": true,
          "internalType": "address",
          "name": "owner",
          "type": "address"
        },
        {
          "indexed": true,
          "internalType": "address",
          "name": "spender",
          "type": "address"
        },
        {
          "indexed": false,
          "internalType": "uint256",
          "name": "value",
          "type": "uint256"
        }
      ],
      "name": "Approval",
      "type": "event"
    },
    {
      "anonymous": false,
      "inputs": [
        {
          "indexed": true,
          "internalType": "uint256",
          "name": "proposalId",
          "type": "uint256"
        }
      ],
      "name": "ClubVeto",
      "type": "event"
    },
    {
      "anonymous": false,
      "inputs": [
        {
          "indexed": true,
          "internalType": "address",
          "name": "previousOwner",
          "type": "address"
        },
        {
          "indexed": true,
          "internalType": "address",
          "name": "newOwner",
          "type": "address"
        }
      ],
      "name": "OwnershipTransferred",
      "type": "event"
    },
    {
      "anonymous": false,
      "inputs": [
        {
          "indexed": true,
          "internalType": "uint256",
          "name": "proposalId",
          "type": "uint256"
        },
        {
          "indexed": false,
          "internalType": "string",
          "name": "description",
          "type": "string"
        }
      ],
      "name": "ProposalCreated",
      "type": "event"
    },
    {
      "anonymous": false,
      "inputs": [
        {
          "indexed": true,
          "internalType": "uint256",
          "name": "proposalId",
          "type": "uint256"
        },
        {
          "indexed": false,
          "internalType": "bool",
          "name": "approved",
          "type": "bool"
        }
      ],
      "name": "ProposalExecuted",
      "type": "event"
    },
    {
      "anonymous": false,
      "inputs": [
        {
          "indexed": false,
          "internalType": "uint256",
          "name": "amount",
          "type": "uint256"
        },
        {
          "indexed": false,
          "internalType": "uint256",
          "name": "fanShare",
          "type": "uint256"
        },
        {
          "indexed": false,
          "internalType": "uint256",
          "name": "clubShare",
          "type": "uint256"
        }
      ],
      "name": "RevenueReceived",
      "type": "event"
    },
    {
      "anonymous": false,
      "inputs": [
        {
          "indexed": true,
          "internalType": "address",
          "name": "fan",
          "type": "address"
        },
        {
          "indexed": false,
          "internalType": "uint256",
          "name": "amount",
          "type": "uint256"
        }
      ],
      "name": "RevenuesClaimed",
      "type": "event"
    },
    {
      "anonymous": false,
      "inputs": [
        {
          "indexed": true,
          "internalType": "address",
          "name": "buyer",
          "type": "address"
        },
        {
          "indexed": false,
          "internalType": "uint256",
          "name": "amount",
          "type": "uint256"
        },
        {
          "indexed": false,
          "internalType": "uint256",
          "name": "paid",
          "type": "uint256"
        }
      ],
      "name": "TokensPurchased",
      "type": "event"
    },
    {
      "anonymous": false,
      "inputs": [
        {
          "indexed": true,
          "internalType": "address",
          "name": "from",
          "type": "address"
        },
        {
          "indexed": true,
          "internalType": "address",
          "name": "to",
          "type": "address"
        },
        {
          "indexed": false,
          "internalType": "uint256",
          "name": "value",
          "type": "uint256"
        }
      ],
      "name": "Transfer",
      "type": "event"
    },
    {
      "anonymous": false,
      "inputs": [
        {
          "indexed": true,
          "internalType": "uint256",
          "name": "proposalId",
          "type": "uint256"
        },
        {
          "indexed": true,
          "internalType": "address",
          "name": "voter",
          "type": "address"
        },
        {
          "indexed": false,
          "internalType": "bool",
          "name": "support",
          "type": "bool"
        },
        {
          "indexed": false,
          "internalType": "uint256",
          "name": "weight",
          "type": "uint256"
        }
      ],
      "name": "VoteCast",
      "type": "event"
    },
    {
      "inputs": [],
      "name": "MAX_FAN_REVENUE_SHARE",
      "outputs": [
        {
          "internalType": "uint256",
          "name": "",
          "type": "uint256"
        }
      ],
      "stateMutability": "view",
      "type": "function"
    },
    {
      "inputs": [],
      "name": "MAX_FAN_VOTING_POWER",
      "outputs": [
        {
          "internalType": "uint256",
          "name": "",
          "type": "uint256"
        }
      ],
      "stateMutability": "view",
      "type": "function"
    },
    {
      "inputs": [],
      "name": "MIN_FAN_REVENUE_SHARE",
      "outputs": [
        {
          "internalType": "uint256",
          "name": "",
          "type": "uint256"
        }
      ],
      "stateMutability": "view",
      "type": "function"
    },
    {
      "inputs": [],
      "name": "MIN_FAN_VOTING_POWER",
      "outputs": [
        {
          "internalType": "uint256",
          "name": "",
          "type": "uint256"
        }
      ],
      "stateMutability": "view",
      "type": "function"
    },
    {
      "inputs": [],
      "name": "TOTAL_SUPPLY",
      "outputs": [
        {
          "internalType": "uint256",
          "name": "",
          "type": "uint256"
        }
      ],
      "stateMutability": "view",
      "type": "function"
    },
    {
      "inputs": [
        {
          "internalType": "address",
          "name": "owner",
          "type": "address"
        },
        {
          "internalType": "address",
          "name": "spender",
          "type": "address"
        }
      ],
      "name": "allowance",
      "outputs": [
        {
          "internalType": "uint256",
          "name": "",
          "type": "uint256"
        }
      ],
      "stateMutability": "view",
      "type": "function"
    },
    {
      "inputs": [
        {
          "internalType": "address",
          "name": "spender",
          "type": "address"
        },
        {
          "internalType": "uint256",
          "name": "value",
          "type": "uint256"
        }
      ],
      "name": "approve",
      "outputs": [
        {
          "internalType": "bool",
          "name": "",
          "type": "bool"
        }
      ],
      "stateMutability": "nonpayable",
      "type": "function"
    },
    {
      "inputs": [
        {
          "internalType": "address",
          "name": "account",
          "type": "address"
        }
      ],
      "name": "balanceOf",
      "outputs": [
        {
          "internalType": "uint256",
          "name": "",
          "type": "uint256"
        }
      ],
      "stateMutability": "view",
      "type": "function"
    },
    {
      "inputs": [
        {
          "internalType": "uint256",
          "name": "amount",
          "type": "uint256"
        }
      ],
      "name": "buyTokens",
      "outputs": [],
      "stateMutability": "payable",
      "type": "function"
    },
    {
      "inputs": [],
      "name": "claimRevenue",
      "outputs": [],
      "stateMutability": "nonpayable",
      "type": "function"
    },
    {
      "inputs": [],
      "name": "clubName",
      "outputs": [
        {
          "internalType": "string",
          "name": "",
          "type": "string"
        }
      ],
      "stateMutability": "view",
      "type": "function"
    },
    {
      "inputs": [],
      "name": "clubRevenueShare",
      "outputs": [
        {
          "internalType": "uint256",
          "name": "",
          "type": "uint256"
        }
      ],
      "stateMutability": "view",
      "type": "function"
    },
    {
      "inputs": [
        {
          "internalType": "uint256",
          "name": "proposalId",
          "type": "uint256"
        }
      ],
      "name": "clubVeto",
      "outputs": [],
      "stateMutability": "nonpayable",
      "type": "function"
    },
    {
      "inputs": [],
      "name": "clubVotingPower",
      "outputs": [
        {
          "internalType": "uint256",
          "name": "",
          "type": "uint256"
        }
      ],
      "stateMutability": "view",
      "type": "function"
    },
    {
      "inputs": [],
      "name": "clubWallet",
      "outputs": [
        {
          "internalType": "address",
          "name": "",
          "type": "address"
        }
      ],
      "stateMutability": "view",
      "type": "function"
    },
    {
      "inputs": [
        {
          "internalType": "string",
          "name": "description",
          "type": "string"
        }
      ],
      "name": "createProposal",
      "outputs": [
        {
          "internalType": "uint256",
          "name": "",
          "type": "uint256"
        }
      ],
      "stateMutability": "nonpayable",
      "type": "function"
    },
    {
      "inputs": [],
      "name": "decimals",
      "outputs": [
        {
          "internalType": "uint8",
          "name": "",
          "type": "uint8"
        }
      ],
      "stateMutability": "view",
      "type": "function"
    },
    {
      "inputs": [],
      "name": "distributeRevenue",
      "outputs": [],
      "stateMutability": "payable",
      "type": "function"
    },
    {
      "inputs": [],
      "name": "endSale",
      "outputs": [],
      "stateMutability": "nonpayable",
      "type": "function"
    },
    {
      "inputs": [
        {
          "internalType": "uint256",
          "name": "proposalId",
          "type": "uint256"
        }
      ],
      "name": "executeProposal",
      "outputs": [],
      "stateMutability": "nonpayable",
      "type": "function"
    },
    {
      "inputs": [],
      "name": "fanRevenueShare",
      "outputs": [
        {
          "internalType": "uint256",
          "name": "",
          "type": "uint256"
        }
      ],
      "stateMutability": "view",
      "type": "function"
    },
    {
      "inputs": [],
      "name": "fanVotingPower",
      "outputs": [
        {
          "internalType": "uint256",
          "name": "",
          "type": "uint256"
        }
      ],
      "stateMutability": "view",
      "type": "function"
    },
    {
      "inputs": [
        {
          "internalType": "address",
          "name": "holder",
          "type": "address"
        }
      ],
      "name": "getClaimableRevenue",
      "outputs": [
        {
          "internalType": "uint256",
          "name": "",
          "type": "uint256"
        }
      ],
      "stateMutability": "view",
      "type": "function"
    },
    {
      "inputs": [],
      "name": "getClubStats",
      "outputs": [
        {
          "internalType": "uint256",
          "name": "_tokensSold",
          "type": "uint256"
        },
        {
          "internalType": "uint256",
          "name": "_totalRevenue",
          "type": "uint256"
        },
        {
          "internalType": "uint256",
          "name": "_totalDistributed",
          "type": "uint256"
        },
        {
          "internalType": "uint256",
          "name": "_proposalCount",
          "type": "uint256"
        },
        {
          "internalType": "bool",
          "name": "_saleActive",
          "type": "bool"
        }
      ],
      "stateMutability": "view",
      "type": "function"
    },
    {
      "inputs": [
        {
          "internalType": "uint256",
          "name": "proposalId",
          "type": "uint256"
        }
      ],
      "name": "getProposal",
      "outputs": [
        {
          "internalType": "uint256",
          "name": "id",
          "type": "uint256"
        },
        {
          "internalType": "string",
          "name": "description",
          "type": "string"
        },
        {
          "internalType": "uint256",
          "name": "forVotes",
          "type": "uint256"
        },
        {
          "internalType": "uint256",
          "name": "againstVotes",
          "type": "uint256"
        },
        {
          "internalType": "uint256",
          "name": "deadline",
          "type": "uint256"
        },
        {
          "internalType": "bool",
          "name": "executed",
          "type": "bool"
        },
        {
          "internalType": "bool",
          "name": "clubVetoed",
          "type": "bool"
        }
      ],
      "stateMutability": "view",
      "type": "function"
    },
    {
      "inputs": [
        {
          "internalType": "address",
          "name": "",
          "type": "address"
        }
      ],
      "name": "lastClaimedRevenue",
      "outputs": [
        {
          "internalType": "uint256",
          "name": "",
          "type": "uint256"
        }
      ],
      "stateMutability": "view",
      "type": "function"
    },
    {
      "inputs": [],
      "name": "name",
      "outputs": [
        {
          "internalType": "string",
          "name": "",
          "type": "string"
        }
      ],
      "stateMutability": "view",
      "type": "function"
    },
    {
      "inputs": [],
      "name": "owner",
      "outputs": [
        {
          "internalType": "address",
          "name": "",
          "type": "address"
        }
      ],
      "stateMutability": "view",
      "type": "function"
    },
    {
      "inputs": [],
      "name": "proposalCount",
      "outputs": [
        {
          "internalType": "uint256",
          "name": "",
          "type": "uint256"
        }
      ],
      "stateMutability": "view",
      "type": "function"
    },
    {
      "inputs": [
        {
          "internalType": "uint256",
          "name": "",
          "type": "uint256"
        }
      ],
      "name": "proposals",
      "outputs": [
        {
          "internalType": "uint256",
          "name": "id",
          "type": "uint256"
        },
        {
          "internalType": "string",
          "name": "description",
          "type": "string"
        },
        {
          "internalType": "uint256",
          "name": "forVotes",
          "type": "uint256"
        },
        {
          "internalType": "uint256",
          "name": "againstVotes",
          "type": "uint256"
        },
        {
          "internalType": "uint256",
          "name": "deadline",
          "type": "uint256"
        },
        {
          "internalType": "bool",
          "name": "executed",
          "type": "bool"
        },
        {
          "internalType": "bool",
          "name": "clubVetoed",
          "type": "bool"
        }
      ],
      "stateMutability": "view",
      "type": "function"
    },
    {
      "inputs": [],
      "name": "renounceOwnership",
      "outputs": [],
      "stateMutability": "nonpayable",
      "type": "function"
    },
    {
      "inputs": [],
      "name": "revenuePerToken",
      "outputs": [
        {
          "internalType": "uint256",
          "name": "",
          "type": "uint256"
        }
      ],
      "stateMutability": "view",
      "type": "function"
    },
    {
      "inputs": [],
      "name": "saleActive",
      "outputs": [
        {
          "internalType": "bool",
          "name": "",
          "type": "bool"
        }
      ],
      "stateMutability": "view",
      "type": "function"
    },
    {
      "inputs": [],
      "name": "symbol",
      "outputs": [
        {
          "internalType": "string",
          "name": "",
          "type": "string"
        }
      ],
      "stateMutability": "view",
      "type": "function"
    },
    {
      "inputs": [],
      "name": "tokenPrice",
      "outputs": [
        {
          "internalType": "uint256",
          "name": "",
          "type": "uint256"
        }
      ],
      "stateMutability": "view",
      "type": "function"
    },
    {
      "inputs": [],
      "name": "tokensSold",
      "outputs": [
        {
          "internalType": "uint256",
          "name": "",
          "type": "uint256"
        }
      ],
      "stateMutability": "view",
      "type": "function"
    },
    {
      "inputs": [],
      "name": "totalRevenueDistributed",
      "outputs": [
        {
          "internalType": "uint256",
          "name": "",
          "type": "uint256"
        }
      ],
      "stateMutability": "view",
      "type": "function"
    },
    {
      "inputs": [],
      "name": "totalRevenueReceived",
      "outputs": [
        {
          "internalType": "uint256",
          "name": "",
          "type": "uint256"
        }
      ],
      "stateMutability": "view",
      "type": "function"
    },
    {
      "inputs": [],
      "name": "totalSupply",
      "outputs": [
        {
          "internalType": "uint256",
          "name": "",
          "type": "uint256"
        }
      ],
      "stateMutability": "view",
      "type": "function"
    },
    {
      "inputs": [
        {
          "internalType": "address",
          "name": "to",
          "type": "address"
        },
        {
          "internalType": "uint256",
          "name": "value",
          "type": "uint256"
        }
      ],
      "name": "transfer",
      "outputs": [
        {
          "internalType": "bool",
          "name": "",
          "type": "bool"
        }
      ],
      "stateMutability": "nonpayable",
      "type": "function"
    },
    {
      "inputs": [
        {
          "internalType": "address",
          "name": "from",
          "type": "address"
        },
        {
          "internalType": "address",
          "name": "to",
          "type": "address"
        },
        {
          "internalType": "uint256",
          "name": "value",
          "type": "uint256"
        }
      ],
      "name": "transferFrom",
      "outputs": [
        {
          "internalType": "bool",
          "name": "",
          "type": "bool"
        }
      ],
      "stateMutability": "nonpayable",
      "type": "function"
    },
    {
      "inputs": [
        {
          "internalType": "address",
          "name": "newOwner",
          "type": "address"
        }
      ],
      "name": "transferOwnership",
      "outputs": [],
      "stateMutability": "nonpayable",
      "type": "function"
    },
    {
      "inputs": [
        {
          "internalType": "uint256",
          "name": "newPrice",
          "type": "uint256"
        }
      ],
      "name": "updatePrice",
      "outputs": [],
      "stateMutability": "nonpayable",
      "type": "function"
    },
    {
      "inputs": [
        {
          "internalType": "uint256",
          "name": "proposalId",
          "type": "uint256"
        },
        {
          "internalType": "bool",
          "name": "support",
          "type": "bool"
        }
      ],
      "name": "vote",
      "outputs": [],
      "stateMutability": "nonpayable",
      "type": "function"
    },
    {
      "inputs": [],
      "name": "withdrawSaleFunds",
      "outputs": [],
      "stateMutability": "nonpayable",
      "type": "function"
    },
    {
      "stateMutability": "payable",
      "type": "receive"
    }
  ],
  "bytecode": "0x60806040523480156200001157600080fd5b50604051620026fb380380620026fb8339810160408190526200003491620002fa565b33878760036200004583826200045d565b5060046200005482826200045d565b5050506001600160a01b0381166200008757604051631e4fbdf760e01b8152600060048201526024015b60405180910390fd5b6200009281620001e0565b506001600655600a8210801590620000ab575060318211155b620001095760405162461bcd60e51b815260206004820152602760248201527f46616e20766f74696e6720706f776572206d757374206265206265747765656e6044820152662031302d34392560c81b60648201526084016200007e565b600f8111156200016c5760405162461bcd60e51b815260206004820152602760248201527f46616e20726576656e7565207368617265206d757374206265206265747765656044820152666e20302d31352560c81b60648201526084016200007e565b600b6200017a86826200045d565b50600d849055600c80546001600160a01b0319166001600160a01b0385161790556009829055620001ad82606462000529565b600a556007819055620001c281606462000529565b6008555050600f805460ff1916600117905550620005519350505050565b600580546001600160a01b038381166001600160a01b0319831681179093556040519116919082907f8be0079c531659141344cd1fd0a4f28419497f9722a3daafe3b4186f6b6457e090600090a35050565b634e487b7160e01b600052604160045260246000fd5b600082601f8301126200025a57600080fd5b81516001600160401b038082111562000277576200027762000232565b604051601f8301601f19908116603f01168101908282118183101715620002a257620002a262000232565b8160405283815260209250866020858801011115620002c057600080fd5b600091505b83821015620002e45785820183015181830184015290820190620002c5565b6000602085830101528094505050505092915050565b600080600080600080600060e0888a0312156200031657600080fd5b87516001600160401b03808211156200032e57600080fd5b6200033c8b838c0162000248565b985060208a01519150808211156200035357600080fd5b620003618b838c0162000248565b975060408a01519150808211156200037857600080fd5b50620003878a828b0162000248565b60608a015160808b0151919750955090506001600160a01b0381168114620003ae57600080fd5b8093505060a0880151915060c0880151905092959891949750929550565b600181811c90821680620003e157607f821691505b6020821081036200040257634e487b7160e01b600052602260045260246000fd5b50919050565b601f82111562000458576000816000526020600020601f850160051c81016020861015620004335750805b601f850160051c820191505b8181101562000454578281556001016200043f565b5050505b505050565b81516001600160401b0381111562000479576200047962000232565b62000491816200048a8454620003cc565b8462000408565b602080601f831160018114620004c95760008415620004b05750858301515b600019600386901b1c1916600185901b17855562000454565b600085815260208120601f198616915b82811015620004fa57888601518255948401946001909101908401620004d9565b5085821015620005195787850151600019600388901b60f8161c191681555b5050505050600190811b01905550565b818103818111156200054b57634e487b7160e01b600052601160045260246000fd5b92915050565b61219a80620005616000396000f3fe6080604052600436106102765760003560e01c806368428a1b1161014f578063bbd50dab116100c1578063dd62ed3e1161007a578063dd62ed3e14610769578063f2fde38b146107af578063f363d063146107cf578063f3d3efb1146107e5578063fdf46aba146107fb578063fea08a8e1461081057600080fd5b8063bbd50dab146106d3578063bc56951a146106e8578063c7f758a8146106fe578063c9d27afe1461071e578063ce27489d1461073e578063da35c6641461075357600080fd5b80638bf0e068116101135780638bf0e068146106345780638d6cc56d1461064a5780638da5cb5b1461066a578063902d55a51461068857806395d89b411461069e578063a9059cbb146106b357600080fd5b806368428a1b146105a257806370a08231146105bc57806371071406146105dc578063715018a6146106095780637ff9b5961461061e57600080fd5b80633610724e116101e8578063518ab2a8116101ac578063518ab2a8146104ff578063564f4f761461051557806358db267f1461052a5780635b1e3b881461053f578063610ab0751461055557806363129f751461058d57600080fd5b80633610724e14610477578063380d831b1461048a57806349c2a1a61461049f5780634cd883b3146104bf5780634f4dac6f146104df57600080fd5b806318160ddd1161023a57806318160ddd146103c057806323b872dd146103d557806329868b33146103f55780632c91b5481461040a5780632d07953a14610453578063313ce5671461045b57600080fd5b8063013cf08b146102ee57806306fdde031461032a578063084278ec1461034c578063095ea7b3146103705780630d61b519146103a057600080fd5b366102e95760003411801561028d57506000600e54115b156102e757306001600160a01b0316632d07953a346040518263ffffffff1660e01b81526004016000604051808303818588803b1580156102cd57600080fd5b505af11580156102e1573d6000803e3d6000fd5b50505050505b005b600080fd5b3480156102fa57600080fd5b5061030e610309366004611bd6565b610826565b6040516103219796959493929190611c35565b60405180910390f35b34801561033657600080fd5b5061033f6108f0565b6040516103219190611c7c565b34801561035857600080fd5b5061036260125481565b604051908152602001610321565b34801561037c57600080fd5b5061039061038b366004611cb2565b610982565b6040519015158152602001610321565b3480156103ac57600080fd5b506102e76103bb366004611bd6565b61099c565b3480156103cc57600080fd5b50600254610362565b3480156103e157600080fd5b506103906103f0366004611cdc565b610ae0565b34801561040157600080fd5b50610362600f81565b34801561041657600080fd5b50600e54601054601154601554600f5460ff166040805195865260208601949094529284019190915260608301521515608082015260a001610321565b6102e7610b04565b34801561046757600080fd5b5060405160128152602001610321565b6102e7610485366004611bd6565b610c81565b34801561049657600080fd5b506102e7610ea5565b3480156104ab57600080fd5b506103626104ba366004611d2e565b610eb9565b3480156104cb57600080fd5b506102e76104da366004611bd6565b610ff6565b3480156104eb57600080fd5b506103626104fa366004611ddf565b61115c565b34801561050b57600080fd5b50610362600e5481565b34801561052157600080fd5b506102e76111d6565b34801561053657600080fd5b50610362603181565b34801561054b57600080fd5b5061036260075481565b34801561056157600080fd5b50600c54610575906001600160a01b031681565b6040516001600160a01b039091168152602001610321565b34801561059957600080fd5b50610362600081565b3480156105ae57600080fd5b50600f546103909060ff1681565b3480156105c857600080fd5b506103626105d7366004611ddf565b611360565b3480156105e857600080fd5b506103626105f7366004611ddf565b60136020526000908152604090205481565b34801561061557600080fd5b506102e761137b565b34801561062a57600080fd5b50610362600d5481565b34801561064057600080fd5b50610362600a5481565b34801561065657600080fd5b506102e7610665366004611bd6565b61138d565b34801561067657600080fd5b506005546001600160a01b0316610575565b34801561069457600080fd5b5061036261271081565b3480156106aa57600080fd5b5061033f61139a565b3480156106bf57600080fd5b506103906106ce366004611cb2565b6113a9565b3480156106df57600080fd5b506102e76113b7565b3480156106f457600080fd5b5061036260105481565b34801561070a57600080fd5b5061030e610719366004611bd6565b611458565b34801561072a57600080fd5b506102e7610739366004611dfa565b611567565b34801561074a57600080fd5b5061033f61174d565b34801561075f57600080fd5b5061036260155481565b34801561077557600080fd5b50610362610784366004611e2f565b6001600160a01b03918216600090815260016020908152604080832093909416825291909152205490565b3480156107bb57600080fd5b506102e76107ca366004611ddf565b6117db565b3480156107db57600080fd5b5061036260095481565b3480156107f157600080fd5b5061036260085481565b34801561080757600080fd5b50610362600a81565b34801561081c57600080fd5b5061036260115481565b6014602052600090815260409020805460018201805491929161084890611e62565b80601f016020809104026020016040519081016040528092919081815260200182805461087490611e62565b80156108c15780601f10610896576101008083540402835291602001916108c1565b820191906000526020600020905b8154815290600101906020018083116108a457829003601f168201915b505050506002830154600384015460048501546005909501549394919390925060ff8082169161010090041687565b6060600380546108ff90611e62565b80601f016020809104026020016040519081016040528092919081815260200182805461092b90611e62565b80156109785780601f1061094d57610100808354040283529160200191610978565b820191906000526020600020905b81548152906001019060200180831161095b57829003601f168201915b5050505050905090565b600033610990818585611816565b60019150505b92915050565b600081815260146020526040812080549091036109d45760405162461bcd60e51b81526004016109cb90611e9c565b60405180910390fd5b8060040154421015610a1e5760405162461bcd60e51b8152602060048201526013602482015272566f74696e67207374696c6c2061637469766560681b60448201526064016109cb565b600581015460ff1615610a665760405162461bcd60e51b815260206004820152601060248201526f105b1c9958591e48195e1958dd5d195960821b60448201526064016109cb565b60058101805460ff191660011790819055600090610100900460ff16158015610a96575081600301548260020154115b15610a9f575060015b827f948f4a9cd986f1118c3fbd459f7a22b23c0693e1ca3ef06a6a8be5aa7d39cc0382604051610ad3911515815260200190565b60405180910390a2505050565b600033610aee858285611828565b610af98585856118a7565b506001949350505050565b60003411610b545760405162461bcd60e51b815260206004820152601860248201527f4e6f20726576656e756520746f2064697374726962757465000000000000000060448201526064016109cb565b6000600e5411610b9b5760405162461bcd60e51b8152602060048201526012602482015271139bc81d1bdad95b9cc81cdbdb19081e595d60721b60448201526064016109cb565b6000606460075434610bad9190611ee9565b610bb79190611f00565b90506000610bc58234611f22565b90503460106000828254610bd99190611f35565b9091555050600e54610beb9083611f00565b60126000828254610bfc9190611f35565b9091555050600c546040516001600160a01b039091169082156108fc029083906000818181858888f19350505050158015610c3b573d6000803e3d6000fd5b5060408051348152602081018490529081018290527fddfd8d7ea5f21be6405a8756715202b83341bbf3e00aae51160d97cb63af27d89060600160405180910390a15050565b610c89611906565b600f5460ff16610cd35760405162461bcd60e51b8152602060048201526015602482015274546f6b656e2073616c65206e6f742061637469766560581b60448201526064016109cb565b60008111610d235760405162461bcd60e51b815260206004820152601760248201527f416d6f756e74206d75737420626520706f73697469766500000000000000000060448201526064016109cb565b61271081600e54610d349190611f35565b1115610d775760405162461bcd60e51b815260206004820152601260248201527145786365656473206d617820737570706c7960701b60448201526064016109cb565b6000600d5482610d879190611ee9565b905080341015610dd05760405162461bcd60e51b8152602060048201526014602482015273125b9cdd59999a58da595b9d081c185e5b595b9d60621b60448201526064016109cb565b80341115610e1057336108fc610de68334611f22565b6040518115909202916000818181858888f19350505050158015610e0e573d6000803e3d6000fd5b505b81600e6000828254610e229190611f35565b90915550506012805433600081815260136020526040902091909155610e5c91610e4d90600a61202c565b610e579085611ee9565b611930565b604080518381526020810183905233917f8fafebcaf9d154343dad25669bfa277f4fbacd7ac6b0c4fed522580e040a0f33910160405180910390a250610ea26001600655565b50565b610ead611966565b600f805460ff19169055565b600080610ec533611360565b11610f125760405162461bcd60e51b815260206004820152601a60248201527f4d757374206f776e20746f6b656e7320746f2070726f706f736500000000000060448201526064016109cb565b6000825111610f5a5760405162461bcd60e51b815260206004820152601460248201527311195cd8dc9a5c1d1a5bdb881c995c5d5a5c995960621b60448201526064016109cb565b60158054906000610f6a8361203b565b9091555050601554600081815260146020526040902090815560018101610f9184826120a4565b50610f9f4262093a80611f35565b600482015560058101805461ffff191690556015546040517f9c770c289ab5bf7e57cb1d23c8ceae993aea46eb64847072fd3d78ca60d3e43290610fe4908690611c7c565b60405180910390a25050601554919050565b600c546001600160a01b031633148061101957506005546001600160a01b031633145b61105a5760405162461bcd60e51b81526020600482015260126024820152714f6e6c7920636c75622063616e207665746f60701b60448201526064016109cb565b600081815260146020526040812080549091036110895760405162461bcd60e51b81526004016109cb90611e9c565b600581015460ff16156110d15760405162461bcd60e51b815260206004820152601060248201526f105b1c9958591e48195e1958dd5d195960821b60448201526064016109cb565b6005810154610100900460ff161561111c5760405162461bcd60e51b815260206004820152600e60248201526d105b1c9958591e481d995d1bd95960921b60448201526064016109cb565b60058101805461ff00191661010017905560405182907f3097d6d8fcb2e68f4b51850c3cf610483237849d859bcd87d89e11a11bef88f090600090a25050565b600061116782611360565b60000361117657506000919050565b60006111846012600a61202c565b61118d84611360565b6111979190611f00565b6001600160a01b03841660009081526013602052604081205460125492935090916111c29190611f22565b90506111ce8183611ee9565b949350505050565b6111de611906565b60006111e933611360565b116112285760405162461bcd60e51b815260206004820152600f60248201526e139bc81d1bdad95b9cc81bdddb9959608a1b60448201526064016109cb565b60006112366012600a61202c565b61123f33611360565b6112499190611f00565b33600090815260136020526040812054601254929350909161126b9190611f22565b905060006112798284611ee9565b9050600081116112c15760405162461bcd60e51b81526020600482015260136024820152724e6f20726576656e756520746f20636c61696d60681b60448201526064016109cb565b60125433600090815260136020526040812091909155601180548392906112e9908490611f35565b9091555050604051339082156108fc029083906000818181858888f1935050505015801561131b573d6000803e3d6000fd5b5060405181815233907f8e51a2933bdde470a0798c1443f43f4c2b08a960250ccb8af00b095aa1eabfdf9060200160405180910390a250505061135e6001600655565b565b6001600160a01b031660009081526020819052604090205490565b611383611966565b61135e6000611993565b611395611966565b600d55565b6060600480546108ff90611e62565b6000336109908185856118a7565b6113bf611966565b6000600d54600e546113d19190611ee9565b90508047101561141a5760405162461bcd60e51b8152602060048201526014602482015273496e73756666696369656e742062616c616e636560601b60448201526064016109cb565b6005546040516001600160a01b039091169082156108fc029083906000818181858888f19350505050158015611454573d6000803e3d6000fd5b5050565b600081815260146020526040812080546060918391829182918291829182036114935760405162461bcd60e51b81526004016109cb90611e9c565b80546002820154600383015460048401546005850154600186018054909493929160ff80821692610100909204169086906114cd90611e62565b80601f01602080910402602001604051908101604052809291908181526020018280546114f990611e62565b80156115465780601f1061151b57610100808354040283529160200191611546565b820191906000526020600020905b81548152906001019060200180831161152957829003601f168201915b50505050509550975097509750975097509750975050919395979092949650565b600082815260146020526040812080549091036115965760405162461bcd60e51b81526004016109cb90611e9c565b806004015442106115df5760405162461bcd60e51b8152602060048201526013602482015272159bdd1a5b99c81c195c9a5bd908195b991959606a1b60448201526064016109cb565b33600090815260068201602052604090205460ff16156116315760405162461bcd60e51b815260206004820152600d60248201526c105b1c9958591e481d9bdd1959609a1b60448201526064016109cb565b600061163c33611360565b116116895760405162461bcd60e51b815260206004820152601760248201527f4d757374206f776e20746f6b656e7320746f20766f746500000000000000000060448201526064016109cb565b60006116976012600a61202c565b6116a033611360565b6116aa9190611f00565b3360009081526006840160205260409020805460ff19166001179055905082156116ed57808260020160008282546116e29190611f35565b909155506117079050565b808260030160008282546117019190611f35565b90915550505b60408051841515815260208101839052339186917fcbdf6214089cba887ecbf35a0b6a734589959c9763342c756bb2a80ca2bc9f6e91015b60405180910390a350505050565b600b805461175a90611e62565b80601f016020809104026020016040519081016040528092919081815260200182805461178690611e62565b80156117d35780601f106117a8576101008083540402835291602001916117d3565b820191906000526020600020905b8154815290600101906020018083116117b657829003601f168201915b505050505081565b6117e3611966565b6001600160a01b03811661180d57604051631e4fbdf760e01b8152600060048201526024016109cb565b610ea281611993565b61182383838360016119e5565b505050565b6001600160a01b038381166000908152600160209081526040808320938616835292905220546000198110156118a1578181101561189257604051637dc7a0d960e11b81526001600160a01b038416600482015260248101829052604481018390526064016109cb565b6118a1848484840360006119e5565b50505050565b6001600160a01b0383166118d157604051634b637e8f60e11b8152600060048201526024016109cb565b6001600160a01b0382166118fb5760405163ec442f0560e01b8152600060048201526024016109cb565b611823838383611aac565b60026006540361192957604051633ee5aeb560e01b815260040160405180910390fd5b6002600655565b6001600160a01b03821661195a5760405163ec442f0560e01b8152600060048201526024016109cb565b61145460008383611aac565b6005546001600160a01b0316331461135e5760405163118cdaa760e01b81523360048201526024016109cb565b600580546001600160a01b038381166001600160a01b0319831681179093556040519116919082907f8be0079c531659141344cd1fd0a4f28419497f9722a3daafe3b4186f6b6457e090600090a35050565b6001600160a01b038416611a0f5760405163e602df0560e01b8152600060048201526024016109cb565b6001600160a01b038316611a3957604051634a1406b160e11b8152600060048201526024016109cb565b6001600160a01b03808516600090815260016020908152604080832093871683529290522082905580156118a157826001600160a01b0316846001600160a01b03167f8c5be1e5ebec7d5bd14f71427d1e84f3dd0314c0f7b2291e5b200ac8c7c3b9258460405161173f91815260200190565b6001600160a01b038316611ad7578060026000828254611acc9190611f35565b90915550611b499050565b6001600160a01b03831660009081526020819052604090205481811015611b2a5760405163391434e360e21b81526001600160a01b038516600482015260248101829052604481018390526064016109cb565b6001600160a01b03841660009081526020819052604090209082900390555b6001600160a01b038216611b6557600280548290039055611b84565b6001600160a01b03821660009081526020819052604090208054820190555b816001600160a01b0316836001600160a01b03167fddf252ad1be2c89b69c2b068fc378daa952ba7f163c4a11628f55a4df523b3ef83604051611bc991815260200190565b60405180910390a3505050565b600060208284031215611be857600080fd5b5035919050565b6000815180845260005b81811015611c1557602081850181015186830182015201611bf9565b506000602082860101526020601f19601f83011685010191505092915050565b87815260e060208201526000611c4e60e0830189611bef565b60408301979097525060608101949094526080840192909252151560a0830152151560c09091015292915050565b602081526000611c8f6020830184611bef565b9392505050565b80356001600160a01b0381168114611cad57600080fd5b919050565b60008060408385031215611cc557600080fd5b611cce83611c96565b946020939093013593505050565b600080600060608486031215611cf157600080fd5b611cfa84611c96565b9250611d0860208501611c96565b9150604084013590509250925092565b634e487b7160e01b600052604160045260246000fd5b600060208284031215611d4057600080fd5b813567ffffffffffffffff80821115611d5857600080fd5b818401915084601f830112611d6c57600080fd5b813581811115611d7e57611d7e611d18565b604051601f8201601f19908116603f01168101908382118183101715611da657611da6611d18565b81604052828152876020848701011115611dbf57600080fd5b826020860160208301376000928101602001929092525095945050505050565b600060208284031215611df157600080fd5b611c8f82611c96565b60008060408385031215611e0d57600080fd5b8235915060208301358015158114611e2457600080fd5b809150509250929050565b60008060408385031215611e4257600080fd5b611e4b83611c96565b9150611e5960208401611c96565b90509250929050565b600181811c90821680611e7657607f821691505b602082108103611e9657634e487b7160e01b600052602260045260246000fd5b50919050565b60208082526017908201527f50726f706f73616c20646f6573206e6f74206578697374000000000000000000604082015260600190565b634e487b7160e01b600052601160045260246000fd5b808202811582820484141761099657610996611ed3565b600082611f1d57634e487b7160e01b600052601260045260246000fd5b500490565b8181038181111561099657610996611ed3565b8082018082111561099657610996611ed3565b600181815b80851115611f83578160001904821115611f6957611f69611ed3565b80851615611f7657918102915b93841c9390800290611f4d565b509250929050565b600082611f9a57506001610996565b81611fa757506000610996565b8160018114611fbd5760028114611fc757611fe3565b6001915050610996565b60ff841115611fd857611fd8611ed3565b50506001821b610996565b5060208310610133831016604e8410600b8410161715612006575081810a610996565b6120108383611f48565b806000190482111561202457612024611ed3565b029392505050565b6000611c8f60ff841683611f8b565b60006001820161204d5761204d611ed3565b5060010190565b601f821115611823576000816000526020600020601f850160051c8101602086101561207d5750805b601f850160051c820191505b8181101561209c57828155600101612089565b505050505050565b815167ffffffffffffffff8111156120be576120be611d18565b6120d2816120cc8454611e62565b84612054565b602080601f83116001811461210757600084156120ef5750858301515b600019600386901b1c1916600185901b17855561209c565b600085815260208120601f198616915b8281101561213657888601518255948401946001909101908401612117565b50858210156121545787850151600019600388901b60f8161c191681555b5050505050600190811b0190555056fea26469706673582212208af3e2129719fb13d727eaa08f9c647b1ca3b4d14dfe8d6d3616a56eeb5e7d5e64736f6c63430008180033",
  "linkReferences": {},
  "deployedLinkReferences": {}
}