{"contracts/FanStockFactory.sol":{"FanStockFactory":{"abi":[{"inputs":[],"stateMutability":"nonpayable","type":"constructor"},{"inputs":[{"internalType":"address","name":"owner","type":"address"}],"name":"OwnableInvalidOwner","type":"error"},{"inputs":[{"internalType":"address","name":"account","type":"address"}],"name":"OwnableUnauthorizedAccount","type":"error"},{"anonymous":false,"inputs":[{"indexed":true,"internalType":"string","name":"clubName","type":"string"},{"indexed":true,"internalType":"address","name":"tokenAddress","type":"address"},{"indexed":true,"internalType":"address","name":"clubWallet","type":"address"},{"indexed":false,"internalType":"string","name":"tokenName","type":"string"},{"indexed":false,"internalType":"string","name":"tokenSymbol","type":"string"}],"name":"ClubTokenCreated","type":"event"},{"anonymous":false,"inputs":[{"indexed":false,"internalType":"uint256","name":"oldFee","type":"uint256"},{"indexed":false,"internalType":"uint256","name":"newFee","type":"uint256"}],"name":"FactoryFeeUpdated","type":"event"},{"anonymous":false,"inputs":[{"indexed":true,"internalType":"address","name":"previousOwner","type":"address"},{"indexed":true,"internalType":"address","name":"newOwner","type":"address"}],"name":"OwnershipTransferred","type":"event"},{"anonymous":false,"inputs":[{"indexed":false,"internalType":"uint256","name":"oldPrice","type":"uint256"},{"indexed":false,"internalType":"uint256","name":"newPrice","type":"uint256"}],"name":"TokenPriceUpdated","type":"event"},{"inputs":[{"internalType":"uint256","name":"","type":"uint256"}],"name":"allClubTokens","outputs":[{"internalType":"address","name":"","type":"address"}],"stateMutability":"view","type":"function"},{"inputs":[{"internalType":"string","name":"clubName","type":"string"}],"name":"clubExists","outputs":[{"internalType":"bool","name":"","type":"bool"}],"stateMutability":"view","type":"function"},{"inputs":[{"internalType":"string","name":"","type":"string"}],"name":"clubTokens","outputs":[{"internalType":"address","name":"","type":"address"}],"stateMutability":"view","type":"function"},{"inputs":[{"internalType":"string","name":"clubName","type":"string"},{"internalType":"string","name":"tokenName","type":"string"},{"internalType":"string","name":"tokenSymbol","type":"string"},{"internalType":"address","name":"clubWallet","type":"address"},{"internalType":"uint256","name":"customPrice","type":"uint256"}],"name":"createClubToken","outputs":[{"internalType":"address","name":"","type":"address"}],"stateMutability":"payable","type":"function"},{"inputs":[],"name":"defaultTokenPrice","outputs":[{"internalType":"uint256","name":"","type":"uint256"}],"stateMutability":"view","type":"function"},{"inputs":[],"name":"factoryFee","outputs":[{"internalType":"uint256","name":"","type":"uint256"}],"stateMutability":"view","type":"function"},{"inputs":[{"internalType":"uint256","name":"index","type":"uint256"}],"name":"getClubByIndex","outputs":[{"internalType":"address","name":"","type":"address"}],"stateMutability":"view","type":"function"},{"inputs":[{"internalType":"string","name":"clubName","type":"string"}],"name":"getClubDetails","outputs":[{"internalType":"address","name":"tokenAddress","type":"address"},{"internalType":"string","name":"name","type":"string"},{"internalType":"uint256","name":"tokensSold","type":"uint256"},{"internalType":"uint256","name":"totalRevenue","type":"uint256"},{"internalType":"uint256","name":"proposalCount","type":"uint256"},{"internalType":"bool","name":"saleActive","type":"bool"}],"stateMutability":"view","type":"function"},{"inputs":[{"internalType":"string","name":"clubName","type":"string"}],"name":"getClubToken","outputs":[{"internalType":"address","name":"","type":"address"}],"stateMutability":"view","type":"function"},{"inputs":[{"internalType":"uint256","name":"start","type":"uint256"},{"internalType":"uint256","name":"limit","type":"uint256"}],"name":"getClubs","outputs":[{"internalType":"address[]","name":"","type":"address[]"}],"stateMutability":"view","type":"function"},{"inputs":[],"name":"getFactoryStats","outputs":[{"internalType":"uint256","name":"totalClubs","type":"uint256"},{"internalType":"uint256","name":"_defaultTokenPrice","type":"uint256"},{"internalType":"uint256","name":"_factoryFee","type":"uint256"},{"internalType":"uint256","name":"collectedFees","type":"uint256"}],"stateMutability":"view","type":"function"},{"inputs":[],"name":"getTotalClubs","outputs":[{"internalType":"uint256","name":"","type":"uint256"}],"stateMutability":"view","type":"function"},{"inputs":[],"name":"owner","outputs":[{"internalType":"address","name":"","type":"address"}],"stateMutability":"view","type":"function"},{"inputs":[],"name":"renounceOwnership","outputs":[],"stateMutability":"nonpayable","type":"function"},{"inputs":[{"internalType":"address","name":"newOwner","type":"address"}],"name":"transferOwnership","outputs":[],"stateMutability":"nonpayable","type":"function"},{"inputs":[{"internalType":"uint256","name":"newPrice","type":"uint256"}],"name":"updateDefaultTokenPrice","outputs":[],"stateMutability":"nonpayable","type":"function"},{"inputs":[{"internalType":"uint256","name":"newFee","type":"uint256"}],"name":"updateFactoryFee","outputs":[],"stateMutability":"nonpayable","type":"function"},{"inputs":[],"name":"withdrawFees","outputs":[],"stateMutability":"nonpayable","type":"function"}],"evm":{"bytecode":{"linkReferences":{},"object":"6080604052670de0b6b3a7640000600355662386f26fc1000060045534801561002757600080fd5b50338061004e57604051631e4fbdf760e01b81526000600482015260240160405180910390fd5b6100578161005d565b506100ad565b600080546001600160a01b038381166001600160a01b0319831681178455604051919092169283917f8be0079c531659141344cd1fd0a4f28419497f9722a3daafe3b4186f6b6457e09190a35050565b613854806100bc6000396000f3fe6080604052600436106200011f5760003560e01c80638da5cb5b11620000a1578063c9226445116200006c578063c9226445146200030d578063ea5ded9e1462000346578063ea81db51146200037c578063f28801e914620003a1578063f2fde38b14620003da57600080fd5b80638da5cb5b146200028c5780639448ead914620002ac578063adff1c2a14620002d1578063c04016f914620002f657600080fd5b806357d531d511620000ee57806357d531d514620001ec5780636286116a14620002205780636f6fa0c11462000238578063715018a6146200025d57806379200a3b146200027557600080fd5b80630c63cb67146200012457806318e12e0314620001665780634493e363146200018d578063476343ee14620001d2575b600080fd5b3480156200013157600080fd5b50620001496200014336600462000de1565b620003ff565b6040516001600160a01b0390911681526020015b60405180910390f35b3480156200017357600080fd5b506200017e60035481565b6040519081526020016200015d565b3480156200019a57600080fd5b5062000149620001ac36600462000ecc565b80516020818301810180516001825292820191909301209152546001600160a01b031681565b348015620001df57600080fd5b50620001ea6200042a565b005b348015620001f957600080fd5b50620002116200020b36600462000f0d565b620004bc565b6040516200015d919062000f30565b3480156200022d57600080fd5b506200017e60045481565b3480156200024557600080fd5b50620001496200025736600462000de1565b6200060b565b3480156200026a57600080fd5b50620001ea62000688565b620001496200028636600462000f9c565b620006a0565b3480156200029957600080fd5b506000546001600160a01b031662000149565b348015620002b957600080fd5b50620001ea620002cb36600462000de1565b62000a43565b348015620002de57600080fd5b50620001ea620002f036600462000de1565b62000ade565b3480156200030357600080fd5b506002546200017e565b3480156200031a57600080fd5b50600254600354600454476040805194855260208501939093529183015260608201526080016200015d565b3480156200035357600080fd5b506200036b6200036536600462000ecc565b62000b27565b60405190151581526020016200015d565b3480156200038957600080fd5b50620001496200039b36600462000ecc565b62000b66565b348015620003ae57600080fd5b50620003c6620003c036600462000ecc565b62000b99565b6040516200015d969594939291906200109d565b348015620003e757600080fd5b50620001ea620003f9366004620010ea565b62000d10565b600281815481106200041057600080fd5b6000918252602090912001546001600160a01b0316905081565b6200043462000d54565b47806200047e5760405162461bcd60e51b81526020600482015260136024820152724e6f206665657320746f20776974686472617760681b60448201526064015b60405180910390fd5b600080546040516001600160a01b039091169183156108fc02918491818181858888f19350505050158015620004b8573d6000803e3d6000fd5b5050565b6002546060908310620005125760405162461bcd60e51b815260206004820152601960248201527f537461727420696e646578206f7574206f6620626f756e647300000000000000604482015260640162000475565b600062000520838562001125565b6002549091508111156200053357506002545b60006200054185836200113b565b67ffffffffffffffff8111156200055c576200055c62000dfb565b60405190808252806020026020018201604052801562000586578160200160208202803683370190505b509050845b82811015620006005760028181548110620005aa57620005aa62001151565b6000918252602090912001546001600160a01b031682620005cc88846200113b565b81518110620005df57620005df62001151565b6001600160a01b03909216602092830291909101909101526001016200058b565b509150505b92915050565b6002546000908210620006575760405162461bcd60e51b8152602060048201526013602482015272496e646578206f7574206f6620626f756e647360681b604482015260640162000475565b600282815481106200066d576200066d62001151565b6000918252602090912001546001600160a01b031692915050565b6200069262000d54565b6200069e600062000d83565b565b600080865111620006e95760405162461bcd60e51b815260206004820152601260248201527110db1d58881b985b59481c995c5d5a5c995960721b604482015260640162000475565b6000855111620007325760405162461bcd60e51b8152602060048201526013602482015272151bdad95b881b985b59481c995c5d5a5c9959606a1b604482015260640162000475565b60008451116200077d5760405162461bcd60e51b8152602060048201526015602482015274151bdad95b881cde5b589bdb081c995c5d5a5c9959605a1b604482015260640162000475565b6001600160a01b038316620007cb5760405162461bcd60e51b8152602060048201526013602482015272125b9d985b1a590818db1d58881dd85b1b195d606a1b604482015260640162000475565b60006001600160a01b0316600187604051620007e8919062001167565b908152604051908190036020019020546001600160a01b031614620008505760405162461bcd60e51b815260206004820152601960248201527f436c756220746f6b656e20616c72656164792065786973747300000000000000604482015260640162000475565b600454341015620008a45760405162461bcd60e51b815260206004820152601860248201527f496e73756666696369656e7420666163746f7279206665650000000000000000604482015260640162000475565b6000808311620008b757600354620008b9565b825b905060008686898488604051620008d09062000dd3565b620008e095949392919062001185565b604051809103906000f080158015620008fd573d6000803e3d6000fd5b50905060008190508060018a60405162000918919062001167565b90815260405190819003602001902080546001600160a01b039283166001600160a01b031991821617909155600280546001810182556000919091527f405787fa12a823e0f2b7631cc41b3ba8828b3321ca811111fa75cd3aa3bb5ace01805492841692909116919091179055600454341115620009d05760045433906108fc90620009a590346200113b565b6040518115909202916000818181858888f19350505050158015620009ce573d6000803e3d6000fd5b505b856001600160a01b0316816001600160a01b03168a604051620009f4919062001167565b60405180910390207f3e2ff69081ab706844644d83988366bddae7b77db834d5cb931e882401a453de8b8b60405162000a2f929190620011e7565b60405180910390a498975050505050505050565b62000a4d62000d54565b6000811162000a985760405162461bcd60e51b81526020600482015260166024820152755072696365206d75737420626520706f73697469766560501b604482015260640162000475565b600380549082905560408051828152602081018490527fd9cc159fa79112d02593601db522a6696e6c5c82d9e9ca9332f89ec824935bb091015b60405180910390a15050565b62000ae862000d54565b600480549082905560408051828152602081018490527f7b36d62b02e909a784deee8cba0ade7d2412b17ca7510d2711f48e9cf02adcc9910162000ad2565b6000806001600160a01b031660018360405162000b45919062001167565b908152604051908190036020019020546001600160a01b0316141592915050565b600060018260405162000b7a919062001167565b908152604051908190036020019020546001600160a01b031692915050565b60006060600080600080600060018860405162000bb7919062001167565b908152604051908190036020019020546001600160a01b031690508062000c175760405162461bcd60e51b815260206004820152601360248201527210db1d5888191bd95cc81b9bdd08195e1a5cdd606a1b604482015260640162000475565b6000819050600080600080846001600160a01b0316632c91b5486040518163ffffffff1660e01b815260040160a060405180830381865afa15801562000c61573d6000803e3d6000fd5b505050506040513d601f19601f8201168201806040525081019062000c87919062001219565b94509450509350935085856001600160a01b031663ce27489d6040518163ffffffff1660e01b8152600401600060405180830381865afa15801562000cd0573d6000803e3d6000fd5b505050506040513d6000823e601f3d908101601f1916820160405262000cfa91908101906200126d565b909e909d50939b50919950975095509350505050565b62000d1a62000d54565b6001600160a01b03811662000d4657604051631e4fbdf760e01b81526000600482015260240162000475565b62000d518162000d83565b50565b6000546001600160a01b031633146200069e5760405163118cdaa760e01b815233600482015260240162000475565b600080546001600160a01b038381166001600160a01b0319831681178455604051919092169283917f8be0079c531659141344cd1fd0a4f28419497f9722a3daafe3b4186f6b6457e09190a35050565b61253a80620012e583390190565b60006020828403121562000df457600080fd5b5035919050565b634e487b7160e01b600052604160045260246000fd5b604051601f8201601f1916810167ffffffffffffffff8111828210171562000e3d5762000e3d62000dfb565b604052919050565b600067ffffffffffffffff82111562000e625762000e6262000dfb565b50601f01601f191660200190565b600082601f83011262000e8257600080fd5b813562000e9962000e938262000e45565b62000e11565b81815284602083860101111562000eaf57600080fd5b816020850160208301376000918101602001919091529392505050565b60006020828403121562000edf57600080fd5b813567ffffffffffffffff81111562000ef757600080fd5b62000f058482850162000e70565b949350505050565b6000806040838503121562000f2157600080fd5b50508035926020909101359150565b6020808252825182820181905260009190848201906040850190845b8181101562000f735783516001600160a01b03168352928401929184019160010162000f4c565b50909695505050505050565b80356001600160a01b038116811462000f9757600080fd5b919050565b600080600080600060a0868803121562000fb557600080fd5b853567ffffffffffffffff8082111562000fce57600080fd5b62000fdc89838a0162000e70565b9650602088013591508082111562000ff357600080fd5b6200100189838a0162000e70565b955060408801359150808211156200101857600080fd5b50620010278882890162000e70565b935050620010386060870162000f7f565b949793965091946080013592915050565b60005b83811015620010665781810151838201526020016200104c565b50506000910152565b600081518084526200108981602086016020860162001049565b601f01601f19169290920160200192915050565b6001600160a01b038716815260c060208201819052600090620010c3908301886200106f565b905085604083015284606083015283608083015282151560a0830152979650505050505050565b600060208284031215620010fd57600080fd5b620011088262000f7f565b9392505050565b634e487b7160e01b600052601160045260246000fd5b808201808211156200060557620006056200110f565b818103818111156200060557620006056200110f565b634e487b7160e01b600052603260045260246000fd5b600082516200117b81846020870162001049565b9190910192915050565b60a0815260006200119a60a08301886200106f565b8281036020840152620011ae81886200106f565b90508281036040840152620011c481876200106f565b606084019590955250506001600160a01b03919091166080909101529392505050565b604081526000620011fc60408301856200106f565b82810360208401526200121081856200106f565b95945050505050565b600080600080600060a086880312156200123257600080fd5b85519450602086015193506040860151925060608601519150608086015180151581146200125f57600080fd5b809150509295509295909350565b6000602082840312156200128057600080fd5b815167ffffffffffffffff8111156200129857600080fd5b8201601f81018413620012aa57600080fd5b8051620012bb62000e938262000e45565b818152856020838501011115620012d157600080fd5b620012108260208301602086016200104956fe60806040523480156200001157600080fd5b506040516200253a3803806200253a8339810160408190526200003491620001fb565b33858560036200004583826200034b565b5060046200005482826200034b565b5050506001600160a01b0381166200008657604051631e4fbdf760e01b81526000600482015260240160405180910390fd5b6200009181620000e1565b5060016006556007620000a584826200034b565b50600991909155600880546001600160a01b0319166001600160a01b039092169190911790555050600b805460ff191660011790555062000417565b600580546001600160a01b038381166001600160a01b0319831681179093556040519116919082907f8be0079c531659141344cd1fd0a4f28419497f9722a3daafe3b4186f6b6457e090600090a35050565b634e487b7160e01b600052604160045260246000fd5b600082601f8301126200015b57600080fd5b81516001600160401b038082111562000178576200017862000133565b604051601f8301601f19908116603f01168101908282118183101715620001a357620001a362000133565b8160405283815260209250866020858801011115620001c157600080fd5b600091505b83821015620001e55785820183015181830184015290820190620001c6565b6000602085830101528094505050505092915050565b600080600080600060a086880312156200021457600080fd5b85516001600160401b03808211156200022c57600080fd5b6200023a89838a0162000149565b965060208801519150808211156200025157600080fd5b6200025f89838a0162000149565b955060408801519150808211156200027657600080fd5b50620002858882890162000149565b60608801516080890151919550935090506001600160a01b0381168114620002ac57600080fd5b809150509295509295909350565b600181811c90821680620002cf57607f821691505b602082108103620002f057634e487b7160e01b600052602260045260246000fd5b50919050565b601f82111562000346576000816000526020600020601f850160051c81016020861015620003215750805b601f850160051c820191505b8181101562000342578281556001016200032d565b5050505b505050565b81516001600160401b0381111562000367576200036762000133565b6200037f81620003788454620002ba565b84620002f6565b602080601f831160018114620003b757600084156200039e5750858301515b600019600386901b1c1916600185901b17855562000342565b600085815260208120601f198616915b82811015620003e857888601518255948401946001909101908401620003c7565b5085821015620004075787850151600019600388901b60f8161c191681555b5050505050600190811b01905550565b61211380620004276000396000f3fe60806040526004361061024a5760003560e01c806368428a1b11610139578063bbd50dab116100b6578063d312b2231161007a578063d312b223146106e6578063da35c664146106fb578063dd62ed3e14610711578063f00e17fa14610757578063f2fde38b1461076c578063fea08a8e1461078c57600080fd5b8063bbd50dab14610666578063bc56951a1461067b578063c7f758a814610691578063c9d27afe146106b1578063ce27489d146106d157600080fd5b80638d6cc56d116100fd5780638d6cc56d146105dd5780638da5cb5b146105fd578063902d55a51461061b57806395d89b4114610631578063a9059cbb1461064657600080fd5b806368428a1b1461054b57806370a08231146105655780637107140614610585578063715018a6146105b25780637ff9b596146105c757600080fd5b80633610724e116101c75780634f4dac6f1161018b5780634f4dac6f146104b3578063518ab2a8146104d3578063564f4f76146104e9578063610ab075146104fe57806365486efb1461053657600080fd5b80633610724e14610436578063380d831b146104495780633dfc75701461045e57806349c2a1a6146104735780634cd883b31461049357600080fd5b806318160ddd1161020e57806318160ddd1461039457806323b872dd146103a95780632c91b548146103c95780632d07953a14610412578063313ce5671461041a57600080fd5b8063013cf08b146102c257806306fdde03146102fe578063084278ec14610320578063095ea7b3146103445780630d61b5191461037457600080fd5b366102bd5760003411801561026157506000600a54115b156102bb57306001600160a01b0316632d07953a346040518263ffffffff1660e01b81526004016000604051808303818588803b1580156102a157600080fd5b505af11580156102b5573d6000803e3d6000fd5b50505050505b005b600080fd5b3480156102ce57600080fd5b506102e26102dd366004611b4f565b6107a2565b6040516102f59796959493929190611bae565b60405180910390f35b34801561030a57600080fd5b5061031361086c565b6040516102f59190611bf5565b34801561032c57600080fd5b50610336600e5481565b6040519081526020016102f5565b34801561035057600080fd5b5061036461035f366004611c2b565b6108fe565b60405190151581526020016102f5565b34801561038057600080fd5b506102bb61038f366004611b4f565b610918565b3480156103a057600080fd5b50600254610336565b3480156103b557600080fd5b506103646103c4366004611c55565b610a5c565b3480156103d557600080fd5b50600a54600c54600d54601154600b5460ff166040805195865260208601949094529284019190915260608301521515608082015260a0016102f5565b6102bb610a80565b34801561042657600080fd5b50604051601281526020016102f5565b6102bb610444366004611b4f565b610bfa565b34801561045557600080fd5b506102bb610e1e565b34801561046a57600080fd5b50610336605a81565b34801561047f57600080fd5b5061033661048e366004611ca7565b610e32565b34801561049f57600080fd5b506102bb6104ae366004611b4f565b610f6f565b3480156104bf57600080fd5b506103366104ce366004611d58565b6110d5565b3480156104df57600080fd5b50610336600a5481565b3480156104f557600080fd5b506102bb61114f565b34801561050a57600080fd5b5060085461051e906001600160a01b031681565b6040516001600160a01b0390911681526020016102f5565b34801561054257600080fd5b50610336601e81565b34801561055757600080fd5b50600b546103649060ff1681565b34801561057157600080fd5b50610336610580366004611d58565b6112d9565b34801561059157600080fd5b506103366105a0366004611d58565b600f6020526000908152604090205481565b3480156105be57600080fd5b506102bb6112f4565b3480156105d357600080fd5b5061033660095481565b3480156105e957600080fd5b506102bb6105f8366004611b4f565b611306565b34801561060957600080fd5b506005546001600160a01b031661051e565b34801561062757600080fd5b5061033661271081565b34801561063d57600080fd5b50610313611313565b34801561065257600080fd5b50610364610661366004611c2b565b611322565b34801561067257600080fd5b506102bb611330565b34801561068757600080fd5b50610336600c5481565b34801561069d57600080fd5b506102e26106ac366004611b4f565b6113d1565b3480156106bd57600080fd5b506102bb6106cc366004611d73565b6114e0565b3480156106dd57600080fd5b506103136116c6565b3480156106f257600080fd5b50610336604681565b34801561070757600080fd5b5061033660115481565b34801561071d57600080fd5b5061033661072c366004611da8565b6001600160a01b03918216600090815260016020908152604080832093909416825291909152205490565b34801561076357600080fd5b50610336600a81565b34801561077857600080fd5b506102bb610787366004611d58565b611754565b34801561079857600080fd5b50610336600d5481565b601060205260009081526040902080546001820180549192916107c490611ddb565b80601f01602080910402602001604051908101604052809291908181526020018280546107f090611ddb565b801561083d5780601f106108125761010080835404028352916020019161083d565b820191906000526020600020905b81548152906001019060200180831161082057829003601f168201915b505050506002830154600384015460048501546005909501549394919390925060ff8082169161010090041687565b60606003805461087b90611ddb565b80601f01602080910402602001604051908101604052809291908181526020018280546108a790611ddb565b80156108f45780601f106108c9576101008083540402835291602001916108f4565b820191906000526020600020905b8154815290600101906020018083116108d757829003601f168201915b5050505050905090565b60003361090c81858561178f565b60019150505b92915050565b600081815260106020526040812080549091036109505760405162461bcd60e51b815260040161094790611e15565b60405180910390fd5b806004015442101561099a5760405162461bcd60e51b8152602060048201526013602482015272566f74696e67207374696c6c2061637469766560681b6044820152606401610947565b600581015460ff16156109e25760405162461bcd60e51b815260206004820152601060248201526f105b1c9958591e48195e1958dd5d195960821b6044820152606401610947565b60058101805460ff191660011790819055600090610100900460ff16158015610a12575081600301548260020154115b15610a1b575060015b827f948f4a9cd986f1118c3fbd459f7a22b23c0693e1ca3ef06a6a8be5aa7d39cc0382604051610a4f911515815260200190565b60405180910390a2505050565b600033610a6a8582856117a1565b610a75858585611820565b506001949350505050565b60003411610ad05760405162461bcd60e51b815260206004820152601860248201527f4e6f20726576656e756520746f206469737472696275746500000000000000006044820152606401610947565b6000600a5411610b175760405162461bcd60e51b8152602060048201526012602482015271139bc81d1bdad95b9cc81cdbdb19081e595d60721b6044820152606401610947565b60006064610b26600a34611e62565b610b309190611e79565b90506000610b3e8234611e9b565b905034600c6000828254610b529190611eae565b9091555050600a54610b649083611e79565b600e6000828254610b759190611eae565b90915550506008546040516001600160a01b039091169082156108fc029083906000818181858888f19350505050158015610bb4573d6000803e3d6000fd5b5060408051348152602081018490529081018290527fddfd8d7ea5f21be6405a8756715202b83341bbf3e00aae51160d97cb63af27d89060600160405180910390a15050565b610c0261187f565b600b5460ff16610c4c5760405162461bcd60e51b8152602060048201526015602482015274546f6b656e2073616c65206e6f742061637469766560581b6044820152606401610947565b60008111610c9c5760405162461bcd60e51b815260206004820152601760248201527f416d6f756e74206d75737420626520706f7369746976650000000000000000006044820152606401610947565b61271081600a54610cad9190611eae565b1115610cf05760405162461bcd60e51b815260206004820152601260248201527145786365656473206d617820737570706c7960701b6044820152606401610947565b600060095482610d009190611e62565b905080341015610d495760405162461bcd60e51b8152602060048201526014602482015273125b9cdd59999a58da595b9d081c185e5b595b9d60621b6044820152606401610947565b80341115610d8957336108fc610d5f8334611e9b565b6040518115909202916000818181858888f19350505050158015610d87573d6000803e3d6000fd5b505b81600a6000828254610d9b9190611eae565b9091555050600e54336000818152600f6020526040902091909155610dd590610dc66012600a611fa5565b610dd09085611e62565b6118a9565b604080518381526020810183905233917f8fafebcaf9d154343dad25669bfa277f4fbacd7ac6b0c4fed522580e040a0f33910160405180910390a250610e1b6001600655565b50565b610e266118df565b600b805460ff19169055565b600080610e3e336112d9565b11610e8b5760405162461bcd60e51b815260206004820152601a60248201527f4d757374206f776e20746f6b656e7320746f2070726f706f73650000000000006044820152606401610947565b6000825111610ed35760405162461bcd60e51b815260206004820152601460248201527311195cd8dc9a5c1d1a5bdb881c995c5d5a5c995960621b6044820152606401610947565b60118054906000610ee383611fb4565b9091555050601154600081815260106020526040902090815560018101610f0a848261201d565b50610f184262093a80611eae565b600482015560058101805461ffff191690556011546040517f9c770c289ab5bf7e57cb1d23c8ceae993aea46eb64847072fd3d78ca60d3e43290610f5d908690611bf5565b60405180910390a25050601154919050565b6008546001600160a01b0316331480610f9257506005546001600160a01b031633145b610fd35760405162461bcd60e51b81526020600482015260126024820152714f6e6c7920636c75622063616e207665746f60701b6044820152606401610947565b600081815260106020526040812080549091036110025760405162461bcd60e51b815260040161094790611e15565b600581015460ff161561104a5760405162461bcd60e51b815260206004820152601060248201526f105b1c9958591e48195e1958dd5d195960821b6044820152606401610947565b6005810154610100900460ff16156110955760405162461bcd60e51b815260206004820152600e60248201526d105b1c9958591e481d995d1bd95960921b6044820152606401610947565b60058101805461ff00191661010017905560405182907f3097d6d8fcb2e68f4b51850c3cf610483237849d859bcd87d89e11a11bef88f090600090a25050565b60006110e0826112d9565b6000036110ef57506000919050565b60006110fd6012600a611fa5565b611106846112d9565b6111109190611e79565b6001600160a01b0384166000908152600f6020526040812054600e54929350909161113b9190611e9b565b90506111478183611e62565b949350505050565b61115761187f565b6000611162336112d9565b116111a15760405162461bcd60e51b815260206004820152600f60248201526e139bc81d1bdad95b9cc81bdddb9959608a1b6044820152606401610947565b60006111af6012600a611fa5565b6111b8336112d9565b6111c29190611e79565b336000908152600f6020526040812054600e5492935090916111e49190611e9b565b905060006111f28284611e62565b90506000811161123a5760405162461bcd60e51b81526020600482015260136024820152724e6f20726576656e756520746f20636c61696d60681b6044820152606401610947565b600e54336000908152600f6020526040812091909155600d8054839290611262908490611eae565b9091555050604051339082156108fc029083906000818181858888f19350505050158015611294573d6000803e3d6000fd5b5060405181815233907f8e51a2933bdde470a0798c1443f43f4c2b08a960250ccb8af00b095aa1eabfdf9060200160405180910390a25050506112d76001600655565b565b6001600160a01b031660009081526020819052604090205490565b6112fc6118df565b6112d7600061190c565b61130e6118df565b600955565b60606004805461087b90611ddb565b60003361090c818585611820565b6113386118df565b6000600954600a5461134a9190611e62565b9050804710156113935760405162461bcd60e51b8152602060048201526014602482015273496e73756666696369656e742062616c616e636560601b6044820152606401610947565b6005546040516001600160a01b039091169082156108fc029083906000818181858888f193505050501580156113cd573d6000803e3d6000fd5b5050565b6000818152601060205260408120805460609183918291829182918291820361140c5760405162461bcd60e51b815260040161094790611e15565b80546002820154600383015460048401546005850154600186018054909493929160ff808216926101009092041690869061144690611ddb565b80601f016020809104026020016040519081016040528092919081815260200182805461147290611ddb565b80156114bf5780601f10611494576101008083540402835291602001916114bf565b820191906000526020600020905b8154815290600101906020018083116114a257829003601f168201915b50505050509550975097509750975097509750975050919395979092949650565b6000828152601060205260408120805490910361150f5760405162461bcd60e51b815260040161094790611e15565b806004015442106115585760405162461bcd60e51b8152602060048201526013602482015272159bdd1a5b99c81c195c9a5bd908195b991959606a1b6044820152606401610947565b33600090815260068201602052604090205460ff16156115aa5760405162461bcd60e51b815260206004820152600d60248201526c105b1c9958591e481d9bdd1959609a1b6044820152606401610947565b60006115b5336112d9565b116116025760405162461bcd60e51b815260206004820152601760248201527f4d757374206f776e20746f6b656e7320746f20766f74650000000000000000006044820152606401610947565b60006116106012600a611fa5565b611619336112d9565b6116239190611e79565b3360009081526006840160205260409020805460ff1916600117905590508215611666578082600201600082825461165b9190611eae565b909155506116809050565b8082600301600082825461167a9190611eae565b90915550505b60408051841515815260208101839052339186917fcbdf6214089cba887ecbf35a0b6a734589959c9763342c756bb2a80ca2bc9f6e91015b60405180910390a350505050565b600780546116d390611ddb565b80601f01602080910402602001604051908101604052809291908181526020018280546116ff90611ddb565b801561174c5780601f106117215761010080835404028352916020019161174c565b820191906000526020600020905b81548152906001019060200180831161172f57829003601f168201915b505050505081565b61175c6118df565b6001600160a01b03811661178657604051631e4fbdf760e01b815260006004820152602401610947565b610e1b8161190c565b61179c838383600161195e565b505050565b6001600160a01b0383811660009081526001602090815260408083209386168352929052205460001981101561181a578181101561180b57604051637dc7a0d960e11b81526001600160a01b03841660048201526024810182905260448101839052606401610947565b61181a8484848403600061195e565b50505050565b6001600160a01b03831661184a57604051634b637e8f60e11b815260006004820152602401610947565b6001600160a01b0382166118745760405163ec442f0560e01b815260006004820152602401610947565b61179c838383611a25565b6002600654036118a257604051633ee5aeb560e01b815260040160405180910390fd5b6002600655565b6001600160a01b0382166118d35760405163ec442f0560e01b815260006004820152602401610947565b6113cd60008383611a25565b6005546001600160a01b031633146112d75760405163118cdaa760e01b8152336004820152602401610947565b600580546001600160a01b038381166001600160a01b0319831681179093556040519116919082907f8be0079c531659141344cd1fd0a4f28419497f9722a3daafe3b4186f6b6457e090600090a35050565b6001600160a01b0384166119885760405163e602df0560e01b815260006004820152602401610947565b6001600160a01b0383166119b257604051634a1406b160e11b815260006004820152602401610947565b6001600160a01b038085166000908152600160209081526040808320938716835292905220829055801561181a57826001600160a01b0316846001600160a01b03167f8c5be1e5ebec7d5bd14f71427d1e84f3dd0314c0f7b2291e5b200ac8c7c3b925846040516116b891815260200190565b6001600160a01b038316611a50578060026000828254611a459190611eae565b90915550611ac29050565b6001600160a01b03831660009081526020819052604090205481811015611aa35760405163391434e360e21b81526001600160a01b03851660048201526024810182905260448101839052606401610947565b6001600160a01b03841660009081526020819052604090209082900390555b6001600160a01b038216611ade57600280548290039055611afd565b6001600160a01b03821660009081526020819052604090208054820190555b816001600160a01b0316836001600160a01b03167fddf252ad1be2c89b69c2b068fc378daa952ba7f163c4a11628f55a4df523b3ef83604051611b4291815260200190565b60405180910390a3505050565b600060208284031215611b6157600080fd5b5035919050565b6000815180845260005b81811015611b8e57602081850181015186830182015201611b72565b506000602082860101526020601f19601f83011685010191505092915050565b87815260e060208201526000611bc760e0830189611b68565b60408301979097525060608101949094526080840192909252151560a0830152151560c09091015292915050565b602081526000611c086020830184611b68565b9392505050565b80356001600160a01b0381168114611c2657600080fd5b919050565b60008060408385031215611c3e57600080fd5b611c4783611c0f565b946020939093013593505050565b600080600060608486031215611c6a57600080fd5b611c7384611c0f565b9250611c8160208501611c0f565b9150604084013590509250925092565b634e487b7160e01b600052604160045260246000fd5b600060208284031215611cb957600080fd5b813567ffffffffffffffff80821115611cd157600080fd5b818401915084601f830112611ce557600080fd5b813581811115611cf757611cf7611c91565b604051601f8201601f19908116603f01168101908382118183101715611d1f57611d1f611c91565b81604052828152876020848701011115611d3857600080fd5b826020860160208301376000928101602001929092525095945050505050565b600060208284031215611d6a57600080fd5b611c0882611c0f565b60008060408385031215611d8657600080fd5b8235915060208301358015158114611d9d57600080fd5b809150509250929050565b60008060408385031215611dbb57600080fd5b611dc483611c0f565b9150611dd260208401611c0f565b90509250929050565b600181811c90821680611def57607f821691505b602082108103611e0f57634e487b7160e01b600052602260045260246000fd5b50919050565b60208082526017908201527f50726f706f73616c20646f6573206e6f74206578697374000000000000000000604082015260600190565b634e487b7160e01b600052601160045260246000fd5b808202811582820484141761091257610912611e4c565b600082611e9657634e487b7160e01b600052601260045260246000fd5b500490565b8181038181111561091257610912611e4c565b8082018082111561091257610912611e4c565b600181815b80851115611efc578160001904821115611ee257611ee2611e4c565b80851615611eef57918102915b93841c9390800290611ec6565b509250929050565b600082611f1357506001610912565b81611f2057506000610912565b8160018114611f365760028114611f4057611f5c565b6001915050610912565b60ff841115611f5157611f51611e4c565b50506001821b610912565b5060208310610133831016604e8410600b8410161715611f7f575081810a610912565b611f898383611ec1565b8060001904821115611f9d57611f9d611e4c565b029392505050565b6000611c0860ff841683611f04565b600060018201611fc657611fc6611e4c565b5060010190565b601f82111561179c576000816000526020600020601f850160051c81016020861015611ff65750805b601f850160051c820191505b8181101561201557828155600101612002565b505050505050565b815167ffffffffffffffff81111561203757612037611c91565b61204b816120458454611ddb565b84611fcd565b602080601f83116001811461208057600084156120685750858301515b600019600386901b1c1916600185901b178555612015565b600085815260208120601f198616915b828110156120af57888601518255948401946001909101908401612090565b50858210156120cd5787850151600019600388901b60f8161c191681555b5050505050600190811b0190555056fea26469706673582212200e3b4eb9c008f933d2b393a6d5fbaf92ced67295d439af7ea6aac5b3af2f8d8364736f6c63430008180033a2646970667358221220265273b25d5e0f46b155297abf08c2bd5b7341a25071abca451e5cc93a3aaa4364736f6c63430008180033","opcodes":"PUSH1 0x80 PUSH1 0x40 MSTORE PUSH8 0xDE0B6B3A7640000 PUSH1 0x3 SSTORE PUSH7 0x2386F26FC10000 PUSH1 0x4 SSTORE CALLVALUE DUP1 ISZERO PUSH2 0x27 JUMPI PUSH1 0x0 DUP1 REVERT JUMPDEST POP CALLER DUP1 PUSH2 0x4E JUMPI PUSH1 0x40 MLOAD PUSH4 0x1E4FBDF7 PUSH1 0xE0 SHL DUP2 MSTORE PUSH1 0x0 PUSH1 0x4 DUP3 ADD MSTORE PUSH1 0x24 ADD PUSH1 0x40 MLOAD DUP1 SWAP2 SUB SWAP1 REVERT JUMPDEST PUSH2 0x57 DUP2 PUSH2 0x5D JUMP JUMPDEST POP PUSH2 0xAD JUMP JUMPDEST PUSH1 0x0 DUP1 SLOAD PUSH1 0x1 PUSH1 0x1 PUSH1 0xA0 SHL SUB DUP4 DUP2 AND PUSH1 0x1 PUSH1 0x1 PUSH1 0xA0 SHL SUB NOT DUP4 AND DUP2 OR DUP5 SSTORE PUSH1 0x40 MLOAD SWAP2 SWAP1 SWAP3 AND SWAP3 DUP4 SWAP2 PUSH32 0x8BE0079C531659141344CD1FD0A4F28419497F9722A3DAAFE3B4186F6B6457E0 SWAP2 SWAP1 LOG3 POP POP JUMP JUMPDEST PUSH2 0x3854 DUP1 PUSH2 0xBC PUSH1 0x0 CODECOPY PUSH1 0x0 RETURN INVALID PUSH1 0x80 PUSH1 0x40 MSTORE PUSH1 0x4 CALLDATASIZE LT PUSH3 0x11F JUMPI PUSH1 0x0 CALLDATALOAD PUSH1 0xE0 SHR DUP1 PUSH4 0x8DA5CB5B GT PUSH3 0xA1 JUMPI DUP1 PUSH4 0xC9226445 GT PUSH3 0x6C JUMPI DUP1 PUSH4 0xC9226445 EQ PUSH3 0x30D JUMPI DUP1 PUSH4 0xEA5DED9E EQ PUSH3 0x346 JUMPI DUP1 PUSH4 0xEA81DB51 EQ PUSH3 0x37C JUMPI DUP1 PUSH4 0xF28801E9 EQ PUSH3 0x3A1 JUMPI DUP1 PUSH4 0xF2FDE38B EQ PUSH3 0x3DA JUMPI PUSH1 0x0 DUP1 REVERT JUMPDEST DUP1 PUSH4 0x8DA5CB5B EQ PUSH3 0x28C JUMPI DUP1 PUSH4 0x9448EAD9 EQ PUSH3 0x2AC JUMPI DUP1 PUSH4 0xADFF1C2A EQ PUSH3 0x2D1 JUMPI DUP1 PUSH4 0xC04016F9 EQ PUSH3 0x2F6 JUMPI PUSH1 0x0 DUP1 REVERT JUMPDEST DUP1 PUSH4 0x57D531D5 GT PUSH3 0xEE JUMPI DUP1 PUSH4 0x57D531D5 EQ PUSH3 0x1EC JUMPI DUP1 PUSH4 0x6286116A EQ PUSH3 0x220 JUMPI DUP1 PUSH4 0x6F6FA0C1 EQ PUSH3 0x238 JUMPI DUP1 PUSH4 0x715018A6 EQ PUSH3 0x25D JUMPI DUP1 PUSH4 0x79200A3B EQ PUSH3 0x275 JUMPI PUSH1 0x0 DUP1 REVERT JUMPDEST DUP1 PUSH4 0xC63CB67 EQ PUSH3 0x124 JUMPI DUP1 PUSH4 0x18E12E03 EQ PUSH3 0x166 JUMPI DUP1 PUSH4 0x4493E363 EQ PUSH3 0x18D JUMPI DUP1 PUSH4 0x476343EE EQ PUSH3 0x1D2 JUMPI JUMPDEST PUSH1 0x0 DUP1 REVERT JUMPDEST CALLVALUE DUP1 ISZERO PUSH3 0x131 JUMPI PUSH1 0x0 DUP1 REVERT JUMPDEST POP PUSH3 0x149 PUSH3 0x143 CALLDATASIZE PUSH1 0x4 PUSH3 0xDE1 JUMP JUMPDEST PUSH3 0x3FF JUMP JUMPDEST PUSH1 0x40 MLOAD PUSH1 0x1 PUSH1 0x1 PUSH1 0xA0 SHL SUB SWAP1 SWAP2 AND DUP2 MSTORE PUSH1 0x20 ADD JUMPDEST PUSH1 0x40 MLOAD DUP1 SWAP2 SUB SWAP1 RETURN JUMPDEST CALLVALUE DUP1 ISZERO PUSH3 0x173 JUMPI PUSH1 0x0 DUP1 REVERT JUMPDEST POP PUSH3 0x17E PUSH1 0x3 SLOAD DUP2 JUMP JUMPDEST PUSH1 0x40 MLOAD SWAP1 DUP2 MSTORE PUSH1 0x20 ADD PUSH3 0x15D JUMP JUMPDEST CALLVALUE DUP1 ISZERO PUSH3 0x19A JUMPI PUSH1 0x0 DUP1 REVERT JUMPDEST POP PUSH3 0x149 PUSH3 0x1AC CALLDATASIZE PUSH1 0x4 PUSH3 0xECC JUMP JUMPDEST DUP1 MLOAD PUSH1 0x20 DUP2 DUP4 ADD DUP2 ADD DUP1 MLOAD PUSH1 0x1 DUP3 MSTORE SWAP3 DUP3 ADD SWAP2 SWAP1 SWAP4 ADD KECCAK256 SWAP2 MSTORE SLOAD PUSH1 0x1 PUSH1 0x1 PUSH1 0xA0 SHL SUB AND DUP2 JUMP JUMPDEST CALLVALUE DUP1 ISZERO PUSH3 0x1DF JUMPI PUSH1 0x0 DUP1 REVERT JUMPDEST POP PUSH3 0x1EA PUSH3 0x42A JUMP JUMPDEST STOP JUMPDEST CALLVALUE DUP1 ISZERO PUSH3 0x1F9 JUMPI PUSH1 0x0 DUP1 REVERT JUMPDEST POP PUSH3 0x211 PUSH3 0x20B CALLDATASIZE PUSH1 0x4 PUSH3 0xF0D JUMP JUMPDEST PUSH3 0x4BC JUMP JUMPDEST PUSH1 0x40 MLOAD PUSH3 0x15D SWAP2 SWAP1 PUSH3 0xF30 JUMP JUMPDEST CALLVALUE DUP1 ISZERO PUSH3 0x22D JUMPI PUSH1 0x0 DUP1 REVERT JUMPDEST POP PUSH3 0x17E PUSH1 0x4 SLOAD DUP2 JUMP JUMPDEST CALLVALUE DUP1 ISZERO PUSH3 0x245 JUMPI PUSH1 0x0 DUP1 REVERT JUMPDEST POP PUSH3 0x149 PUSH3 0x257 CALLDATASIZE PUSH1 0x4 PUSH3 0xDE1 JUMP JUMPDEST PUSH3 0x60B JUMP JUMPDEST CALLVALUE DUP1 ISZERO PUSH3 0x26A JUMPI PUSH1 0x0 DUP1 REVERT JUMPDEST POP PUSH3 0x1EA PUSH3 0x688 JUMP JUMPDEST PUSH3 0x149 PUSH3 0x286 CALLDATASIZE PUSH1 0x4 PUSH3 0xF9C JUMP JUMPDEST PUSH3 0x6A0 JUMP JUMPDEST CALLVALUE DUP1 ISZERO PUSH3 0x299 JUMPI PUSH1 0x0 DUP1 REVERT JUMPDEST POP PUSH1 0x0 SLOAD PUSH1 0x1 PUSH1 0x1 PUSH1 0xA0 SHL SUB AND PUSH3 0x149 JUMP JUMPDEST CALLVALUE DUP1 ISZERO PUSH3 0x2B9 JUMPI PUSH1 0x0 DUP1 REVERT JUMPDEST POP PUSH3 0x1EA PUSH3 0x2CB CALLDATASIZE PUSH1 0x4 PUSH3 0xDE1 JUMP JUMPDEST PUSH3 0xA43 JUMP JUMPDEST CALLVALUE DUP1 ISZERO PUSH3 0x2DE JUMPI PUSH1 0x0 DUP1 REVERT JUMPDEST POP PUSH3 0x1EA PUSH3 0x2F0 CALLDATASIZE PUSH1 0x4 PUSH3 0xDE1 JUMP JUMPDEST PUSH3 0xADE JUMP JUMPDEST CALLVALUE DUP1 ISZERO PUSH3 0x303 JUMPI PUSH1 0x0 DUP1 REVERT JUMPDEST POP PUSH1 0x2 SLOAD PUSH3 0x17E JUMP JUMPDEST CALLVALUE DUP1 ISZERO PUSH3 0x31A JUMPI PUSH1 0x0 DUP1 REVERT JUMPDEST POP PUSH1 0x2 SLOAD PUSH1 0x3 SLOAD PUSH1 0x4 SLOAD SELFBALANCE PUSH1 0x40 DUP1 MLOAD SWAP5 DUP6 MSTORE PUSH1 0x20 DUP6 ADD SWAP4 SWAP1 SWAP4 MSTORE SWAP2 DUP4 ADD MSTORE PUSH1 0x60 DUP3 ADD MSTORE PUSH1 0x80 ADD PUSH3 0x15D JUMP JUMPDEST CALLVALUE DUP1 ISZERO PUSH3 0x353 JUMPI PUSH1 0x0 DUP1 REVERT JUMPDEST POP PUSH3 0x36B PUSH3 0x365 CALLDATASIZE PUSH1 0x4 PUSH3 0xECC JUMP JUMPDEST PUSH3 0xB27 JUMP JUMPDEST PUSH1 0x40 MLOAD SWAP1 ISZERO ISZERO DUP2 MSTORE PUSH1 0x20 ADD PUSH3 0x15D JUMP JUMPDEST CALLVALUE DUP1 ISZERO PUSH3 0x389 JUMPI PUSH1 0x0 DUP1 REVERT JUMPDEST POP PUSH3 0x149 PUSH3 0x39B CALLDATASIZE PUSH1 0x4 PUSH3 0xECC JUMP JUMPDEST PUSH3 0xB66 JUMP JUMPDEST CALLVALUE DUP1 ISZERO PUSH3 0x3AE JUMPI PUSH1 0x0 DUP1 REVERT JUMPDEST POP PUSH3 0x3C6 PUSH3 0x3C0 CALLDATASIZE PUSH1 0x4 PUSH3 0xECC JUMP JUMPDEST PUSH3 0xB99 JUMP JUMPDEST PUSH1 0x40 MLOAD PUSH3 0x15D SWAP7 SWAP6 SWAP5 SWAP4 SWAP3 SWAP2 SWAP1 PUSH3 0x109D JUMP JUMPDEST CALLVALUE DUP1 ISZERO PUSH3 0x3E7 JUMPI PUSH1 0x0 DUP1 REVERT JUMPDEST POP PUSH3 0x1EA PUSH3 0x3F9 CALLDATASIZE PUSH1 0x4 PUSH3 0x10EA JUMP JUMPDEST PUSH3 0xD10 JUMP JUMPDEST PUSH1 0x2 DUP2 DUP2 SLOAD DUP2 LT PUSH3 0x410 JUMPI PUSH1 0x0 DUP1 REVERT JUMPDEST PUSH1 0x0 SWAP2 DUP3 MSTORE PUSH1 0x20 SWAP1 SWAP2 KECCAK256 ADD SLOAD PUSH1 0x1 PUSH1 0x1 PUSH1 0xA0 SHL SUB AND SWAP1 POP DUP2 JUMP JUMPDEST PUSH3 0x434 PUSH3 0xD54 JUMP JUMPDEST SELFBALANCE DUP1 PUSH3 0x47E JUMPI PUSH1 0x40 MLOAD PUSH3 0x461BCD PUSH1 0xE5 SHL DUP2 MSTORE PUSH1 0x20 PUSH1 0x4 DUP3 ADD MSTORE PUSH1 0x13 PUSH1 0x24 DUP3 ADD MSTORE PUSH19 0x4E6F206665657320746F207769746864726177 PUSH1 0x68 SHL PUSH1 0x44 DUP3 ADD MSTORE PUSH1 0x64 ADD JUMPDEST PUSH1 0x40 MLOAD DUP1 SWAP2 SUB SWAP1 REVERT JUMPDEST PUSH1 0x0 DUP1 SLOAD PUSH1 0x40 MLOAD PUSH1 0x1 PUSH1 0x1 PUSH1 0xA0 SHL SUB SWAP1 SWAP2 AND SWAP2 DUP4 ISZERO PUSH2 0x8FC MUL SWAP2 DUP5 SWAP2 DUP2 DUP2 DUP2 DUP6 DUP9 DUP9 CALL SWAP4 POP POP POP POP ISZERO DUP1 ISZERO PUSH3 0x4B8 JUMPI RETURNDATASIZE PUSH1 0x0 DUP1 RETURNDATACOPY RETURNDATASIZE PUSH1 0x0 REVERT JUMPDEST POP POP JUMP JUMPDEST PUSH1 0x2 SLOAD PUSH1 0x60 SWAP1 DUP4 LT PUSH3 0x512 JUMPI PUSH1 0x40 MLOAD PUSH3 0x461BCD PUSH1 0xE5 SHL DUP2 MSTORE PUSH1 0x20 PUSH1 0x4 DUP3 ADD MSTORE PUSH1 0x19 PUSH1 0x24 DUP3 ADD MSTORE PUSH32 0x537461727420696E646578206F7574206F6620626F756E647300000000000000 PUSH1 0x44 DUP3 ADD MSTORE PUSH1 0x64 ADD PUSH3 0x475 JUMP JUMPDEST PUSH1 0x0 PUSH3 0x520 DUP4 DUP6 PUSH3 0x1125 JUMP JUMPDEST PUSH1 0x2 SLOAD SWAP1 SWAP2 POP DUP2 GT ISZERO PUSH3 0x533 JUMPI POP PUSH1 0x2 SLOAD JUMPDEST PUSH1 0x0 PUSH3 0x541 DUP6 DUP4 PUSH3 0x113B JUMP JUMPDEST PUSH8 0xFFFFFFFFFFFFFFFF DUP2 GT ISZERO PUSH3 0x55C JUMPI PUSH3 0x55C PUSH3 0xDFB JUMP JUMPDEST PUSH1 0x40 MLOAD SWAP1 DUP1 DUP3 MSTORE DUP1 PUSH1 0x20 MUL PUSH1 0x20 ADD DUP3 ADD PUSH1 0x40 MSTORE DUP1 ISZERO PUSH3 0x586 JUMPI DUP2 PUSH1 0x20 ADD PUSH1 0x20 DUP3 MUL DUP1 CALLDATASIZE DUP4 CALLDATACOPY ADD SWAP1 POP JUMPDEST POP SWAP1 POP DUP5 JUMPDEST DUP3 DUP2 LT ISZERO PUSH3 0x600 JUMPI PUSH1 0x2 DUP2 DUP2 SLOAD DUP2 LT PUSH3 0x5AA JUMPI PUSH3 0x5AA PUSH3 0x1151 JUMP JUMPDEST PUSH1 0x0 SWAP2 DUP3 MSTORE PUSH1 0x20 SWAP1 SWAP2 KECCAK256 ADD SLOAD PUSH1 0x1 PUSH1 0x1 PUSH1 0xA0 SHL SUB AND DUP3 PUSH3 0x5CC DUP9 DUP5 PUSH3 0x113B JUMP JUMPDEST DUP2 MLOAD DUP2 LT PUSH3 0x5DF JUMPI PUSH3 0x5DF PUSH3 0x1151 JUMP JUMPDEST PUSH1 0x1 PUSH1 0x1 PUSH1 0xA0 SHL SUB SWAP1 SWAP3 AND PUSH1 0x20 SWAP3 DUP4 MUL SWAP2 SWAP1 SWAP2 ADD SWAP1 SWAP2 ADD MSTORE PUSH1 0x1 ADD PUSH3 0x58B JUMP JUMPDEST POP SWAP2 POP POP JUMPDEST SWAP3 SWAP2 POP POP JUMP JUMPDEST PUSH1 0x2 SLOAD PUSH1 0x0 SWAP1 DUP3 LT PUSH3 0x657 JUMPI PUSH1 0x40 MLOAD PUSH3 0x461BCD PUSH1 0xE5 SHL DUP2 MSTORE PUSH1 0x20 PUSH1 0x4 DUP3 ADD MSTORE PUSH1 0x13 PUSH1 0x24 DUP3 ADD MSTORE PUSH19 0x496E646578206F7574206F6620626F756E6473 PUSH1 0x68 SHL PUSH1 0x44 DUP3 ADD MSTORE PUSH1 0x64 ADD PUSH3 0x475 JUMP JUMPDEST PUSH1 0x2 DUP3 DUP2 SLOAD DUP2 LT PUSH3 0x66D JUMPI PUSH3 0x66D PUSH3 0x1151 JUMP JUMPDEST PUSH1 0x0 SWAP2 DUP3 MSTORE PUSH1 0x20 SWAP1 SWAP2 KECCAK256 ADD SLOAD PUSH1 0x1 PUSH1 0x1 PUSH1 0xA0 SHL SUB AND SWAP3 SWAP2 POP POP JUMP JUMPDEST PUSH3 0x692 PUSH3 0xD54 JUMP JUMPDEST PUSH3 0x69E PUSH1 0x0 PUSH3 0xD83 JUMP JUMPDEST JUMP JUMPDEST PUSH1 0x0 DUP1 DUP7 MLOAD GT PUSH3 0x6E9 JUMPI PUSH1 0x40 MLOAD PUSH3 0x461BCD PUSH1 0xE5 SHL DUP2 MSTORE PUSH1 0x20 PUSH1 0x4 DUP3 ADD MSTORE PUSH1 0x12 PUSH1 0x24 DUP3 ADD MSTORE PUSH18 0x10DB1D58881B985B59481C995C5D5A5C9959 PUSH1 0x72 SHL PUSH1 0x44 DUP3 ADD MSTORE PUSH1 0x64 ADD PUSH3 0x475 JUMP JUMPDEST PUSH1 0x0 DUP6 MLOAD GT PUSH3 0x732 JUMPI PUSH1 0x40 MLOAD PUSH3 0x461BCD PUSH1 0xE5 SHL DUP2 MSTORE PUSH1 0x20 PUSH1 0x4 DUP3 ADD MSTORE PUSH1 0x13 PUSH1 0x24 DUP3 ADD MSTORE PUSH19 0x151BDAD95B881B985B59481C995C5D5A5C9959 PUSH1 0x6A SHL PUSH1 0x44 DUP3 ADD MSTORE PUSH1 0x64 ADD PUSH3 0x475 JUMP JUMPDEST PUSH1 0x0 DUP5 MLOAD GT PUSH3 0x77D JUMPI PUSH1 0x40 MLOAD PUSH3 0x461BCD PUSH1 0xE5 SHL DUP2 MSTORE PUSH1 0x20 PUSH1 0x4 DUP3 ADD MSTORE PUSH1 0x15 PUSH1 0x24 DUP3 ADD MSTORE PUSH21 0x151BDAD95B881CDE5B589BDB081C995C5D5A5C9959 PUSH1 0x5A SHL PUSH1 0x44 DUP3 ADD MSTORE PUSH1 0x64 ADD PUSH3 0x475 JUMP JUMPDEST PUSH1 0x1 PUSH1 0x1 PUSH1 0xA0 SHL SUB DUP4 AND PUSH3 0x7CB JUMPI PUSH1 0x40 MLOAD PUSH3 0x461BCD PUSH1 0xE5 SHL DUP2 MSTORE PUSH1 0x20 PUSH1 0x4 DUP3 ADD MSTORE PUSH1 0x13 PUSH1 0x24 DUP3 ADD MSTORE PUSH19 0x125B9D985B1A590818DB1D58881DD85B1B195D PUSH1 0x6A SHL PUSH1 0x44 DUP3 ADD MSTORE PUSH1 0x64 ADD PUSH3 0x475 JUMP JUMPDEST PUSH1 0x0 PUSH1 0x1 PUSH1 0x1 PUSH1 0xA0 SHL SUB AND PUSH1 0x1 DUP8 PUSH1 0x40 MLOAD PUSH3 0x7E8 SWAP2 SWAP1 PUSH3 0x1167 JUMP JUMPDEST SWAP1 DUP2 MSTORE PUSH1 0x40 MLOAD SWAP1 DUP2 SWAP1 SUB PUSH1 0x20 ADD SWAP1 KECCAK256 SLOAD PUSH1 0x1 PUSH1 0x1 PUSH1 0xA0 SHL SUB AND EQ PUSH3 0x850 JUMPI PUSH1 0x40 MLOAD PUSH3 0x461BCD PUSH1 0xE5 SHL DUP2 MSTORE PUSH1 0x20 PUSH1 0x4 DUP3 ADD MSTORE PUSH1 0x19 PUSH1 0x24 DUP3 ADD MSTORE PUSH32 0x436C756220746F6B656E20616C72656164792065786973747300000000000000 PUSH1 0x44 DUP3 ADD MSTORE PUSH1 0x64 ADD PUSH3 0x475 JUMP JUMPDEST PUSH1 0x4 SLOAD CALLVALUE LT ISZERO PUSH3 0x8A4 JUMPI PUSH1 0x40 MLOAD PUSH3 0x461BCD PUSH1 0xE5 SHL DUP2 MSTORE PUSH1 0x20 PUSH1 0x4 DUP3 ADD MSTORE PUSH1 0x18 PUSH1 0x24 DUP3 ADD MSTORE PUSH32 0x496E73756666696369656E7420666163746F7279206665650000000000000000 PUSH1 0x44 DUP3 ADD MSTORE PUSH1 0x64 ADD PUSH3 0x475 JUMP JUMPDEST PUSH1 0x0 DUP1 DUP4 GT PUSH3 0x8B7 JUMPI PUSH1 0x3 SLOAD PUSH3 0x8B9 JUMP JUMPDEST DUP3 JUMPDEST SWAP1 POP PUSH1 0x0 DUP7 DUP7 DUP10 DUP5 DUP9 PUSH1 0x40 MLOAD PUSH3 0x8D0 SWAP1 PUSH3 0xDD3 JUMP JUMPDEST PUSH3 0x8E0 SWAP6 SWAP5 SWAP4 SWAP3 SWAP2 SWAP1 PUSH3 0x1185 JUMP JUMPDEST PUSH1 0x40 MLOAD DUP1 SWAP2 SUB SWAP1 PUSH1 0x0 CREATE DUP1 ISZERO DUP1 ISZERO PUSH3 0x8FD JUMPI RETURNDATASIZE PUSH1 0x0 DUP1 RETURNDATACOPY RETURNDATASIZE PUSH1 0x0 REVERT JUMPDEST POP SWAP1 POP PUSH1 0x0 DUP2 SWAP1 POP DUP1 PUSH1 0x1 DUP11 PUSH1 0x40 MLOAD PUSH3 0x918 SWAP2 SWAP1 PUSH3 0x1167 JUMP JUMPDEST SWAP1 DUP2 MSTORE PUSH1 0x40 MLOAD SWAP1 DUP2 SWAP1 SUB PUSH1 0x20 ADD SWAP1 KECCAK256 DUP1 SLOAD PUSH1 0x1 PUSH1 0x1 PUSH1 0xA0 SHL SUB SWAP3 DUP4 AND PUSH1 0x1 PUSH1 0x1 PUSH1 0xA0 SHL SUB NOT SWAP2 DUP3 AND OR SWAP1 SWAP2 SSTORE PUSH1 0x2 DUP1 SLOAD PUSH1 0x1 DUP2 ADD DUP3 SSTORE PUSH1 0x0 SWAP2 SWAP1 SWAP2 MSTORE PUSH32 0x405787FA12A823E0F2B7631CC41B3BA8828B3321CA811111FA75CD3AA3BB5ACE ADD DUP1 SLOAD SWAP3 DUP5 AND SWAP3 SWAP1 SWAP2 AND SWAP2 SWAP1 SWAP2 OR SWAP1 SSTORE PUSH1 0x4 SLOAD CALLVALUE GT ISZERO PUSH3 0x9D0 JUMPI PUSH1 0x4 SLOAD CALLER SWAP1 PUSH2 0x8FC SWAP1 PUSH3 0x9A5 SWAP1 CALLVALUE PUSH3 0x113B JUMP JUMPDEST PUSH1 0x40 MLOAD DUP2 ISZERO SWAP1 SWAP3 MUL SWAP2 PUSH1 0x0 DUP2 DUP2 DUP2 DUP6 DUP9 DUP9 CALL SWAP4 POP POP POP POP ISZERO DUP1 ISZERO PUSH3 0x9CE JUMPI RETURNDATASIZE PUSH1 0x0 DUP1 RETURNDATACOPY RETURNDATASIZE PUSH1 0x0 REVERT JUMPDEST POP JUMPDEST DUP6 PUSH1 0x1 PUSH1 0x1 PUSH1 0xA0 SHL SUB AND DUP2 PUSH1 0x1 PUSH1 0x1 PUSH1 0xA0 SHL SUB AND DUP11 PUSH1 0x40 MLOAD PUSH3 0x9F4 SWAP2 SWAP1 PUSH3 0x1167 JUMP JUMPDEST PUSH1 0x40 MLOAD DUP1 SWAP2 SUB SWAP1 KECCAK256 PUSH32 0x3E2FF69081AB706844644D83988366BDDAE7B77DB834D5CB931E882401A453DE DUP12 DUP12 PUSH1 0x40 MLOAD PUSH3 0xA2F SWAP3 SWAP2 SWAP1 PUSH3 0x11E7 JUMP JUMPDEST PUSH1 0x40 MLOAD DUP1 SWAP2 SUB SWAP1 LOG4 SWAP9 SWAP8 POP POP POP POP POP POP POP POP JUMP JUMPDEST PUSH3 0xA4D PUSH3 0xD54 JUMP JUMPDEST PUSH1 0x0 DUP2 GT PUSH3 0xA98 JUMPI PUSH1 0x40 MLOAD PUSH3 0x461BCD PUSH1 0xE5 SHL DUP2 MSTORE PUSH1 0x20 PUSH1 0x4 DUP3 ADD MSTORE PUSH1 0x16 PUSH1 0x24 DUP3 ADD MSTORE PUSH22 0x5072696365206D75737420626520706F736974697665 PUSH1 0x50 SHL PUSH1 0x44 DUP3 ADD MSTORE PUSH1 0x64 ADD PUSH3 0x475 JUMP JUMPDEST PUSH1 0x3 DUP1 SLOAD SWAP1 DUP3 SWAP1 SSTORE PUSH1 0x40 DUP1 MLOAD DUP3 DUP2 MSTORE PUSH1 0x20 DUP2 ADD DUP5 SWAP1 MSTORE PUSH32 0xD9CC159FA79112D02593601DB522A6696E6C5C82D9E9CA9332F89EC824935BB0 SWAP2 ADD JUMPDEST PUSH1 0x40 MLOAD DUP1 SWAP2 SUB SWAP1 LOG1 POP POP JUMP JUMPDEST PUSH3 0xAE8 PUSH3 0xD54 JUMP JUMPDEST PUSH1 0x4 DUP1 SLOAD SWAP1 DUP3 SWAP1 SSTORE PUSH1 0x40 DUP1 MLOAD DUP3 DUP2 MSTORE PUSH1 0x20 DUP2 ADD DUP5 SWAP1 MSTORE PUSH32 0x7B36D62B02E909A784DEEE8CBA0ADE7D2412B17CA7510D2711F48E9CF02ADCC9 SWAP2 ADD PUSH3 0xAD2 JUMP JUMPDEST PUSH1 0x0 DUP1 PUSH1 0x1 PUSH1 0x1 PUSH1 0xA0 SHL SUB AND PUSH1 0x1 DUP4 PUSH1 0x40 MLOAD PUSH3 0xB45 SWAP2 SWAP1 PUSH3 0x1167 JUMP JUMPDEST SWAP1 DUP2 MSTORE PUSH1 0x40 MLOAD SWAP1 DUP2 SWAP1 SUB PUSH1 0x20 ADD SWAP1 KECCAK256 SLOAD PUSH1 0x1 PUSH1 0x1 PUSH1 0xA0 SHL SUB AND EQ ISZERO SWAP3 SWAP2 POP POP JUMP JUMPDEST PUSH1 0x0 PUSH1 0x1 DUP3 PUSH1 0x40 MLOAD PUSH3 0xB7A SWAP2 SWAP1 PUSH3 0x1167 JUMP JUMPDEST SWAP1 DUP2 MSTORE PUSH1 0x40 MLOAD SWAP1 DUP2 SWAP1 SUB PUSH1 0x20 ADD SWAP1 KECCAK256 SLOAD PUSH1 0x1 PUSH1 0x1 PUSH1 0xA0 SHL SUB AND SWAP3 SWAP2 POP POP JUMP JUMPDEST PUSH1 0x0 PUSH1 0x60 PUSH1 0x0 DUP1 PUSH1 0x0 DUP1 PUSH1 0x0 PUSH1 0x1 DUP9 PUSH1 0x40 MLOAD PUSH3 0xBB7 SWAP2 SWAP1 PUSH3 0x1167 JUMP JUMPDEST SWAP1 DUP2 MSTORE PUSH1 0x40 MLOAD SWAP1 DUP2 SWAP1 SUB PUSH1 0x20 ADD SWAP1 KECCAK256 SLOAD PUSH1 0x1 PUSH1 0x1 PUSH1 0xA0 SHL SUB AND SWAP1 POP DUP1 PUSH3 0xC17 JUMPI PUSH1 0x40 MLOAD PUSH3 0x461BCD PUSH1 0xE5 SHL DUP2 MSTORE PUSH1 0x20 PUSH1 0x4 DUP3 ADD MSTORE PUSH1 0x13 PUSH1 0x24 DUP3 ADD MSTORE PUSH19 0x10DB1D5888191BD95CC81B9BDD08195E1A5CDD PUSH1 0x6A SHL PUSH1 0x44 DUP3 ADD MSTORE PUSH1 0x64 ADD PUSH3 0x475 JUMP JUMPDEST PUSH1 0x0 DUP2 SWAP1 POP PUSH1 0x0 DUP1 PUSH1 0x0 DUP1 DUP5 PUSH1 0x1 PUSH1 0x1 PUSH1 0xA0 SHL SUB AND PUSH4 0x2C91B548 PUSH1 0x40 MLOAD DUP2 PUSH4 0xFFFFFFFF AND PUSH1 0xE0 SHL DUP2 MSTORE PUSH1 0x4 ADD PUSH1 0xA0 PUSH1 0x40 MLOAD DUP1 DUP4 SUB DUP2 DUP7 GAS STATICCALL ISZERO DUP1 ISZERO PUSH3 0xC61 JUMPI RETURNDATASIZE PUSH1 0x0 DUP1 RETURNDATACOPY RETURNDATASIZE PUSH1 0x0 REVERT JUMPDEST POP POP POP POP PUSH1 0x40 MLOAD RETURNDATASIZE PUSH1 0x1F NOT PUSH1 0x1F DUP3 ADD AND DUP3 ADD DUP1 PUSH1 0x40 MSTORE POP DUP2 ADD SWAP1 PUSH3 0xC87 SWAP2 SWAP1 PUSH3 0x1219 JUMP JUMPDEST SWAP5 POP SWAP5 POP POP SWAP4 POP SWAP4 POP DUP6 DUP6 PUSH1 0x1 PUSH1 0x1 PUSH1 0xA0 SHL SUB AND PUSH4 0xCE27489D PUSH1 0x40 MLOAD DUP2 PUSH4 0xFFFFFFFF AND PUSH1 0xE0 SHL DUP2 MSTORE PUSH1 0x4 ADD PUSH1 0x0 PUSH1 0x40 MLOAD DUP1 DUP4 SUB DUP2 DUP7 GAS STATICCALL ISZERO DUP1 ISZERO PUSH3 0xCD0 JUMPI RETURNDATASIZE PUSH1 0x0 DUP1 RETURNDATACOPY RETURNDATASIZE PUSH1 0x0 REVERT JUMPDEST POP POP POP POP PUSH1 0x40 MLOAD RETURNDATASIZE PUSH1 0x0 DUP3 RETURNDATACOPY PUSH1 0x1F RETURNDATASIZE SWAP1 DUP2 ADD PUSH1 0x1F NOT AND DUP3 ADD PUSH1 0x40 MSTORE PUSH3 0xCFA SWAP2 SWAP1 DUP2 ADD SWAP1 PUSH3 0x126D JUMP JUMPDEST SWAP1 SWAP15 SWAP1 SWAP14 POP SWAP4 SWAP12 POP SWAP2 SWAP10 POP SWAP8 POP SWAP6 POP SWAP4 POP POP POP POP JUMP JUMPDEST PUSH3 0xD1A PUSH3 0xD54 JUMP JUMPDEST PUSH1 0x1 PUSH1 0x1 PUSH1 0xA0 SHL SUB DUP2 AND PUSH3 0xD46 JUMPI PUSH1 0x40 MLOAD PUSH4 0x1E4FBDF7 PUSH1 0xE0 SHL DUP2 MSTORE PUSH1 0x0 PUSH1 0x4 DUP3 ADD MSTORE PUSH1 0x24 ADD PUSH3 0x475 JUMP JUMPDEST PUSH3 0xD51 DUP2 PUSH3 0xD83 JUMP JUMPDEST POP JUMP JUMPDEST PUSH1 0x0 SLOAD PUSH1 0x1 PUSH1 0x1 PUSH1 0xA0 SHL SUB AND CALLER EQ PUSH3 0x69E JUMPI PUSH1 0x40 MLOAD PUSH4 0x118CDAA7 PUSH1 0xE0 SHL DUP2 MSTORE CALLER PUSH1 0x4 DUP3 ADD MSTORE PUSH1 0x24 ADD PUSH3 0x475 JUMP JUMPDEST PUSH1 0x0 DUP1 SLOAD PUSH1 0x1 PUSH1 0x1 PUSH1 0xA0 SHL SUB DUP4 DUP2 AND PUSH1 0x1 PUSH1 0x1 PUSH1 0xA0 SHL SUB NOT DUP4 AND DUP2 OR DUP5 SSTORE PUSH1 0x40 MLOAD SWAP2 SWAP1 SWAP3 AND SWAP3 DUP4 SWAP2 PUSH32 0x8BE0079C531659141344CD1FD0A4F28419497F9722A3DAAFE3B4186F6B6457E0 SWAP2 SWAP1 LOG3 POP POP JUMP JUMPDEST PUSH2 0x253A DUP1 PUSH3 0x12E5 DUP4 CODECOPY ADD SWAP1 JUMP JUMPDEST PUSH1 0x0 PUSH1 0x20 DUP3 DUP5 SUB SLT ISZERO PUSH3 0xDF4 JUMPI PUSH1 0x0 DUP1 REVERT JUMPDEST POP CALLDATALOAD SWAP2 SWAP1 POP JUMP JUMPDEST PUSH4 0x4E487B71 PUSH1 0xE0 SHL PUSH1 0x0 MSTORE PUSH1 0x41 PUSH1 0x4 MSTORE PUSH1 0x24 PUSH1 0x0 REVERT JUMPDEST PUSH1 0x40 MLOAD PUSH1 0x1F DUP3 ADD PUSH1 0x1F NOT AND DUP2 ADD PUSH8 0xFFFFFFFFFFFFFFFF DUP2 GT DUP3 DUP3 LT OR ISZERO PUSH3 0xE3D JUMPI PUSH3 0xE3D PUSH3 0xDFB JUMP JUMPDEST PUSH1 0x40 MSTORE SWAP2 SWAP1 POP JUMP JUMPDEST PUSH1 0x0 PUSH8 0xFFFFFFFFFFFFFFFF DUP3 GT ISZERO PUSH3 0xE62 JUMPI PUSH3 0xE62 PUSH3 0xDFB JUMP JUMPDEST POP PUSH1 0x1F ADD PUSH1 0x1F NOT AND PUSH1 0x20 ADD SWAP1 JUMP JUMPDEST PUSH1 0x0 DUP3 PUSH1 0x1F DUP4 ADD SLT PUSH3 0xE82 JUMPI PUSH1 0x0 DUP1 REVERT JUMPDEST DUP2 CALLDATALOAD PUSH3 0xE99 PUSH3 0xE93 DUP3 PUSH3 0xE45 JUMP JUMPDEST PUSH3 0xE11 JUMP JUMPDEST DUP2 DUP2 MSTORE DUP5 PUSH1 0x20 DUP4 DUP7 ADD ADD GT ISZERO PUSH3 0xEAF JUMPI PUSH1 0x0 DUP1 REVERT JUMPDEST DUP2 PUSH1 0x20 DUP6 ADD PUSH1 0x20 DUP4 ADD CALLDATACOPY PUSH1 0x0 SWAP2 DUP2 ADD PUSH1 0x20 ADD SWAP2 SWAP1 SWAP2 MSTORE SWAP4 SWAP3 POP POP POP JUMP JUMPDEST PUSH1 0x0 PUSH1 0x20 DUP3 DUP5 SUB SLT ISZERO PUSH3 0xEDF JUMPI PUSH1 0x0 DUP1 REVERT JUMPDEST DUP2 CALLDATALOAD PUSH8 0xFFFFFFFFFFFFFFFF DUP2 GT ISZERO PUSH3 0xEF7 JUMPI PUSH1 0x0 DUP1 REVERT JUMPDEST PUSH3 0xF05 DUP5 DUP3 DUP6 ADD PUSH3 0xE70 JUMP JUMPDEST SWAP5 SWAP4 POP POP POP POP JUMP JUMPDEST PUSH1 0x0 DUP1 PUSH1 0x40 DUP4 DUP6 SUB SLT ISZERO PUSH3 0xF21 JUMPI PUSH1 0x0 DUP1 REVERT JUMPDEST POP POP DUP1 CALLDATALOAD SWAP3 PUSH1 0x20 SWAP1 SWAP2 ADD CALLDATALOAD SWAP2 POP JUMP JUMPDEST PUSH1 0x20 DUP1 DUP3 MSTORE DUP3 MLOAD DUP3 DUP3 ADD DUP2 SWAP1 MSTORE PUSH1 0x0 SWAP2 SWAP1 DUP5 DUP3 ADD SWAP1 PUSH1 0x40 DUP6 ADD SWAP1 DUP5 JUMPDEST DUP2 DUP2 LT ISZERO PUSH3 0xF73 JUMPI DUP4 MLOAD PUSH1 0x1 PUSH1 0x1 PUSH1 0xA0 SHL SUB AND DUP4 MSTORE SWAP3 DUP5 ADD SWAP3 SWAP2 DUP5 ADD SWAP2 PUSH1 0x1 ADD PUSH3 0xF4C JUMP JUMPDEST POP SWAP1 SWAP7 SWAP6 POP POP POP POP POP POP JUMP JUMPDEST DUP1 CALLDATALOAD PUSH1 0x1 PUSH1 0x1 PUSH1 0xA0 SHL SUB DUP2 AND DUP2 EQ PUSH3 0xF97 JUMPI PUSH1 0x0 DUP1 REVERT JUMPDEST SWAP2 SWAP1 POP JUMP JUMPDEST PUSH1 0x0 DUP1 PUSH1 0x0 DUP1 PUSH1 0x0 PUSH1 0xA0 DUP7 DUP9 SUB SLT ISZERO PUSH3 0xFB5 JUMPI PUSH1 0x0 DUP1 REVERT JUMPDEST DUP6 CALLDATALOAD PUSH8 0xFFFFFFFFFFFFFFFF DUP1 DUP3 GT ISZERO PUSH3 0xFCE JUMPI PUSH1 0x0 DUP1 REVERT JUMPDEST PUSH3 0xFDC DUP10 DUP4 DUP11 ADD PUSH3 0xE70 JUMP JUMPDEST SWAP7 POP PUSH1 0x20 DUP9 ADD CALLDATALOAD SWAP2 POP DUP1 DUP3 GT ISZERO PUSH3 0xFF3 JUMPI PUSH1 0x0 DUP1 REVERT JUMPDEST PUSH3 0x1001 DUP10 DUP4 DUP11 ADD PUSH3 0xE70 JUMP JUMPDEST SWAP6 POP PUSH1 0x40 DUP9 ADD CALLDATALOAD SWAP2 POP DUP1 DUP3 GT ISZERO PUSH3 0x1018 JUMPI PUSH1 0x0 DUP1 REVERT JUMPDEST POP PUSH3 0x1027 DUP9 DUP3 DUP10 ADD PUSH3 0xE70 JUMP JUMPDEST SWAP4 POP POP PUSH3 0x1038 PUSH1 0x60 DUP8 ADD PUSH3 0xF7F JUMP JUMPDEST SWAP5 SWAP8 SWAP4 SWAP7 POP SWAP2 SWAP5 PUSH1 0x80 ADD CALLDATALOAD SWAP3 SWAP2 POP POP JUMP JUMPDEST PUSH1 0x0 JUMPDEST DUP4 DUP2 LT ISZERO PUSH3 0x1066 JUMPI DUP2 DUP2 ADD MLOAD DUP4 DUP3 ADD MSTORE PUSH1 0x20 ADD PUSH3 0x104C JUMP JUMPDEST POP POP PUSH1 0x0 SWAP2 ADD MSTORE JUMP JUMPDEST PUSH1 0x0 DUP2 MLOAD DUP1 DUP5 MSTORE PUSH3 0x1089 DUP2 PUSH1 0x20 DUP7 ADD PUSH1 0x20 DUP7 ADD PUSH3 0x1049 JUMP JUMPDEST PUSH1 0x1F ADD PUSH1 0x1F NOT AND SWAP3 SWAP1 SWAP3 ADD PUSH1 0x20 ADD SWAP3 SWAP2 POP POP JUMP JUMPDEST PUSH1 0x1 PUSH1 0x1 PUSH1 0xA0 SHL SUB DUP8 AND DUP2 MSTORE PUSH1 0xC0 PUSH1 0x20 DUP3 ADD DUP2 SWAP1 MSTORE PUSH1 0x0 SWAP1 PUSH3 0x10C3 SWAP1 DUP4 ADD DUP9 PUSH3 0x106F JUMP JUMPDEST SWAP1 POP DUP6 PUSH1 0x40 DUP4 ADD MSTORE DUP5 PUSH1 0x60 DUP4 ADD MSTORE DUP4 PUSH1 0x80 DUP4 ADD MSTORE DUP3 ISZERO ISZERO PUSH1 0xA0 DUP4 ADD MSTORE SWAP8 SWAP7 POP POP POP POP POP POP POP JUMP JUMPDEST PUSH1 0x0 PUSH1 0x20 DUP3 DUP5 SUB SLT ISZERO PUSH3 0x10FD JUMPI PUSH1 0x0 DUP1 REVERT JUMPDEST PUSH3 0x1108 DUP3 PUSH3 0xF7F JUMP JUMPDEST SWAP4 SWAP3 POP POP POP JUMP JUMPDEST PUSH4 0x4E487B71 PUSH1 0xE0 SHL PUSH1 0x0 MSTORE PUSH1 0x11 PUSH1 0x4 MSTORE PUSH1 0x24 PUSH1 0x0 REVERT JUMPDEST DUP1 DUP3 ADD DUP1 DUP3 GT ISZERO PUSH3 0x605 JUMPI PUSH3 0x605 PUSH3 0x110F JUMP JUMPDEST DUP2 DUP2 SUB DUP2 DUP2 GT ISZERO PUSH3 0x605 JUMPI PUSH3 0x605 PUSH3 0x110F JUMP JUMPDEST PUSH4 0x4E487B71 PUSH1 0xE0 SHL PUSH1 0x0 MSTORE PUSH1 0x32 PUSH1 0x4 MSTORE PUSH1 0x24 PUSH1 0x0 REVERT JUMPDEST PUSH1 0x0 DUP3 MLOAD PUSH3 0x117B DUP2 DUP5 PUSH1 0x20 DUP8 ADD PUSH3 0x1049 JUMP JUMPDEST SWAP2 SWAP1 SWAP2 ADD SWAP3 SWAP2 POP POP JUMP JUMPDEST PUSH1 0xA0 DUP2 MSTORE PUSH1 0x0 PUSH3 0x119A PUSH1 0xA0 DUP4 ADD DUP9 PUSH3 0x106F JUMP JUMPDEST DUP3 DUP2 SUB PUSH1 0x20 DUP5 ADD MSTORE PUSH3 0x11AE DUP2 DUP9 PUSH3 0x106F JUMP JUMPDEST SWAP1 POP DUP3 DUP2 SUB PUSH1 0x40 DUP5 ADD MSTORE PUSH3 0x11C4 DUP2 DUP8 PUSH3 0x106F JUMP JUMPDEST PUSH1 0x60 DUP5 ADD SWAP6 SWAP1 SWAP6 MSTORE POP POP PUSH1 0x1 PUSH1 0x1 PUSH1 0xA0 SHL SUB SWAP2 SWAP1 SWAP2 AND PUSH1 0x80 SWAP1 SWAP2 ADD MSTORE SWAP4 SWAP3 POP POP POP JUMP JUMPDEST PUSH1 0x40 DUP2 MSTORE PUSH1 0x0 PUSH3 0x11FC PUSH1 0x40 DUP4 ADD DUP6 PUSH3 0x106F JUMP JUMPDEST DUP3 DUP2 SUB PUSH1 0x20 DUP5 ADD MSTORE PUSH3 0x1210 DUP2 DUP6 PUSH3 0x106F JUMP JUMPDEST SWAP6 SWAP5 POP POP POP POP POP JUMP JUMPDEST PUSH1 0x0 DUP1 PUSH1 0x0 DUP1 PUSH1 0x0 PUSH1 0xA0 DUP7 DUP9 SUB SLT ISZERO PUSH3 0x1232 JUMPI PUSH1 0x0 DUP1 REVERT JUMPDEST DUP6 MLOAD SWAP5 POP PUSH1 0x20 DUP7 ADD MLOAD SWAP4 POP PUSH1 0x40 DUP7 ADD MLOAD SWAP3 POP PUSH1 0x60 DUP7 ADD MLOAD SWAP2 POP PUSH1 0x80 DUP7 ADD MLOAD DUP1 ISZERO ISZERO DUP2 EQ PUSH3 0x125F JUMPI PUSH1 0x0 DUP1 REVERT JUMPDEST DUP1 SWAP2 POP POP SWAP3 SWAP6 POP SWAP3 SWAP6 SWAP1 SWAP4 POP JUMP JUMPDEST PUSH1 0x0 PUSH1 0x20 DUP3 DUP5 SUB SLT ISZERO PUSH3 0x1280 JUMPI PUSH1 0x0 DUP1 REVERT JUMPDEST DUP2 MLOAD PUSH8 0xFFFFFFFFFFFFFFFF DUP2 GT ISZERO PUSH3 0x1298 JUMPI PUSH1 0x0 DUP1 REVERT JUMPDEST DUP3 ADD PUSH1 0x1F DUP2 ADD DUP5 SGT PUSH3 0x12AA JUMPI PUSH1 0x0 DUP1 REVERT JUMPDEST DUP1 MLOAD PUSH3 0x12BB PUSH3 0xE93 DUP3 PUSH3 0xE45 JUMP JUMPDEST DUP2 DUP2 MSTORE DUP6 PUSH1 0x20 DUP4 DUP6 ADD ADD GT ISZERO PUSH3 0x12D1 JUMPI PUSH1 0x0 DUP1 REVERT JUMPDEST PUSH3 0x1210 DUP3 PUSH1 0x20 DUP4 ADD PUSH1 0x20 DUP7 ADD PUSH3 0x1049 JUMP INVALID PUSH1 0x80 PUSH1 0x40 MSTORE CALLVALUE DUP1 ISZERO PUSH3 0x11 JUMPI PUSH1 0x0 DUP1 REVERT JUMPDEST POP PUSH1 0x40 MLOAD PUSH3 0x253A CODESIZE SUB DUP1 PUSH3 0x253A DUP4 CODECOPY DUP2 ADD PUSH1 0x40 DUP2 SWAP1 MSTORE PUSH3 0x34 SWAP2 PUSH3 0x1FB JUMP JUMPDEST CALLER DUP6 DUP6 PUSH1 0x3 PUSH3 0x45 DUP4 DUP3 PUSH3 0x34B JUMP JUMPDEST POP PUSH1 0x4 PUSH3 0x54 DUP3 DUP3 PUSH3 0x34B JUMP JUMPDEST POP POP POP PUSH1 0x1 PUSH1 0x1 PUSH1 0xA0 SHL SUB DUP2 AND PUSH3 0x86 JUMPI PUSH1 0x40 MLOAD PUSH4 0x1E4FBDF7 PUSH1 0xE0 SHL DUP2 MSTORE PUSH1 0x0 PUSH1 0x4 DUP3 ADD MSTORE PUSH1 0x24 ADD PUSH1 0x40 MLOAD DUP1 SWAP2 SUB SWAP1 REVERT JUMPDEST PUSH3 0x91 DUP2 PUSH3 0xE1 JUMP JUMPDEST POP PUSH1 0x1 PUSH1 0x6 SSTORE PUSH1 0x7 PUSH3 0xA5 DUP5 DUP3 PUSH3 0x34B JUMP JUMPDEST POP PUSH1 0x9 SWAP2 SWAP1 SWAP2 SSTORE PUSH1 0x8 DUP1 SLOAD PUSH1 0x1 PUSH1 0x1 PUSH1 0xA0 SHL SUB NOT AND PUSH1 0x1 PUSH1 0x1 PUSH1 0xA0 SHL SUB SWAP1 SWAP3 AND SWAP2 SWAP1 SWAP2 OR SWAP1 SSTORE POP POP PUSH1 0xB DUP1 SLOAD PUSH1 0xFF NOT AND PUSH1 0x1 OR SWAP1 SSTORE POP PUSH3 0x417 JUMP JUMPDEST PUSH1 0x5 DUP1 SLOAD PUSH1 0x1 PUSH1 0x1 PUSH1 0xA0 SHL SUB DUP4 DUP2 AND PUSH1 0x1 PUSH1 0x1 PUSH1 0xA0 SHL SUB NOT DUP4 AND DUP2 OR SWAP1 SWAP4 SSTORE PUSH1 0x40 MLOAD SWAP2 AND SWAP2 SWAP1 DUP3 SWAP1 PUSH32 0x8BE0079C531659141344CD1FD0A4F28419497F9722A3DAAFE3B4186F6B6457E0 SWAP1 PUSH1 0x0 SWAP1 LOG3 POP POP JUMP JUMPDEST PUSH4 0x4E487B71 PUSH1 0xE0 SHL PUSH1 0x0 MSTORE PUSH1 0x41 PUSH1 0x4 MSTORE PUSH1 0x24 PUSH1 0x0 REVERT JUMPDEST PUSH1 0x0 DUP3 PUSH1 0x1F DUP4 ADD SLT PUSH3 0x15B JUMPI PUSH1 0x0 DUP1 REVERT JUMPDEST DUP2 MLOAD PUSH1 0x1 PUSH1 0x1 PUSH1 0x40 SHL SUB DUP1 DUP3 GT ISZERO PUSH3 0x178 JUMPI PUSH3 0x178 PUSH3 0x133 JUMP JUMPDEST PUSH1 0x40 MLOAD PUSH1 0x1F DUP4 ADD PUSH1 0x1F NOT SWAP1 DUP2 AND PUSH1 0x3F ADD AND DUP2 ADD SWAP1 DUP3 DUP3 GT DUP2 DUP4 LT OR ISZERO PUSH3 0x1A3 JUMPI PUSH3 0x1A3 PUSH3 0x133 JUMP JUMPDEST DUP2 PUSH1 0x40 MSTORE DUP4 DUP2 MSTORE PUSH1 0x20 SWAP3 POP DUP7 PUSH1 0x20 DUP6 DUP9 ADD ADD GT ISZERO PUSH3 0x1C1 JUMPI PUSH1 0x0 DUP1 REVERT JUMPDEST PUSH1 0x0 SWAP2 POP JUMPDEST DUP4 DUP3 LT ISZERO PUSH3 0x1E5 JUMPI DUP6 DUP3 ADD DUP4 ADD MLOAD DUP2 DUP4 ADD DUP5 ADD MSTORE SWAP1 DUP3 ADD SWAP1 PUSH3 0x1C6 JUMP JUMPDEST PUSH1 0x0 PUSH1 0x20 DUP6 DUP4 ADD ADD MSTORE DUP1 SWAP5 POP POP POP POP POP SWAP3 SWAP2 POP POP JUMP JUMPDEST PUSH1 0x0 DUP1 PUSH1 0x0 DUP1 PUSH1 0x0 PUSH1 0xA0 DUP7 DUP9 SUB SLT ISZERO PUSH3 0x214 JUMPI PUSH1 0x0 DUP1 REVERT JUMPDEST DUP6 MLOAD PUSH1 0x1 PUSH1 0x1 PUSH1 0x40 SHL SUB DUP1 DUP3 GT ISZERO PUSH3 0x22C JUMPI PUSH1 0x0 DUP1 REVERT JUMPDEST PUSH3 0x23A DUP10 DUP4 DUP11 ADD PUSH3 0x149 JUMP JUMPDEST SWAP7 POP PUSH1 0x20 DUP9 ADD MLOAD SWAP2 POP DUP1 DUP3 GT ISZERO PUSH3 0x251 JUMPI PUSH1 0x0 DUP1 REVERT JUMPDEST PUSH3 0x25F DUP10 DUP4 DUP11 ADD PUSH3 0x149 JUMP JUMPDEST SWAP6 POP PUSH1 0x40 DUP9 ADD MLOAD SWAP2 POP DUP1 DUP3 GT ISZERO PUSH3 0x276 JUMPI PUSH1 0x0 DUP1 REVERT JUMPDEST POP PUSH3 0x285 DUP9 DUP3 DUP10 ADD PUSH3 0x149 JUMP JUMPDEST PUSH1 0x60 DUP9 ADD MLOAD PUSH1 0x80 DUP10 ADD MLOAD SWAP2 SWAP6 POP SWAP4 POP SWAP1 POP PUSH1 0x1 PUSH1 0x1 PUSH1 0xA0 SHL SUB DUP2 AND DUP2 EQ PUSH3 0x2AC JUMPI PUSH1 0x0 DUP1 REVERT JUMPDEST DUP1 SWAP2 POP POP SWAP3 SWAP6 POP SWAP3 SWAP6 SWAP1 SWAP4 POP JUMP JUMPDEST PUSH1 0x1 DUP2 DUP2 SHR SWAP1 DUP3 AND DUP1 PUSH3 0x2CF JUMPI PUSH1 0x7F DUP3 AND SWAP2 POP JUMPDEST PUSH1 0x20 DUP3 LT DUP2 SUB PUSH3 0x2F0 JUMPI PUSH4 0x4E487B71 PUSH1 0xE0 SHL PUSH1 0x0 MSTORE PUSH1 0x22 PUSH1 0x4 MSTORE PUSH1 0x24 PUSH1 0x0 REVERT JUMPDEST POP SWAP2 SWAP1 POP JUMP JUMPDEST PUSH1 0x1F DUP3 GT ISZERO PUSH3 0x346 JUMPI PUSH1 0x0 DUP2 PUSH1 0x0 MSTORE PUSH1 0x20 PUSH1 0x0 KECCAK256 PUSH1 0x1F DUP6 ADD PUSH1 0x5 SHR DUP2 ADD PUSH1 0x20 DUP7 LT ISZERO PUSH3 0x321 JUMPI POP DUP1 JUMPDEST PUSH1 0x1F DUP6 ADD PUSH1 0x5 SHR DUP3 ADD SWAP2 POP JUMPDEST DUP2 DUP2 LT ISZERO PUSH3 0x342 JUMPI DUP3 DUP2 SSTORE PUSH1 0x1 ADD PUSH3 0x32D JUMP JUMPDEST POP POP POP JUMPDEST POP POP POP JUMP JUMPDEST DUP2 MLOAD PUSH1 0x1 PUSH1 0x1 PUSH1 0x40 SHL SUB DUP2 GT ISZERO PUSH3 0x367 JUMPI PUSH3 0x367 PUSH3 0x133 JUMP JUMPDEST PUSH3 0x37F DUP2 PUSH3 0x378 DUP5 SLOAD PUSH3 0x2BA JUMP JUMPDEST DUP5 PUSH3 0x2F6 JUMP JUMPDEST PUSH1 0x20 DUP1 PUSH1 0x1F DUP4 GT PUSH1 0x1 DUP2 EQ PUSH3 0x3B7 JUMPI PUSH1 0x0 DUP5 ISZERO PUSH3 0x39E JUMPI POP DUP6 DUP4 ADD MLOAD JUMPDEST PUSH1 0x0 NOT PUSH1 0x3 DUP7 SWAP1 SHL SHR NOT AND PUSH1 0x1 DUP6 SWAP1 SHL OR DUP6 SSTORE PUSH3 0x342 JUMP JUMPDEST PUSH1 0x0 DUP6 DUP2 MSTORE PUSH1 0x20 DUP2 KECCAK256 PUSH1 0x1F NOT DUP7 AND SWAP2 JUMPDEST DUP3 DUP2 LT ISZERO PUSH3 0x3E8 JUMPI DUP9 DUP7 ADD MLOAD DUP3 SSTORE SWAP5 DUP5 ADD SWAP5 PUSH1 0x1 SWAP1 SWAP2 ADD SWAP1 DUP5 ADD PUSH3 0x3C7 JUMP JUMPDEST POP DUP6 DUP3 LT ISZERO PUSH3 0x407 JUMPI DUP8 DUP6 ADD MLOAD PUSH1 0x0 NOT PUSH1 0x3 DUP9 SWAP1 SHL PUSH1 0xF8 AND SHR NOT AND DUP2 SSTORE JUMPDEST POP POP POP POP POP PUSH1 0x1 SWAP1 DUP2 SHL ADD SWAP1 SSTORE POP JUMP JUMPDEST PUSH2 0x2113 DUP1 PUSH3 0x427 PUSH1 0x0 CODECOPY PUSH1 0x0 RETURN INVALID PUSH1 0x80 PUSH1 0x40 MSTORE PUSH1 0x4 CALLDATASIZE LT PUSH2 0x24A JUMPI PUSH1 0x0 CALLDATALOAD PUSH1 0xE0 SHR DUP1 PUSH4 0x68428A1B GT PUSH2 0x139 JUMPI DUP1 PUSH4 0xBBD50DAB GT PUSH2 0xB6 JUMPI DUP1 PUSH4 0xD312B223 GT PUSH2 0x7A JUMPI DUP1 PUSH4 0xD312B223 EQ PUSH2 0x6E6 JUMPI DUP1 PUSH4 0xDA35C664 EQ PUSH2 0x6FB JUMPI DUP1 PUSH4 0xDD62ED3E EQ PUSH2 0x711 JUMPI DUP1 PUSH4 0xF00E17FA EQ PUSH2 0x757 JUMPI DUP1 PUSH4 0xF2FDE38B EQ PUSH2 0x76C JUMPI DUP1 PUSH4 0xFEA08A8E EQ PUSH2 0x78C JUMPI PUSH1 0x0 DUP1 REVERT JUMPDEST DUP1 PUSH4 0xBBD50DAB EQ PUSH2 0x666 JUMPI DUP1 PUSH4 0xBC56951A EQ PUSH2 0x67B JUMPI DUP1 PUSH4 0xC7F758A8 EQ PUSH2 0x691 JUMPI DUP1 PUSH4 0xC9D27AFE EQ PUSH2 0x6B1 JUMPI DUP1 PUSH4 0xCE27489D EQ PUSH2 0x6D1 JUMPI PUSH1 0x0 DUP1 REVERT JUMPDEST DUP1 PUSH4 0x8D6CC56D GT PUSH2 0xFD JUMPI DUP1 PUSH4 0x8D6CC56D EQ PUSH2 0x5DD JUMPI DUP1 PUSH4 0x8DA5CB5B EQ PUSH2 0x5FD JUMPI DUP1 PUSH4 0x902D55A5 EQ PUSH2 0x61B JUMPI DUP1 PUSH4 0x95D89B41 EQ PUSH2 0x631 JUMPI DUP1 PUSH4 0xA9059CBB EQ PUSH2 0x646 JUMPI PUSH1 0x0 DUP1 REVERT JUMPDEST DUP1 PUSH4 0x68428A1B EQ PUSH2 0x54B JUMPI DUP1 PUSH4 0x70A08231 EQ PUSH2 0x565 JUMPI DUP1 PUSH4 0x71071406 EQ PUSH2 0x585 JUMPI DUP1 PUSH4 0x715018A6 EQ PUSH2 0x5B2 JUMPI DUP1 PUSH4 0x7FF9B596 EQ PUSH2 0x5C7 JUMPI PUSH1 0x0 DUP1 REVERT JUMPDEST DUP1 PUSH4 0x3610724E GT PUSH2 0x1C7 JUMPI DUP1 PUSH4 0x4F4DAC6F GT PUSH2 0x18B JUMPI DUP1 PUSH4 0x4F4DAC6F EQ PUSH2 0x4B3 JUMPI DUP1 PUSH4 0x518AB2A8 EQ PUSH2 0x4D3 JUMPI DUP1 PUSH4 0x564F4F76 EQ PUSH2 0x4E9 JUMPI DUP1 PUSH4 0x610AB075 EQ PUSH2 0x4FE JUMPI DUP1 PUSH4 0x65486EFB EQ PUSH2 0x536 JUMPI PUSH1 0x0 DUP1 REVERT JUMPDEST DUP1 PUSH4 0x3610724E EQ PUSH2 0x436 JUMPI DUP1 PUSH4 0x380D831B EQ PUSH2 0x449 JUMPI DUP1 PUSH4 0x3DFC7570 EQ PUSH2 0x45E JUMPI DUP1 PUSH4 0x49C2A1A6 EQ PUSH2 0x473 JUMPI DUP1 PUSH4 0x4CD883B3 EQ PUSH2 0x493 JUMPI PUSH1 0x0 DUP1 REVERT JUMPDEST DUP1 PUSH4 0x18160DDD GT PUSH2 0x20E JUMPI DUP1 PUSH4 0x18160DDD EQ PUSH2 0x394 JUMPI DUP1 PUSH4 0x23B872DD EQ PUSH2 0x3A9 JUMPI DUP1 PUSH4 0x2C91B548 EQ PUSH2 0x3C9 JUMPI DUP1 PUSH4 0x2D07953A EQ PUSH2 0x412 JUMPI DUP1 PUSH4 0x313CE567 EQ PUSH2 0x41A JUMPI PUSH1 0x0 DUP1 REVERT JUMPDEST DUP1 PUSH4 0x13CF08B EQ PUSH2 0x2C2 JUMPI DUP1 PUSH4 0x6FDDE03 EQ PUSH2 0x2FE JUMPI DUP1 PUSH4 0x84278EC EQ PUSH2 0x320 JUMPI DUP1 PUSH4 0x95EA7B3 EQ PUSH2 0x344 JUMPI DUP1 PUSH4 0xD61B519 EQ PUSH2 0x374 JUMPI PUSH1 0x0 DUP1 REVERT JUMPDEST CALLDATASIZE PUSH2 0x2BD JUMPI PUSH1 0x0 CALLVALUE GT DUP1 ISZERO PUSH2 0x261 JUMPI POP PUSH1 0x0 PUSH1 0xA SLOAD GT JUMPDEST ISZERO PUSH2 0x2BB JUMPI ADDRESS PUSH1 0x1 PUSH1 0x1 PUSH1 0xA0 SHL SUB AND PUSH4 0x2D07953A CALLVALUE PUSH1 0x40 MLOAD DUP3 PUSH4 0xFFFFFFFF AND PUSH1 0xE0 SHL DUP2 MSTORE PUSH1 0x4 ADD PUSH1 0x0 PUSH1 0x40 MLOAD DUP1 DUP4 SUB DUP2 DUP6 DUP9 DUP1 EXTCODESIZE ISZERO DUP1 ISZERO PUSH2 0x2A1 JUMPI PUSH1 0x0 DUP1 REVERT JUMPDEST POP GAS CALL ISZERO DUP1 ISZERO PUSH2 0x2B5 JUMPI RETURNDATASIZE PUSH1 0x0 DUP1 RETURNDATACOPY RETURNDATASIZE PUSH1 0x0 REVERT JUMPDEST POP POP POP POP POP JUMPDEST STOP JUMPDEST PUSH1 0x0 DUP1 REVERT JUMPDEST CALLVALUE DUP1 ISZERO PUSH2 0x2CE JUMPI PUSH1 0x0 DUP1 REVERT JUMPDEST POP PUSH2 0x2E2 PUSH2 0x2DD CALLDATASIZE PUSH1 0x4 PUSH2 0x1B4F JUMP JUMPDEST PUSH2 0x7A2 JUMP JUMPDEST PUSH1 0x40 MLOAD PUSH2 0x2F5 SWAP8 SWAP7 SWAP6 SWAP5 SWAP4 SWAP3 SWAP2 SWAP1 PUSH2 0x1BAE JUMP JUMPDEST PUSH1 0x40 MLOAD DUP1 SWAP2 SUB SWAP1 RETURN JUMPDEST CALLVALUE DUP1 ISZERO PUSH2 0x30A JUMPI PUSH1 0x0 DUP1 REVERT JUMPDEST POP PUSH2 0x313 PUSH2 0x86C JUMP JUMPDEST PUSH1 0x40 MLOAD PUSH2 0x2F5 SWAP2 SWAP1 PUSH2 0x1BF5 JUMP JUMPDEST CALLVALUE DUP1 ISZERO PUSH2 0x32C JUMPI PUSH1 0x0 DUP1 REVERT JUMPDEST POP PUSH2 0x336 PUSH1 0xE SLOAD DUP2 JUMP JUMPDEST PUSH1 0x40 MLOAD SWAP1 DUP2 MSTORE PUSH1 0x20 ADD PUSH2 0x2F5 JUMP JUMPDEST CALLVALUE DUP1 ISZERO PUSH2 0x350 JUMPI PUSH1 0x0 DUP1 REVERT JUMPDEST POP PUSH2 0x364 PUSH2 0x35F CALLDATASIZE PUSH1 0x4 PUSH2 0x1C2B JUMP JUMPDEST PUSH2 0x8FE JUMP JUMPDEST PUSH1 0x40 MLOAD SWAP1 ISZERO ISZERO DUP2 MSTORE PUSH1 0x20 ADD PUSH2 0x2F5 JUMP JUMPDEST CALLVALUE DUP1 ISZERO PUSH2 0x380 JUMPI PUSH1 0x0 DUP1 REVERT JUMPDEST POP PUSH2 0x2BB PUSH2 0x38F CALLDATASIZE PUSH1 0x4 PUSH2 0x1B4F JUMP JUMPDEST PUSH2 0x918 JUMP JUMPDEST CALLVALUE DUP1 ISZERO PUSH2 0x3A0 JUMPI PUSH1 0x0 DUP1 REVERT JUMPDEST POP PUSH1 0x2 SLOAD PUSH2 0x336 JUMP JUMPDEST CALLVALUE DUP1 ISZERO PUSH2 0x3B5 JUMPI PUSH1 0x0 DUP1 REVERT JUMPDEST POP PUSH2 0x364 PUSH2 0x3C4 CALLDATASIZE PUSH1 0x4 PUSH2 0x1C55 JUMP JUMPDEST PUSH2 0xA5C JUMP JUMPDEST CALLVALUE DUP1 ISZERO PUSH2 0x3D5 JUMPI PUSH1 0x0 DUP1 REVERT JUMPDEST POP PUSH1 0xA SLOAD PUSH1 0xC SLOAD PUSH1 0xD SLOAD PUSH1 0x11 SLOAD PUSH1 0xB SLOAD PUSH1 0xFF AND PUSH1 0x40 DUP1 MLOAD SWAP6 DUP7 MSTORE PUSH1 0x20 DUP7 ADD SWAP5 SWAP1 SWAP5 MSTORE SWAP3 DUP5 ADD SWAP2 SWAP1 SWAP2 MSTORE PUSH1 0x60 DUP4 ADD MSTORE ISZERO ISZERO PUSH1 0x80 DUP3 ADD MSTORE PUSH1 0xA0 ADD PUSH2 0x2F5 JUMP JUMPDEST PUSH2 0x2BB PUSH2 0xA80 JUMP JUMPDEST CALLVALUE DUP1 ISZERO PUSH2 0x426 JUMPI PUSH1 0x0 DUP1 REVERT JUMPDEST POP PUSH1 0x40 MLOAD PUSH1 0x12 DUP2 MSTORE PUSH1 0x20 ADD PUSH2 0x2F5 JUMP JUMPDEST PUSH2 0x2BB PUSH2 0x444 CALLDATASIZE PUSH1 0x4 PUSH2 0x1B4F JUMP JUMPDEST PUSH2 0xBFA JUMP JUMPDEST CALLVALUE DUP1 ISZERO PUSH2 0x455 JUMPI PUSH1 0x0 DUP1 REVERT JUMPDEST POP PUSH2 0x2BB PUSH2 0xE1E JUMP JUMPDEST CALLVALUE DUP1 ISZERO PUSH2 0x46A JUMPI PUSH1 0x0 DUP1 REVERT JUMPDEST POP PUSH2 0x336 PUSH1 0x5A DUP2 JUMP JUMPDEST CALLVALUE DUP1 ISZERO PUSH2 0x47F JUMPI PUSH1 0x0 DUP1 REVERT JUMPDEST POP PUSH2 0x336 PUSH2 0x48E CALLDATASIZE PUSH1 0x4 PUSH2 0x1CA7 JUMP JUMPDEST PUSH2 0xE32 JUMP JUMPDEST CALLVALUE DUP1 ISZERO PUSH2 0x49F JUMPI PUSH1 0x0 DUP1 REVERT JUMPDEST POP PUSH2 0x2BB PUSH2 0x4AE CALLDATASIZE PUSH1 0x4 PUSH2 0x1B4F JUMP JUMPDEST PUSH2 0xF6F JUMP JUMPDEST CALLVALUE DUP1 ISZERO PUSH2 0x4BF JUMPI PUSH1 0x0 DUP1 REVERT JUMPDEST POP PUSH2 0x336 PUSH2 0x4CE CALLDATASIZE PUSH1 0x4 PUSH2 0x1D58 JUMP JUMPDEST PUSH2 0x10D5 JUMP JUMPDEST CALLVALUE DUP1 ISZERO PUSH2 0x4DF JUMPI PUSH1 0x0 DUP1 REVERT JUMPDEST POP PUSH2 0x336 PUSH1 0xA SLOAD DUP2 JUMP JUMPDEST CALLVALUE DUP1 ISZERO PUSH2 0x4F5 JUMPI PUSH1 0x0 DUP1 REVERT JUMPDEST POP PUSH2 0x2BB PUSH2 0x114F JUMP JUMPDEST CALLVALUE DUP1 ISZERO PUSH2 0x50A JUMPI PUSH1 0x0 DUP1 REVERT JUMPDEST POP PUSH1 0x8 SLOAD PUSH2 0x51E SWAP1 PUSH1 0x1 PUSH1 0x1 PUSH1 0xA0 SHL SUB AND DUP2 JUMP JUMPDEST PUSH1 0x40 MLOAD PUSH1 0x1 PUSH1 0x1 PUSH1 0xA0 SHL SUB SWAP1 SWAP2 AND DUP2 MSTORE PUSH1 0x20 ADD PUSH2 0x2F5 JUMP JUMPDEST CALLVALUE DUP1 ISZERO PUSH2 0x542 JUMPI PUSH1 0x0 DUP1 REVERT JUMPDEST POP PUSH2 0x336 PUSH1 0x1E DUP2 JUMP JUMPDEST CALLVALUE DUP1 ISZERO PUSH2 0x557 JUMPI PUSH1 0x0 DUP1 REVERT JUMPDEST POP PUSH1 0xB SLOAD PUSH2 0x364 SWAP1 PUSH1 0xFF AND DUP2 JUMP JUMPDEST CALLVALUE DUP1 ISZERO PUSH2 0x571 JUMPI PUSH1 0x0 DUP1 REVERT JUMPDEST POP PUSH2 0x336 PUSH2 0x580 CALLDATASIZE PUSH1 0x4 PUSH2 0x1D58 JUMP JUMPDEST PUSH2 0x12D9 JUMP JUMPDEST CALLVALUE DUP1 ISZERO PUSH2 0x591 JUMPI PUSH1 0x0 DUP1 REVERT JUMPDEST POP PUSH2 0x336 PUSH2 0x5A0 CALLDATASIZE PUSH1 0x4 PUSH2 0x1D58 JUMP JUMPDEST PUSH1 0xF PUSH1 0x20 MSTORE PUSH1 0x0 SWAP1 DUP2 MSTORE PUSH1 0x40 SWAP1 KECCAK256 SLOAD DUP2 JUMP JUMPDEST CALLVALUE DUP1 ISZERO PUSH2 0x5BE JUMPI PUSH1 0x0 DUP1 REVERT JUMPDEST POP PUSH2 0x2BB PUSH2 0x12F4 JUMP JUMPDEST CALLVALUE DUP1 ISZERO PUSH2 0x5D3 JUMPI PUSH1 0x0 DUP1 REVERT JUMPDEST POP PUSH2 0x336 PUSH1 0x9 SLOAD DUP2 JUMP JUMPDEST CALLVALUE DUP1 ISZERO PUSH2 0x5E9 JUMPI PUSH1 0x0 DUP1 REVERT JUMPDEST POP PUSH2 0x2BB PUSH2 0x5F8 CALLDATASIZE PUSH1 0x4 PUSH2 0x1B4F JUMP JUMPDEST PUSH2 0x1306 JUMP JUMPDEST CALLVALUE DUP1 ISZERO PUSH2 0x609 JUMPI PUSH1 0x0 DUP1 REVERT JUMPDEST POP PUSH1 0x5 SLOAD PUSH1 0x1 PUSH1 0x1 PUSH1 0xA0 SHL SUB AND PUSH2 0x51E JUMP JUMPDEST CALLVALUE DUP1 ISZERO PUSH2 0x627 JUMPI PUSH1 0x0 DUP1 REVERT JUMPDEST POP PUSH2 0x336 PUSH2 0x2710 DUP2 JUMP JUMPDEST CALLVALUE DUP1 ISZERO PUSH2 0x63D JUMPI PUSH1 0x0 DUP1 REVERT JUMPDEST POP PUSH2 0x313 PUSH2 0x1313 JUMP JUMPDEST CALLVALUE DUP1 ISZERO PUSH2 0x652 JUMPI PUSH1 0x0 DUP1 REVERT JUMPDEST POP PUSH2 0x364 PUSH2 0x661 CALLDATASIZE PUSH1 0x4 PUSH2 0x1C2B JUMP JUMPDEST PUSH2 0x1322 JUMP JUMPDEST CALLVALUE DUP1 ISZERO PUSH2 0x672 JUMPI PUSH1 0x0 DUP1 REVERT JUMPDEST POP PUSH2 0x2BB PUSH2 0x1330 JUMP JUMPDEST CALLVALUE DUP1 ISZERO PUSH2 0x687 JUMPI PUSH1 0x0 DUP1 REVERT JUMPDEST POP PUSH2 0x336 PUSH1 0xC SLOAD DUP2 JUMP JUMPDEST CALLVALUE DUP1 ISZERO PUSH2 0x69D JUMPI PUSH1 0x0 DUP1 REVERT JUMPDEST POP PUSH2 0x2E2 PUSH2 0x6AC CALLDATASIZE PUSH1 0x4 PUSH2 0x1B4F JUMP JUMPDEST PUSH2 0x13D1 JUMP JUMPDEST CALLVALUE DUP1 ISZERO PUSH2 0x6BD JUMPI PUSH1 0x0 DUP1 REVERT JUMPDEST POP PUSH2 0x2BB PUSH2 0x6CC CALLDATASIZE PUSH1 0x4 PUSH2 0x1D73 JUMP JUMPDEST PUSH2 0x14E0 JUMP JUMPDEST CALLVALUE DUP1 ISZERO PUSH2 0x6DD JUMPI PUSH1 0x0 DUP1 REVERT JUMPDEST POP PUSH2 0x313 PUSH2 0x16C6 JUMP JUMPDEST CALLVALUE DUP1 ISZERO PUSH2 0x6F2 JUMPI PUSH1 0x0 DUP1 REVERT JUMPDEST POP PUSH2 0x336 PUSH1 0x46 DUP2 JUMP JUMPDEST CALLVALUE DUP1 ISZERO PUSH2 0x707 JUMPI PUSH1 0x0 DUP1 REVERT JUMPDEST POP PUSH2 0x336 PUSH1 0x11 SLOAD DUP2 JUMP JUMPDEST CALLVALUE DUP1 ISZERO PUSH2 0x71D JUMPI PUSH1 0x0 DUP1 REVERT JUMPDEST POP PUSH2 0x336 PUSH2 0x72C CALLDATASIZE PUSH1 0x4 PUSH2 0x1DA8 JUMP JUMPDEST PUSH1 0x1 PUSH1 0x1 PUSH1 0xA0 SHL SUB SWAP2 DUP3 AND PUSH1 0x0 SWAP1 DUP2 MSTORE PUSH1 0x1 PUSH1 0x20 SWAP1 DUP2 MSTORE PUSH1 0x40 DUP1 DUP4 KECCAK256 SWAP4 SWAP1 SWAP5 AND DUP3 MSTORE SWAP2 SWAP1 SWAP2 MSTORE KECCAK256 SLOAD SWAP1 JUMP JUMPDEST CALLVALUE DUP1 ISZERO PUSH2 0x763 JUMPI PUSH1 0x0 DUP1 REVERT JUMPDEST POP PUSH2 0x336 PUSH1 0xA DUP2 JUMP JUMPDEST CALLVALUE DUP1 ISZERO PUSH2 0x778 JUMPI PUSH1 0x0 DUP1 REVERT JUMPDEST POP PUSH2 0x2BB PUSH2 0x787 CALLDATASIZE PUSH1 0x4 PUSH2 0x1D58 JUMP JUMPDEST PUSH2 0x1754 JUMP JUMPDEST CALLVALUE DUP1 ISZERO PUSH2 0x798 JUMPI PUSH1 0x0 DUP1 REVERT JUMPDEST POP PUSH2 0x336 PUSH1 0xD SLOAD DUP2 JUMP JUMPDEST PUSH1 0x10 PUSH1 0x20 MSTORE PUSH1 0x0 SWAP1 DUP2 MSTORE PUSH1 0x40 SWAP1 KECCAK256 DUP1 SLOAD PUSH1 0x1 DUP3 ADD DUP1 SLOAD SWAP2 SWAP3 SWAP2 PUSH2 0x7C4 SWAP1 PUSH2 0x1DDB JUMP JUMPDEST DUP1 PUSH1 0x1F ADD PUSH1 0x20 DUP1 SWAP2 DIV MUL PUSH1 0x20 ADD PUSH1 0x40 MLOAD SWAP1 DUP2 ADD PUSH1 0x40 MSTORE DUP1 SWAP3 SWAP2 SWAP1 DUP2 DUP2 MSTORE PUSH1 0x20 ADD DUP3 DUP1 SLOAD PUSH2 0x7F0 SWAP1 PUSH2 0x1DDB JUMP JUMPDEST DUP1 ISZERO PUSH2 0x83D JUMPI DUP1 PUSH1 0x1F LT PUSH2 0x812 JUMPI PUSH2 0x100 DUP1 DUP4 SLOAD DIV MUL DUP4 MSTORE SWAP2 PUSH1 0x20 ADD SWAP2 PUSH2 0x83D JUMP JUMPDEST DUP3 ADD SWAP2 SWAP1 PUSH1 0x0 MSTORE PUSH1 0x20 PUSH1 0x0 KECCAK256 SWAP1 JUMPDEST DUP2 SLOAD DUP2 MSTORE SWAP1 PUSH1 0x1 ADD SWAP1 PUSH1 0x20 ADD DUP1 DUP4 GT PUSH2 0x820 JUMPI DUP3 SWAP1 SUB PUSH1 0x1F AND DUP3 ADD SWAP2 JUMPDEST POP POP POP POP PUSH1 0x2 DUP4 ADD SLOAD PUSH1 0x3 DUP5 ADD SLOAD PUSH1 0x4 DUP6 ADD SLOAD PUSH1 0x5 SWAP1 SWAP6 ADD SLOAD SWAP4 SWAP5 SWAP2 SWAP4 SWAP1 SWAP3 POP PUSH1 0xFF DUP1 DUP3 AND SWAP2 PUSH2 0x100 SWAP1 DIV AND DUP8 JUMP JUMPDEST PUSH1 0x60 PUSH1 0x3 DUP1 SLOAD PUSH2 0x87B SWAP1 PUSH2 0x1DDB JUMP JUMPDEST DUP1 PUSH1 0x1F ADD PUSH1 0x20 DUP1 SWAP2 DIV MUL PUSH1 0x20 ADD PUSH1 0x40 MLOAD SWAP1 DUP2 ADD PUSH1 0x40 MSTORE DUP1 SWAP3 SWAP2 SWAP1 DUP2 DUP2 MSTORE PUSH1 0x20 ADD DUP3 DUP1 SLOAD PUSH2 0x8A7 SWAP1 PUSH2 0x1DDB JUMP JUMPDEST DUP1 ISZERO PUSH2 0x8F4 JUMPI DUP1 PUSH1 0x1F LT PUSH2 0x8C9 JUMPI PUSH2 0x100 DUP1 DUP4 SLOAD DIV MUL DUP4 MSTORE SWAP2 PUSH1 0x20 ADD SWAP2 PUSH2 0x8F4 JUMP JUMPDEST DUP3 ADD SWAP2 SWAP1 PUSH1 0x0 MSTORE PUSH1 0x20 PUSH1 0x0 KECCAK256 SWAP1 JUMPDEST DUP2 SLOAD DUP2 MSTORE SWAP1 PUSH1 0x1 ADD SWAP1 PUSH1 0x20 ADD DUP1 DUP4 GT PUSH2 0x8D7 JUMPI DUP3 SWAP1 SUB PUSH1 0x1F AND DUP3 ADD SWAP2 JUMPDEST POP POP POP POP POP SWAP1 POP SWAP1 JUMP JUMPDEST PUSH1 0x0 CALLER PUSH2 0x90C DUP2 DUP6 DUP6 PUSH2 0x178F JUMP JUMPDEST PUSH1 0x1 SWAP2 POP POP JUMPDEST SWAP3 SWAP2 POP POP JUMP JUMPDEST PUSH1 0x0 DUP2 DUP2 MSTORE PUSH1 0x10 PUSH1 0x20 MSTORE PUSH1 0x40 DUP2 KECCAK256 DUP1 SLOAD SWAP1 SWAP2 SUB PUSH2 0x950 JUMPI PUSH1 0x40 MLOAD PUSH3 0x461BCD PUSH1 0xE5 SHL DUP2 MSTORE PUSH1 0x4 ADD PUSH2 0x947 SWAP1 PUSH2 0x1E15 JUMP JUMPDEST PUSH1 0x40 MLOAD DUP1 SWAP2 SUB SWAP1 REVERT JUMPDEST DUP1 PUSH1 0x4 ADD SLOAD TIMESTAMP LT ISZERO PUSH2 0x99A JUMPI PUSH1 0x40 MLOAD PUSH3 0x461BCD PUSH1 0xE5 SHL DUP2 MSTORE PUSH1 0x20 PUSH1 0x4 DUP3 ADD MSTORE PUSH1 0x13 PUSH1 0x24 DUP3 ADD MSTORE PUSH19 0x566F74696E67207374696C6C20616374697665 PUSH1 0x68 SHL PUSH1 0x44 DUP3 ADD MSTORE PUSH1 0x64 ADD PUSH2 0x947 JUMP JUMPDEST PUSH1 0x5 DUP2 ADD SLOAD PUSH1 0xFF AND ISZERO PUSH2 0x9E2 JUMPI PUSH1 0x40 MLOAD PUSH3 0x461BCD PUSH1 0xE5 SHL DUP2 MSTORE PUSH1 0x20 PUSH1 0x4 DUP3 ADD MSTORE PUSH1 0x10 PUSH1 0x24 DUP3 ADD MSTORE PUSH16 0x105B1C9958591E48195E1958DD5D1959 PUSH1 0x82 SHL PUSH1 0x44 DUP3 ADD MSTORE PUSH1 0x64 ADD PUSH2 0x947 JUMP JUMPDEST PUSH1 0x5 DUP2 ADD DUP1 SLOAD PUSH1 0xFF NOT AND PUSH1 0x1 OR SWAP1 DUP2 SWAP1 SSTORE PUSH1 0x0 SWAP1 PUSH2 0x100 SWAP1 DIV PUSH1 0xFF AND ISZERO DUP1 ISZERO PUSH2 0xA12 JUMPI POP DUP2 PUSH1 0x3 ADD SLOAD DUP3 PUSH1 0x2 ADD SLOAD GT JUMPDEST ISZERO PUSH2 0xA1B JUMPI POP PUSH1 0x1 JUMPDEST DUP3 PUSH32 0x948F4A9CD986F1118C3FBD459F7A22B23C0693E1CA3EF06A6A8BE5AA7D39CC03 DUP3 PUSH1 0x40 MLOAD PUSH2 0xA4F SWAP2 ISZERO ISZERO DUP2 MSTORE PUSH1 0x20 ADD SWAP1 JUMP JUMPDEST PUSH1 0x40 MLOAD DUP1 SWAP2 SUB SWAP1 LOG2 POP POP POP JUMP JUMPDEST PUSH1 0x0 CALLER PUSH2 0xA6A DUP6 DUP3 DUP6 PUSH2 0x17A1 JUMP JUMPDEST PUSH2 0xA75 DUP6 DUP6 DUP6 PUSH2 0x1820 JUMP JUMPDEST POP PUSH1 0x1 SWAP5 SWAP4 POP POP POP POP JUMP JUMPDEST PUSH1 0x0 CALLVALUE GT PUSH2 0xAD0 JUMPI PUSH1 0x40 MLOAD PUSH3 0x461BCD PUSH1 0xE5 SHL DUP2 MSTORE PUSH1 0x20 PUSH1 0x4 DUP3 ADD MSTORE PUSH1 0x18 PUSH1 0x24 DUP3 ADD MSTORE PUSH32 0x4E6F20726576656E756520746F20646973747269627574650000000000000000 PUSH1 0x44 DUP3 ADD MSTORE PUSH1 0x64 ADD PUSH2 0x947 JUMP JUMPDEST PUSH1 0x0 PUSH1 0xA SLOAD GT PUSH2 0xB17 JUMPI PUSH1 0x40 MLOAD PUSH3 0x461BCD PUSH1 0xE5 SHL DUP2 MSTORE PUSH1 0x20 PUSH1 0x4 DUP3 ADD MSTORE PUSH1 0x12 PUSH1 0x24 DUP3 ADD MSTORE PUSH18 0x139BC81D1BDAD95B9CC81CDBDB19081E595D PUSH1 0x72 SHL PUSH1 0x44 DUP3 ADD MSTORE PUSH1 0x64 ADD PUSH2 0x947 JUMP JUMPDEST PUSH1 0x0 PUSH1 0x64 PUSH2 0xB26 PUSH1 0xA CALLVALUE PUSH2 0x1E62 JUMP JUMPDEST PUSH2 0xB30 SWAP2 SWAP1 PUSH2 0x1E79 JUMP JUMPDEST SWAP1 POP PUSH1 0x0 PUSH2 0xB3E DUP3 CALLVALUE PUSH2 0x1E9B JUMP JUMPDEST SWAP1 POP CALLVALUE PUSH1 0xC PUSH1 0x0 DUP3 DUP3 SLOAD PUSH2 0xB52 SWAP2 SWAP1 PUSH2 0x1EAE JUMP JUMPDEST SWAP1 SWAP2 SSTORE POP POP PUSH1 0xA SLOAD PUSH2 0xB64 SWAP1 DUP4 PUSH2 0x1E79 JUMP JUMPDEST PUSH1 0xE PUSH1 0x0 DUP3 DUP3 SLOAD PUSH2 0xB75 SWAP2 SWAP1 PUSH2 0x1EAE JUMP JUMPDEST SWAP1 SWAP2 SSTORE POP POP PUSH1 0x8 SLOAD PUSH1 0x40 MLOAD PUSH1 0x1 PUSH1 0x1 PUSH1 0xA0 SHL SUB SWAP1 SWAP2 AND SWAP1 DUP3 ISZERO PUSH2 0x8FC MUL SWAP1 DUP4 SWAP1 PUSH1 0x0 DUP2 DUP2 DUP2 DUP6 DUP9 DUP9 CALL SWAP4 POP POP POP POP ISZERO DUP1 ISZERO PUSH2 0xBB4 JUMPI RETURNDATASIZE PUSH1 0x0 DUP1 RETURNDATACOPY RETURNDATASIZE PUSH1 0x0 REVERT JUMPDEST POP PUSH1 0x40 DUP1 MLOAD CALLVALUE DUP2 MSTORE PUSH1 0x20 DUP2 ADD DUP5 SWAP1 MSTORE SWAP1 DUP2 ADD DUP3 SWAP1 MSTORE PUSH32 0xDDFD8D7EA5F21BE6405A8756715202B83341BBF3E00AAE51160D97CB63AF27D8 SWAP1 PUSH1 0x60 ADD PUSH1 0x40 MLOAD DUP1 SWAP2 SUB SWAP1 LOG1 POP POP JUMP JUMPDEST PUSH2 0xC02 PUSH2 0x187F JUMP JUMPDEST PUSH1 0xB SLOAD PUSH1 0xFF AND PUSH2 0xC4C JUMPI PUSH1 0x40 MLOAD PUSH3 0x461BCD PUSH1 0xE5 SHL DUP2 MSTORE PUSH1 0x20 PUSH1 0x4 DUP3 ADD MSTORE PUSH1 0x15 PUSH1 0x24 DUP3 ADD MSTORE PUSH21 0x546F6B656E2073616C65206E6F7420616374697665 PUSH1 0x58 SHL PUSH1 0x44 DUP3 ADD MSTORE PUSH1 0x64 ADD PUSH2 0x947 JUMP JUMPDEST PUSH1 0x0 DUP2 GT PUSH2 0xC9C JUMPI PUSH1 0x40 MLOAD PUSH3 0x461BCD PUSH1 0xE5 SHL DUP2 MSTORE PUSH1 0x20 PUSH1 0x4 DUP3 ADD MSTORE PUSH1 0x17 PUSH1 0x24 DUP3 ADD MSTORE PUSH32 0x416D6F756E74206D75737420626520706F736974697665000000000000000000 PUSH1 0x44 DUP3 ADD MSTORE PUSH1 0x64 ADD PUSH2 0x947 JUMP JUMPDEST PUSH2 0x2710 DUP2 PUSH1 0xA SLOAD PUSH2 0xCAD SWAP2 SWAP1 PUSH2 0x1EAE JUMP JUMPDEST GT ISZERO PUSH2 0xCF0 JUMPI PUSH1 0x40 MLOAD PUSH3 0x461BCD PUSH1 0xE5 SHL DUP2 MSTORE PUSH1 0x20 PUSH1 0x4 DUP3 ADD MSTORE PUSH1 0x12 PUSH1 0x24 DUP3 ADD MSTORE PUSH18 0x45786365656473206D617820737570706C79 PUSH1 0x70 SHL PUSH1 0x44 DUP3 ADD MSTORE PUSH1 0x64 ADD PUSH2 0x947 JUMP JUMPDEST PUSH1 0x0 PUSH1 0x9 SLOAD DUP3 PUSH2 0xD00 SWAP2 SWAP1 PUSH2 0x1E62 JUMP JUMPDEST SWAP1 POP DUP1 CALLVALUE LT ISZERO PUSH2 0xD49 JUMPI PUSH1 0x40 MLOAD PUSH3 0x461BCD PUSH1 0xE5 SHL DUP2 MSTORE PUSH1 0x20 PUSH1 0x4 DUP3 ADD MSTORE PUSH1 0x14 PUSH1 0x24 DUP3 ADD MSTORE PUSH20 0x125B9CDD59999A58DA595B9D081C185E5B595B9D PUSH1 0x62 SHL PUSH1 0x44 DUP3 ADD MSTORE PUSH1 0x64 ADD PUSH2 0x947 JUMP JUMPDEST DUP1 CALLVALUE GT ISZERO PUSH2 0xD89 JUMPI CALLER PUSH2 0x8FC PUSH2 0xD5F DUP4 CALLVALUE PUSH2 0x1E9B JUMP JUMPDEST PUSH1 0x40 MLOAD DUP2 ISZERO SWAP1 SWAP3 MUL SWAP2 PUSH1 0x0 DUP2 DUP2 DUP2 DUP6 DUP9 DUP9 CALL SWAP4 POP POP POP POP ISZERO DUP1 ISZERO PUSH2 0xD87 JUMPI RETURNDATASIZE PUSH1 0x0 DUP1 RETURNDATACOPY RETURNDATASIZE PUSH1 0x0 REVERT JUMPDEST POP JUMPDEST DUP2 PUSH1 0xA PUSH1 0x0 DUP3 DUP3 SLOAD PUSH2 0xD9B SWAP2 SWAP1 PUSH2 0x1EAE JUMP JUMPDEST SWAP1 SWAP2 SSTORE POP POP PUSH1 0xE SLOAD CALLER PUSH1 0x0 DUP2 DUP2 MSTORE PUSH1 0xF PUSH1 0x20 MSTORE PUSH1 0x40 SWAP1 KECCAK256 SWAP2 SWAP1 SWAP2 SSTORE PUSH2 0xDD5 SWAP1 PUSH2 0xDC6 PUSH1 0x12 PUSH1 0xA PUSH2 0x1FA5 JUMP JUMPDEST PUSH2 0xDD0 SWAP1 DUP6 PUSH2 0x1E62 JUMP JUMPDEST PUSH2 0x18A9 JUMP JUMPDEST PUSH1 0x40 DUP1 MLOAD DUP4 DUP2 MSTORE PUSH1 0x20 DUP2 ADD DUP4 SWAP1 MSTORE CALLER SWAP2 PUSH32 0x8FAFEBCAF9D154343DAD25669BFA277F4FBACD7AC6B0C4FED522580E040A0F33 SWAP2 ADD PUSH1 0x40 MLOAD DUP1 SWAP2 SUB SWAP1 LOG2 POP PUSH2 0xE1B PUSH1 0x1 PUSH1 0x6 SSTORE JUMP JUMPDEST POP JUMP JUMPDEST PUSH2 0xE26 PUSH2 0x18DF JUMP JUMPDEST PUSH1 0xB DUP1 SLOAD PUSH1 0xFF NOT AND SWAP1 SSTORE JUMP JUMPDEST PUSH1 0x0 DUP1 PUSH2 0xE3E CALLER PUSH2 0x12D9 JUMP JUMPDEST GT PUSH2 0xE8B JUMPI PUSH1 0x40 MLOAD PUSH3 0x461BCD PUSH1 0xE5 SHL DUP2 MSTORE PUSH1 0x20 PUSH1 0x4 DUP3 ADD MSTORE PUSH1 0x1A PUSH1 0x24 DUP3 ADD MSTORE PUSH32 0x4D757374206F776E20746F6B656E7320746F2070726F706F7365000000000000 PUSH1 0x44 DUP3 ADD MSTORE PUSH1 0x64 ADD PUSH2 0x947 JUMP JUMPDEST PUSH1 0x0 DUP3 MLOAD GT PUSH2 0xED3 JUMPI PUSH1 0x40 MLOAD PUSH3 0x461BCD PUSH1 0xE5 SHL DUP2 MSTORE PUSH1 0x20 PUSH1 0x4 DUP3 ADD MSTORE PUSH1 0x14 PUSH1 0x24 DUP3 ADD MSTORE PUSH20 0x11195CD8DC9A5C1D1A5BDB881C995C5D5A5C9959 PUSH1 0x62 SHL PUSH1 0x44 DUP3 ADD MSTORE PUSH1 0x64 ADD PUSH2 0x947 JUMP JUMPDEST PUSH1 0x11 DUP1 SLOAD SWAP1 PUSH1 0x0 PUSH2 0xEE3 DUP4 PUSH2 0x1FB4 JUMP JUMPDEST SWAP1 SWAP2 SSTORE POP POP PUSH1 0x11 SLOAD PUSH1 0x0 DUP2 DUP2 MSTORE PUSH1 0x10 PUSH1 0x20 MSTORE PUSH1 0x40 SWAP1 KECCAK256 SWAP1 DUP2 SSTORE PUSH1 0x1 DUP2 ADD PUSH2 0xF0A DUP5 DUP3 PUSH2 0x201D JUMP JUMPDEST POP PUSH2 0xF18 TIMESTAMP PUSH3 0x93A80 PUSH2 0x1EAE JUMP JUMPDEST PUSH1 0x4 DUP3 ADD SSTORE PUSH1 0x5 DUP2 ADD DUP1 SLOAD PUSH2 0xFFFF NOT AND SWAP1 SSTORE PUSH1 0x11 SLOAD PUSH1 0x40 MLOAD PUSH32 0x9C770C289AB5BF7E57CB1D23C8CEAE993AEA46EB64847072FD3D78CA60D3E432 SWAP1 PUSH2 0xF5D SWAP1 DUP7 SWAP1 PUSH2 0x1BF5 JUMP JUMPDEST PUSH1 0x40 MLOAD DUP1 SWAP2 SUB SWAP1 LOG2 POP POP PUSH1 0x11 SLOAD SWAP2 SWAP1 POP JUMP JUMPDEST PUSH1 0x8 SLOAD PUSH1 0x1 PUSH1 0x1 PUSH1 0xA0 SHL SUB AND CALLER EQ DUP1 PUSH2 0xF92 JUMPI POP PUSH1 0x5 SLOAD PUSH1 0x1 PUSH1 0x1 PUSH1 0xA0 SHL SUB AND CALLER EQ JUMPDEST PUSH2 0xFD3 JUMPI PUSH1 0x40 MLOAD PUSH3 0x461BCD PUSH1 0xE5 SHL DUP2 MSTORE PUSH1 0x20 PUSH1 0x4 DUP3 ADD MSTORE PUSH1 0x12 PUSH1 0x24 DUP3 ADD MSTORE PUSH18 0x4F6E6C7920636C75622063616E207665746F PUSH1 0x70 SHL PUSH1 0x44 DUP3 ADD MSTORE PUSH1 0x64 ADD PUSH2 0x947 JUMP JUMPDEST PUSH1 0x0 DUP2 DUP2 MSTORE PUSH1 0x10 PUSH1 0x20 MSTORE PUSH1 0x40 DUP2 KECCAK256 DUP1 SLOAD SWAP1 SWAP2 SUB PUSH2 0x1002 JUMPI PUSH1 0x40 MLOAD PUSH3 0x461BCD PUSH1 0xE5 SHL DUP2 MSTORE PUSH1 0x4 ADD PUSH2 0x947 SWAP1 PUSH2 0x1E15 JUMP JUMPDEST PUSH1 0x5 DUP2 ADD SLOAD PUSH1 0xFF AND ISZERO PUSH2 0x104A JUMPI PUSH1 0x40 MLOAD PUSH3 0x461BCD PUSH1 0xE5 SHL DUP2 MSTORE PUSH1 0x20 PUSH1 0x4 DUP3 ADD MSTORE PUSH1 0x10 PUSH1 0x24 DUP3 ADD MSTORE PUSH16 0x105B1C9958591E48195E1958DD5D1959 PUSH1 0x82 SHL PUSH1 0x44 DUP3 ADD MSTORE PUSH1 0x64 ADD PUSH2 0x947 JUMP JUMPDEST PUSH1 0x5 DUP2 ADD SLOAD PUSH2 0x100 SWAP1 DIV PUSH1 0xFF AND ISZERO PUSH2 0x1095 JUMPI PUSH1 0x40 MLOAD PUSH3 0x461BCD PUSH1 0xE5 SHL DUP2 MSTORE PUSH1 0x20 PUSH1 0x4 DUP3 ADD MSTORE PUSH1 0xE PUSH1 0x24 DUP3 ADD MSTORE PUSH14 0x105B1C9958591E481D995D1BD959 PUSH1 0x92 SHL PUSH1 0x44 DUP3 ADD MSTORE PUSH1 0x64 ADD PUSH2 0x947 JUMP JUMPDEST PUSH1 0x5 DUP2 ADD DUP1 SLOAD PUSH2 0xFF00 NOT AND PUSH2 0x100 OR SWAP1 SSTORE PUSH1 0x40 MLOAD DUP3 SWAP1 PUSH32 0x3097D6D8FCB2E68F4B51850C3CF610483237849D859BCD87D89E11A11BEF88F0 SWAP1 PUSH1 0x0 SWAP1 LOG2 POP POP JUMP JUMPDEST PUSH1 0x0 PUSH2 0x10E0 DUP3 PUSH2 0x12D9 JUMP JUMPDEST PUSH1 0x0 SUB PUSH2 0x10EF JUMPI POP PUSH1 0x0 SWAP2 SWAP1 POP JUMP JUMPDEST PUSH1 0x0 PUSH2 0x10FD PUSH1 0x12 PUSH1 0xA PUSH2 0x1FA5 JUMP JUMPDEST PUSH2 0x1106 DUP5 PUSH2 0x12D9 JUMP JUMPDEST PUSH2 0x1110 SWAP2 SWAP1 PUSH2 0x1E79 JUMP JUMPDEST PUSH1 0x1 PUSH1 0x1 PUSH1 0xA0 SHL SUB DUP5 AND PUSH1 0x0 SWAP1 DUP2 MSTORE PUSH1 0xF PUSH1 0x20 MSTORE PUSH1 0x40 DUP2 KECCAK256 SLOAD PUSH1 0xE SLOAD SWAP3 SWAP4 POP SWAP1 SWAP2 PUSH2 0x113B SWAP2 SWAP1 PUSH2 0x1E9B JUMP JUMPDEST SWAP1 POP PUSH2 0x1147 DUP2 DUP4 PUSH2 0x1E62 JUMP JUMPDEST SWAP5 SWAP4 POP POP POP POP JUMP JUMPDEST PUSH2 0x1157 PUSH2 0x187F JUMP JUMPDEST PUSH1 0x0 PUSH2 0x1162 CALLER PUSH2 0x12D9 JUMP JUMPDEST GT PUSH2 0x11A1 JUMPI PUSH1 0x40 MLOAD PUSH3 0x461BCD PUSH1 0xE5 SHL DUP2 MSTORE PUSH1 0x20 PUSH1 0x4 DUP3 ADD MSTORE PUSH1 0xF PUSH1 0x24 DUP3 ADD MSTORE PUSH15 0x139BC81D1BDAD95B9CC81BDDDB9959 PUSH1 0x8A SHL PUSH1 0x44 DUP3 ADD MSTORE PUSH1 0x64 ADD PUSH2 0x947 JUMP JUMPDEST PUSH1 0x0 PUSH2 0x11AF PUSH1 0x12 PUSH1 0xA PUSH2 0x1FA5 JUMP JUMPDEST PUSH2 0x11B8 CALLER PUSH2 0x12D9 JUMP JUMPDEST PUSH2 0x11C2 SWAP2 SWAP1 PUSH2 0x1E79 JUMP JUMPDEST CALLER PUSH1 0x0 SWAP1 DUP2 MSTORE PUSH1 0xF PUSH1 0x20 MSTORE PUSH1 0x40 DUP2 KECCAK256 SLOAD PUSH1 0xE SLOAD SWAP3 SWAP4 POP SWAP1 SWAP2 PUSH2 0x11E4 SWAP2 SWAP1 PUSH2 0x1E9B JUMP JUMPDEST SWAP1 POP PUSH1 0x0 PUSH2 0x11F2 DUP3 DUP5 PUSH2 0x1E62 JUMP JUMPDEST SWAP1 POP PUSH1 0x0 DUP2 GT PUSH2 0x123A JUMPI PUSH1 0x40 MLOAD PUSH3 0x461BCD PUSH1 0xE5 SHL DUP2 MSTORE PUSH1 0x20 PUSH1 0x4 DUP3 ADD MSTORE PUSH1 0x13 PUSH1 0x24 DUP3 ADD MSTORE PUSH19 0x4E6F20726576656E756520746F20636C61696D PUSH1 0x68 SHL PUSH1 0x44 DUP3 ADD MSTORE PUSH1 0x64 ADD PUSH2 0x947 JUMP JUMPDEST PUSH1 0xE SLOAD CALLER PUSH1 0x0 SWAP1 DUP2 MSTORE PUSH1 0xF PUSH1 0x20 MSTORE PUSH1 0x40 DUP2 KECCAK256 SWAP2 SWAP1 SWAP2 SSTORE PUSH1 0xD DUP1 SLOAD DUP4 SWAP3 SWAP1 PUSH2 0x1262 SWAP1 DUP5 SWAP1 PUSH2 0x1EAE JUMP JUMPDEST SWAP1 SWAP2 SSTORE POP POP PUSH1 0x40 MLOAD CALLER SWAP1 DUP3 ISZERO PUSH2 0x8FC MUL SWAP1 DUP4 SWAP1 PUSH1 0x0 DUP2 DUP2 DUP2 DUP6 DUP9 DUP9 CALL SWAP4 POP POP POP POP ISZERO DUP1 ISZERO PUSH2 0x1294 JUMPI RETURNDATASIZE PUSH1 0x0 DUP1 RETURNDATACOPY RETURNDATASIZE PUSH1 0x0 REVERT JUMPDEST POP PUSH1 0x40 MLOAD DUP2 DUP2 MSTORE CALLER SWAP1 PUSH32 0x8E51A2933BDDE470A0798C1443F43F4C2B08A960250CCB8AF00B095AA1EABFDF SWAP1 PUSH1 0x20 ADD PUSH1 0x40 MLOAD DUP1 SWAP2 SUB SWAP1 LOG2 POP POP POP PUSH2 0x12D7 PUSH1 0x1 PUSH1 0x6 SSTORE JUMP JUMPDEST JUMP JUMPDEST PUSH1 0x1 PUSH1 0x1 PUSH1 0xA0 SHL SUB AND PUSH1 0x0 SWAP1 DUP2 MSTORE PUSH1 0x20 DUP2 SWAP1 MSTORE PUSH1 0x40 SWAP1 KECCAK256 SLOAD SWAP1 JUMP JUMPDEST PUSH2 0x12FC PUSH2 0x18DF JUMP JUMPDEST PUSH2 0x12D7 PUSH1 0x0 PUSH2 0x190C JUMP JUMPDEST PUSH2 0x130E PUSH2 0x18DF JUMP JUMPDEST PUSH1 0x9 SSTORE JUMP JUMPDEST PUSH1 0x60 PUSH1 0x4 DUP1 SLOAD PUSH2 0x87B SWAP1 PUSH2 0x1DDB JUMP JUMPDEST PUSH1 0x0 CALLER PUSH2 0x90C DUP2 DUP6 DUP6 PUSH2 0x1820 JUMP JUMPDEST PUSH2 0x1338 PUSH2 0x18DF JUMP JUMPDEST PUSH1 0x0 PUSH1 0x9 SLOAD PUSH1 0xA SLOAD PUSH2 0x134A SWAP2 SWAP1 PUSH2 0x1E62 JUMP JUMPDEST SWAP1 POP DUP1 SELFBALANCE LT ISZERO PUSH2 0x1393 JUMPI PUSH1 0x40 MLOAD PUSH3 0x461BCD PUSH1 0xE5 SHL DUP2 MSTORE PUSH1 0x20 PUSH1 0x4 DUP3 ADD MSTORE PUSH1 0x14 PUSH1 0x24 DUP3 ADD MSTORE PUSH20 0x496E73756666696369656E742062616C616E6365 PUSH1 0x60 SHL PUSH1 0x44 DUP3 ADD MSTORE PUSH1 0x64 ADD PUSH2 0x947 JUMP JUMPDEST PUSH1 0x5 SLOAD PUSH1 0x40 MLOAD PUSH1 0x1 PUSH1 0x1 PUSH1 0xA0 SHL SUB SWAP1 SWAP2 AND SWAP1 DUP3 ISZERO PUSH2 0x8FC MUL SWAP1 DUP4 SWAP1 PUSH1 0x0 DUP2 DUP2 DUP2 DUP6 DUP9 DUP9 CALL SWAP4 POP POP POP POP ISZERO DUP1 ISZERO PUSH2 0x13CD JUMPI RETURNDATASIZE PUSH1 0x0 DUP1 RETURNDATACOPY RETURNDATASIZE PUSH1 0x0 REVERT JUMPDEST POP POP JUMP JUMPDEST PUSH1 0x0 DUP2 DUP2 MSTORE PUSH1 0x10 PUSH1 0x20 MSTORE PUSH1 0x40 DUP2 KECCAK256 DUP1 SLOAD PUSH1 0x60 SWAP2 DUP4 SWAP2 DUP3 SWAP2 DUP3 SWAP2 DUP3 SWAP2 DUP3 SWAP2 DUP3 SUB PUSH2 0x140C JUMPI PUSH1 0x40 MLOAD PUSH3 0x461BCD PUSH1 0xE5 SHL DUP2 MSTORE PUSH1 0x4 ADD PUSH2 0x947 SWAP1 PUSH2 0x1E15 JUMP JUMPDEST DUP1 SLOAD PUSH1 0x2 DUP3 ADD SLOAD PUSH1 0x3 DUP4 ADD SLOAD PUSH1 0x4 DUP5 ADD SLOAD PUSH1 0x5 DUP6 ADD SLOAD PUSH1 0x1 DUP7 ADD DUP1 SLOAD SWAP1 SWAP5 SWAP4 SWAP3 SWAP2 PUSH1 0xFF DUP1 DUP3 AND SWAP3 PUSH2 0x100 SWAP1 SWAP3 DIV AND SWAP1 DUP7 SWAP1 PUSH2 0x1446 SWAP1 PUSH2 0x1DDB JUMP JUMPDEST DUP1 PUSH1 0x1F ADD PUSH1 0x20 DUP1 SWAP2 DIV MUL PUSH1 0x20 ADD PUSH1 0x40 MLOAD SWAP1 DUP2 ADD PUSH1 0x40 MSTORE DUP1 SWAP3 SWAP2 SWAP1 DUP2 DUP2 MSTORE PUSH1 0x20 ADD DUP3 DUP1 SLOAD PUSH2 0x1472 SWAP1 PUSH2 0x1DDB JUMP JUMPDEST DUP1 ISZERO PUSH2 0x14BF JUMPI DUP1 PUSH1 0x1F LT PUSH2 0x1494 JUMPI PUSH2 0x100 DUP1 DUP4 SLOAD DIV MUL DUP4 MSTORE SWAP2 PUSH1 0x20 ADD SWAP2 PUSH2 0x14BF JUMP JUMPDEST DUP3 ADD SWAP2 SWAP1 PUSH1 0x0 MSTORE PUSH1 0x20 PUSH1 0x0 KECCAK256 SWAP1 JUMPDEST DUP2 SLOAD DUP2 MSTORE SWAP1 PUSH1 0x1 ADD SWAP1 PUSH1 0x20 ADD DUP1 DUP4 GT PUSH2 0x14A2 JUMPI DUP3 SWAP1 SUB PUSH1 0x1F AND DUP3 ADD SWAP2 JUMPDEST POP POP POP POP POP SWAP6 POP SWAP8 POP SWAP8 POP SWAP8 POP SWAP8 POP SWAP8 POP SWAP8 POP SWAP8 POP POP SWAP2 SWAP4 SWAP6 SWAP8 SWAP1 SWAP3 SWAP5 SWAP7 POP JUMP JUMPDEST PUSH1 0x0 DUP3 DUP2 MSTORE PUSH1 0x10 PUSH1 0x20 MSTORE PUSH1 0x40 DUP2 KECCAK256 DUP1 SLOAD SWAP1 SWAP2 SUB PUSH2 0x150F JUMPI PUSH1 0x40 MLOAD PUSH3 0x461BCD PUSH1 0xE5 SHL DUP2 MSTORE PUSH1 0x4 ADD PUSH2 0x947 SWAP1 PUSH2 0x1E15 JUMP JUMPDEST DUP1 PUSH1 0x4 ADD SLOAD TIMESTAMP LT PUSH2 0x1558 JUMPI PUSH1 0x40 MLOAD PUSH3 0x461BCD PUSH1 0xE5 SHL DUP2 MSTORE PUSH1 0x20 PUSH1 0x4 DUP3 ADD MSTORE PUSH1 0x13 PUSH1 0x24 DUP3 ADD MSTORE PUSH19 0x159BDD1A5B99C81C195C9A5BD908195B991959 PUSH1 0x6A SHL PUSH1 0x44 DUP3 ADD MSTORE PUSH1 0x64 ADD PUSH2 0x947 JUMP JUMPDEST CALLER PUSH1 0x0 SWAP1 DUP2 MSTORE PUSH1 0x6 DUP3 ADD PUSH1 0x20 MSTORE PUSH1 0x40 SWAP1 KECCAK256 SLOAD PUSH1 0xFF AND ISZERO PUSH2 0x15AA JUMPI PUSH1 0x40 MLOAD PUSH3 0x461BCD PUSH1 0xE5 SHL DUP2 MSTORE PUSH1 0x20 PUSH1 0x4 DUP3 ADD MSTORE PUSH1 0xD PUSH1 0x24 DUP3 ADD MSTORE PUSH13 0x105B1C9958591E481D9BDD1959 PUSH1 0x9A SHL PUSH1 0x44 DUP3 ADD MSTORE PUSH1 0x64 ADD PUSH2 0x947 JUMP JUMPDEST PUSH1 0x0 PUSH2 0x15B5 CALLER PUSH2 0x12D9 JUMP JUMPDEST GT PUSH2 0x1602 JUMPI PUSH1 0x40 MLOAD PUSH3 0x461BCD PUSH1 0xE5 SHL DUP2 MSTORE PUSH1 0x20 PUSH1 0x4 DUP3 ADD MSTORE PUSH1 0x17 PUSH1 0x24 DUP3 ADD MSTORE PUSH32 0x4D757374206F776E20746F6B656E7320746F20766F7465000000000000000000 PUSH1 0x44 DUP3 ADD MSTORE PUSH1 0x64 ADD PUSH2 0x947 JUMP JUMPDEST PUSH1 0x0 PUSH2 0x1610 PUSH1 0x12 PUSH1 0xA PUSH2 0x1FA5 JUMP JUMPDEST PUSH2 0x1619 CALLER PUSH2 0x12D9 JUMP JUMPDEST PUSH2 0x1623 SWAP2 SWAP1 PUSH2 0x1E79 JUMP JUMPDEST CALLER PUSH1 0x0 SWAP1 DUP2 MSTORE PUSH1 0x6 DUP5 ADD PUSH1 0x20 MSTORE PUSH1 0x40 SWAP1 KECCAK256 DUP1 SLOAD PUSH1 0xFF NOT AND PUSH1 0x1 OR SWAP1 SSTORE SWAP1 POP DUP3 ISZERO PUSH2 0x1666 JUMPI DUP1 DUP3 PUSH1 0x2 ADD PUSH1 0x0 DUP3 DUP3 SLOAD PUSH2 0x165B SWAP2 SWAP1 PUSH2 0x1EAE JUMP JUMPDEST SWAP1 SWAP2 SSTORE POP PUSH2 0x1680 SWAP1 POP JUMP JUMPDEST DUP1 DUP3 PUSH1 0x3 ADD PUSH1 0x0 DUP3 DUP3 SLOAD PUSH2 0x167A SWAP2 SWAP1 PUSH2 0x1EAE JUMP JUMPDEST SWAP1 SWAP2 SSTORE POP POP JUMPDEST PUSH1 0x40 DUP1 MLOAD DUP5 ISZERO ISZERO DUP2 MSTORE PUSH1 0x20 DUP2 ADD DUP4 SWAP1 MSTORE CALLER SWAP2 DUP7 SWAP2 PUSH32 0xCBDF6214089CBA887ECBF35A0B6A734589959C9763342C756BB2A80CA2BC9F6E SWAP2 ADD JUMPDEST PUSH1 0x40 MLOAD DUP1 SWAP2 SUB SWAP1 LOG3 POP POP POP POP JUMP JUMPDEST PUSH1 0x7 DUP1 SLOAD PUSH2 0x16D3 SWAP1 PUSH2 0x1DDB JUMP JUMPDEST DUP1 PUSH1 0x1F ADD PUSH1 0x20 DUP1 SWAP2 DIV MUL PUSH1 0x20 ADD PUSH1 0x40 MLOAD SWAP1 DUP2 ADD PUSH1 0x40 MSTORE DUP1 SWAP3 SWAP2 SWAP1 DUP2 DUP2 MSTORE PUSH1 0x20 ADD DUP3 DUP1 SLOAD PUSH2 0x16FF SWAP1 PUSH2 0x1DDB JUMP JUMPDEST DUP1 ISZERO PUSH2 0x174C JUMPI DUP1 PUSH1 0x1F LT PUSH2 0x1721 JUMPI PUSH2 0x100 DUP1 DUP4 SLOAD DIV MUL DUP4 MSTORE SWAP2 PUSH1 0x20 ADD SWAP2 PUSH2 0x174C JUMP JUMPDEST DUP3 ADD SWAP2 SWAP1 PUSH1 0x0 MSTORE PUSH1 0x20 PUSH1 0x0 KECCAK256 SWAP1 JUMPDEST DUP2 SLOAD DUP2 MSTORE SWAP1 PUSH1 0x1 ADD SWAP1 PUSH1 0x20 ADD DUP1 DUP4 GT PUSH2 0x172F JUMPI DUP3 SWAP1 SUB PUSH1 0x1F AND DUP3 ADD SWAP2 JUMPDEST POP POP POP POP POP DUP2 JUMP JUMPDEST PUSH2 0x175C PUSH2 0x18DF JUMP JUMPDEST PUSH1 0x1 PUSH1 0x1 PUSH1 0xA0 SHL SUB DUP2 AND PUSH2 0x1786 JUMPI PUSH1 0x40 MLOAD PUSH4 0x1E4FBDF7 PUSH1 0xE0 SHL DUP2 MSTORE PUSH1 0x0 PUSH1 0x4 DUP3 ADD MSTORE PUSH1 0x24 ADD PUSH2 0x947 JUMP JUMPDEST PUSH2 0xE1B DUP2 PUSH2 0x190C JUMP JUMPDEST PUSH2 0x179C DUP4 DUP4 DUP4 PUSH1 0x1 PUSH2 0x195E JUMP JUMPDEST POP POP POP JUMP JUMPDEST PUSH1 0x1 PUSH1 0x1 PUSH1 0xA0 SHL SUB DUP4 DUP2 AND PUSH1 0x0 SWAP1 DUP2 MSTORE PUSH1 0x1 PUSH1 0x20 SWAP1 DUP2 MSTORE PUSH1 0x40 DUP1 DUP4 KECCAK256 SWAP4 DUP7 AND DUP4 MSTORE SWAP3 SWAP1 MSTORE KECCAK256 SLOAD PUSH1 0x0 NOT DUP2 LT ISZERO PUSH2 0x181A JUMPI DUP2 DUP2 LT ISZERO PUSH2 0x180B JUMPI PUSH1 0x40 MLOAD PUSH4 0x7DC7A0D9 PUSH1 0xE1 SHL DUP2 MSTORE PUSH1 0x1 PUSH1 0x1 PUSH1 0xA0 SHL SUB DUP5 AND PUSH1 0x4 DUP3 ADD MSTORE PUSH1 0x24 DUP2 ADD DUP3 SWAP1 MSTORE PUSH1 0x44 DUP2 ADD DUP4 SWAP1 MSTORE PUSH1 0x64 ADD PUSH2 0x947 JUMP JUMPDEST PUSH2 0x181A DUP5 DUP5 DUP5 DUP5 SUB PUSH1 0x0 PUSH2 0x195E JUMP JUMPDEST POP POP POP POP JUMP JUMPDEST PUSH1 0x1 PUSH1 0x1 PUSH1 0xA0 SHL SUB DUP4 AND PUSH2 0x184A JUMPI PUSH1 0x40 MLOAD PUSH4 0x4B637E8F PUSH1 0xE1 SHL DUP2 MSTORE PUSH1 0x0 PUSH1 0x4 DUP3 ADD MSTORE PUSH1 0x24 ADD PUSH2 0x947 JUMP JUMPDEST PUSH1 0x1 PUSH1 0x1 PUSH1 0xA0 SHL SUB DUP3 AND PUSH2 0x1874 JUMPI PUSH1 0x40 MLOAD PUSH4 0xEC442F05 PUSH1 0xE0 SHL DUP2 MSTORE PUSH1 0x0 PUSH1 0x4 DUP3 ADD MSTORE PUSH1 0x24 ADD PUSH2 0x947 JUMP JUMPDEST PUSH2 0x179C DUP4 DUP4 DUP4 PUSH2 0x1A25 JUMP JUMPDEST PUSH1 0x2 PUSH1 0x6 SLOAD SUB PUSH2 0x18A2 JUMPI PUSH1 0x40 MLOAD PUSH4 0x3EE5AEB5 PUSH1 0xE0 SHL DUP2 MSTORE PUSH1 0x4 ADD PUSH1 0x40 MLOAD DUP1 SWAP2 SUB SWAP1 REVERT JUMPDEST PUSH1 0x2 PUSH1 0x6 SSTORE JUMP JUMPDEST PUSH1 0x1 PUSH1 0x1 PUSH1 0xA0 SHL SUB DUP3 AND PUSH2 0x18D3 JUMPI PUSH1 0x40 MLOAD PUSH4 0xEC442F05 PUSH1 0xE0 SHL DUP2 MSTORE PUSH1 0x0 PUSH1 0x4 DUP3 ADD MSTORE PUSH1 0x24 ADD PUSH2 0x947 JUMP JUMPDEST PUSH2 0x13CD PUSH1 0x0 DUP4 DUP4 PUSH2 0x1A25 JUMP JUMPDEST PUSH1 0x5 SLOAD PUSH1 0x1 PUSH1 0x1 PUSH1 0xA0 SHL SUB AND CALLER EQ PUSH2 0x12D7 JUMPI PUSH1 0x40 MLOAD PUSH4 0x118CDAA7 PUSH1 0xE0 SHL DUP2 MSTORE CALLER PUSH1 0x4 DUP3 ADD MSTORE PUSH1 0x24 ADD PUSH2 0x947 JUMP JUMPDEST PUSH1 0x5 DUP1 SLOAD PUSH1 0x1 PUSH1 0x1 PUSH1 0xA0 SHL SUB DUP4 DUP2 AND PUSH1 0x1 PUSH1 0x1 PUSH1 0xA0 SHL SUB NOT DUP4 AND DUP2 OR SWAP1 SWAP4 SSTORE PUSH1 0x40 MLOAD SWAP2 AND SWAP2 SWAP1 DUP3 SWAP1 PUSH32 0x8BE0079C531659141344CD1FD0A4F28419497F9722A3DAAFE3B4186F6B6457E0 SWAP1 PUSH1 0x0 SWAP1 LOG3 POP POP JUMP JUMPDEST PUSH1 0x1 PUSH1 0x1 PUSH1 0xA0 SHL SUB DUP5 AND PUSH2 0x1988 JUMPI PUSH1 0x40 MLOAD PUSH4 0xE602DF05 PUSH1 0xE0 SHL DUP2 MSTORE PUSH1 0x0 PUSH1 0x4 DUP3 ADD MSTORE PUSH1 0x24 ADD PUSH2 0x947 JUMP JUMPDEST PUSH1 0x1 PUSH1 0x1 PUSH1 0xA0 SHL SUB DUP4 AND PUSH2 0x19B2 JUMPI PUSH1 0x40 MLOAD PUSH4 0x4A1406B1 PUSH1 0xE1 SHL DUP2 MSTORE PUSH1 0x0 PUSH1 0x4 DUP3 ADD MSTORE PUSH1 0x24 ADD PUSH2 0x947 JUMP JUMPDEST PUSH1 0x1 PUSH1 0x1 PUSH1 0xA0 SHL SUB DUP1 DUP6 AND PUSH1 0x0 SWAP1 DUP2 MSTORE PUSH1 0x1 PUSH1 0x20 SWAP1 DUP2 MSTORE PUSH1 0x40 DUP1 DUP4 KECCAK256 SWAP4 DUP8 AND DUP4 MSTORE SWAP3 SWAP1 MSTORE KECCAK256 DUP3 SWAP1 SSTORE DUP1 ISZERO PUSH2 0x181A JUMPI DUP3 PUSH1 0x1 PUSH1 0x1 PUSH1 0xA0 SHL SUB AND DUP5 PUSH1 0x1 PUSH1 0x1 PUSH1 0xA0 SHL SUB AND PUSH32 0x8C5BE1E5EBEC7D5BD14F71427D1E84F3DD0314C0F7B2291E5B200AC8C7C3B925 DUP5 PUSH1 0x40 MLOAD PUSH2 0x16B8 SWAP2 DUP2 MSTORE PUSH1 0x20 ADD SWAP1 JUMP JUMPDEST PUSH1 0x1 PUSH1 0x1 PUSH1 0xA0 SHL SUB DUP4 AND PUSH2 0x1A50 JUMPI DUP1 PUSH1 0x2 PUSH1 0x0 DUP3 DUP3 SLOAD PUSH2 0x1A45 SWAP2 SWAP1 PUSH2 0x1EAE JUMP JUMPDEST SWAP1 SWAP2 SSTORE POP PUSH2 0x1AC2 SWAP1 POP JUMP JUMPDEST PUSH1 0x1 PUSH1 0x1 PUSH1 0xA0 SHL SUB DUP4 AND PUSH1 0x0 SWAP1 DUP2 MSTORE PUSH1 0x20 DUP2 SWAP1 MSTORE PUSH1 0x40 SWAP1 KECCAK256 SLOAD DUP2 DUP2 LT ISZERO PUSH2 0x1AA3 JUMPI PUSH1 0x40 MLOAD PUSH4 0x391434E3 PUSH1 0xE2 SHL DUP2 MSTORE PUSH1 0x1 PUSH1 0x1 PUSH1 0xA0 SHL SUB DUP6 AND PUSH1 0x4 DUP3 ADD MSTORE PUSH1 0x24 DUP2 ADD DUP3 SWAP1 MSTORE PUSH1 0x44 DUP2 ADD DUP4 SWAP1 MSTORE PUSH1 0x64 ADD PUSH2 0x947 JUMP JUMPDEST PUSH1 0x1 PUSH1 0x1 PUSH1 0xA0 SHL SUB DUP5 AND PUSH1 0x0 SWAP1 DUP2 MSTORE PUSH1 0x20 DUP2 SWAP1 MSTORE PUSH1 0x40 SWAP1 KECCAK256 SWAP1 DUP3 SWAP1 SUB SWAP1 SSTORE JUMPDEST PUSH1 0x1 PUSH1 0x1 PUSH1 0xA0 SHL SUB DUP3 AND PUSH2 0x1ADE JUMPI PUSH1 0x2 DUP1 SLOAD DUP3 SWAP1 SUB SWAP1 SSTORE PUSH2 0x1AFD JUMP JUMPDEST PUSH1 0x1 PUSH1 0x1 PUSH1 0xA0 SHL SUB DUP3 AND PUSH1 0x0 SWAP1 DUP2 MSTORE PUSH1 0x20 DUP2 SWAP1 MSTORE PUSH1 0x40 SWAP1 KECCAK256 DUP1 SLOAD DUP3 ADD SWAP1 SSTORE JUMPDEST DUP2 PUSH1 0x1 PUSH1 0x1 PUSH1 0xA0 SHL SUB AND DUP4 PUSH1 0x1 PUSH1 0x1 PUSH1 0xA0 SHL SUB AND PUSH32 0xDDF252AD1BE2C89B69C2B068FC378DAA952BA7F163C4A11628F55A4DF523B3EF DUP4 PUSH1 0x40 MLOAD PUSH2 0x1B42 SWAP2 DUP2 MSTORE PUSH1 0x20 ADD SWAP1 JUMP JUMPDEST PUSH1 0x40 MLOAD DUP1 SWAP2 SUB SWAP1 LOG3 POP POP POP JUMP JUMPDEST PUSH1 0x0 PUSH1 0x20 DUP3 DUP5 SUB SLT ISZERO PUSH2 0x1B61 JUMPI PUSH1 0x0 DUP1 REVERT JUMPDEST POP CALLDATALOAD SWAP2 SWAP1 POP JUMP JUMPDEST PUSH1 0x0 DUP2 MLOAD DUP1 DUP5 MSTORE PUSH1 0x0 JUMPDEST DUP2 DUP2 LT ISZERO PUSH2 0x1B8E JUMPI PUSH1 0x20 DUP2 DUP6 ADD DUP2 ADD MLOAD DUP7 DUP4 ADD DUP3 ADD MSTORE ADD PUSH2 0x1B72 JUMP JUMPDEST POP PUSH1 0x0 PUSH1 0x20 DUP3 DUP7 ADD ADD MSTORE PUSH1 0x20 PUSH1 0x1F NOT PUSH1 0x1F DUP4 ADD AND DUP6 ADD ADD SWAP2 POP POP SWAP3 SWAP2 POP POP JUMP JUMPDEST DUP8 DUP2 MSTORE PUSH1 0xE0 PUSH1 0x20 DUP3 ADD MSTORE PUSH1 0x0 PUSH2 0x1BC7 PUSH1 0xE0 DUP4 ADD DUP10 PUSH2 0x1B68 JUMP JUMPDEST PUSH1 0x40 DUP4 ADD SWAP8 SWAP1 SWAP8 MSTORE POP PUSH1 0x60 DUP2 ADD SWAP5 SWAP1 SWAP5 MSTORE PUSH1 0x80 DUP5 ADD SWAP3 SWAP1 SWAP3 MSTORE ISZERO ISZERO PUSH1 0xA0 DUP4 ADD MSTORE ISZERO ISZERO PUSH1 0xC0 SWAP1 SWAP2 ADD MSTORE SWAP3 SWAP2 POP POP JUMP JUMPDEST PUSH1 0x20 DUP2 MSTORE PUSH1 0x0 PUSH2 0x1C08 PUSH1 0x20 DUP4 ADD DUP5 PUSH2 0x1B68 JUMP JUMPDEST SWAP4 SWAP3 POP POP POP JUMP JUMPDEST DUP1 CALLDATALOAD PUSH1 0x1 PUSH1 0x1 PUSH1 0xA0 SHL SUB DUP2 AND DUP2 EQ PUSH2 0x1C26 JUMPI PUSH1 0x0 DUP1 REVERT JUMPDEST SWAP2 SWAP1 POP JUMP JUMPDEST PUSH1 0x0 DUP1 PUSH1 0x40 DUP4 DUP6 SUB SLT ISZERO PUSH2 0x1C3E JUMPI PUSH1 0x0 DUP1 REVERT JUMPDEST PUSH2 0x1C47 DUP4 PUSH2 0x1C0F JUMP JUMPDEST SWAP5 PUSH1 0x20 SWAP4 SWAP1 SWAP4 ADD CALLDATALOAD SWAP4 POP POP POP JUMP JUMPDEST PUSH1 0x0 DUP1 PUSH1 0x0 PUSH1 0x60 DUP5 DUP7 SUB SLT ISZERO PUSH2 0x1C6A JUMPI PUSH1 0x0 DUP1 REVERT JUMPDEST PUSH2 0x1C73 DUP5 PUSH2 0x1C0F JUMP JUMPDEST SWAP3 POP PUSH2 0x1C81 PUSH1 0x20 DUP6 ADD PUSH2 0x1C0F JUMP JUMPDEST SWAP2 POP PUSH1 0x40 DUP5 ADD CALLDATALOAD SWAP1 POP SWAP3 POP SWAP3 POP SWAP3 JUMP JUMPDEST PUSH4 0x4E487B71 PUSH1 0xE0 SHL PUSH1 0x0 MSTORE PUSH1 0x41 PUSH1 0x4 MSTORE PUSH1 0x24 PUSH1 0x0 REVERT JUMPDEST PUSH1 0x0 PUSH1 0x20 DUP3 DUP5 SUB SLT ISZERO PUSH2 0x1CB9 JUMPI PUSH1 0x0 DUP1 REVERT JUMPDEST DUP2 CALLDATALOAD PUSH8 0xFFFFFFFFFFFFFFFF DUP1 DUP3 GT ISZERO PUSH2 0x1CD1 JUMPI PUSH1 0x0 DUP1 REVERT JUMPDEST DUP2 DUP5 ADD SWAP2 POP DUP5 PUSH1 0x1F DUP4 ADD SLT PUSH2 0x1CE5 JUMPI PUSH1 0x0 DUP1 REVERT JUMPDEST DUP2 CALLDATALOAD DUP2 DUP2 GT ISZERO PUSH2 0x1CF7 JUMPI PUSH2 0x1CF7 PUSH2 0x1C91 JUMP JUMPDEST PUSH1 0x40 MLOAD PUSH1 0x1F DUP3 ADD PUSH1 0x1F NOT SWAP1 DUP2 AND PUSH1 0x3F ADD AND DUP2 ADD SWAP1 DUP4 DUP3 GT DUP2 DUP4 LT OR ISZERO PUSH2 0x1D1F JUMPI PUSH2 0x1D1F PUSH2 0x1C91 JUMP JUMPDEST DUP2 PUSH1 0x40 MSTORE DUP3 DUP2 MSTORE DUP8 PUSH1 0x20 DUP5 DUP8 ADD ADD GT ISZERO PUSH2 0x1D38 JUMPI PUSH1 0x0 DUP1 REVERT JUMPDEST DUP3 PUSH1 0x20 DUP7 ADD PUSH1 0x20 DUP4 ADD CALLDATACOPY PUSH1 0x0 SWAP3 DUP2 ADD PUSH1 0x20 ADD SWAP3 SWAP1 SWAP3 MSTORE POP SWAP6 SWAP5 POP POP POP POP POP JUMP JUMPDEST PUSH1 0x0 PUSH1 0x20 DUP3 DUP5 SUB SLT ISZERO PUSH2 0x1D6A JUMPI PUSH1 0x0 DUP1 REVERT JUMPDEST PUSH2 0x1C08 DUP3 PUSH2 0x1C0F JUMP JUMPDEST PUSH1 0x0 DUP1 PUSH1 0x40 DUP4 DUP6 SUB SLT ISZERO PUSH2 0x1D86 JUMPI PUSH1 0x0 DUP1 REVERT JUMPDEST DUP3 CALLDATALOAD SWAP2 POP PUSH1 0x20 DUP4 ADD CALLDATALOAD DUP1 ISZERO ISZERO DUP2 EQ PUSH2 0x1D9D JUMPI PUSH1 0x0 DUP1 REVERT JUMPDEST DUP1 SWAP2 POP POP SWAP3 POP SWAP3 SWAP1 POP JUMP JUMPDEST PUSH1 0x0 DUP1 PUSH1 0x40 DUP4 DUP6 SUB SLT ISZERO PUSH2 0x1DBB JUMPI PUSH1 0x0 DUP1 REVERT JUMPDEST PUSH2 0x1DC4 DUP4 PUSH2 0x1C0F JUMP JUMPDEST SWAP2 POP PUSH2 0x1DD2 PUSH1 0x20 DUP5 ADD PUSH2 0x1C0F JUMP JUMPDEST SWAP1 POP SWAP3 POP SWAP3 SWAP1 POP JUMP JUMPDEST PUSH1 0x1 DUP2 DUP2 SHR SWAP1 DUP3 AND DUP1 PUSH2 0x1DEF JUMPI PUSH1 0x7F DUP3 AND SWAP2 POP JUMPDEST PUSH1 0x20 DUP3 LT DUP2 SUB PUSH2 0x1E0F JUMPI PUSH4 0x4E487B71 PUSH1 0xE0 SHL PUSH1 0x0 MSTORE PUSH1 0x22 PUSH1 0x4 MSTORE PUSH1 0x24 PUSH1 0x0 REVERT JUMPDEST POP SWAP2 SWAP1 POP JUMP JUMPDEST PUSH1 0x20 DUP1 DUP3 MSTORE PUSH1 0x17 SWAP1 DUP3 ADD MSTORE PUSH32 0x50726F706F73616C20646F6573206E6F74206578697374000000000000000000 PUSH1 0x40 DUP3 ADD MSTORE PUSH1 0x60 ADD SWAP1 JUMP JUMPDEST PUSH4 0x4E487B71 PUSH1 0xE0 SHL PUSH1 0x0 MSTORE PUSH1 0x11 PUSH1 0x4 MSTORE PUSH1 0x24 PUSH1 0x0 REVERT JUMPDEST DUP1 DUP3 MUL DUP2 ISZERO DUP3 DUP3 DIV DUP5 EQ OR PUSH2 0x912 JUMPI PUSH2 0x912 PUSH2 0x1E4C JUMP JUMPDEST PUSH1 0x0 DUP3 PUSH2 0x1E96 JUMPI PUSH4 0x4E487B71 PUSH1 0xE0 SHL PUSH1 0x0 MSTORE PUSH1 0x12 PUSH1 0x4 MSTORE PUSH1 0x24 PUSH1 0x0 REVERT JUMPDEST POP DIV SWAP1 JUMP JUMPDEST DUP2 DUP2 SUB DUP2 DUP2 GT ISZERO PUSH2 0x912 JUMPI PUSH2 0x912 PUSH2 0x1E4C JUMP JUMPDEST DUP1 DUP3 ADD DUP1 DUP3 GT ISZERO PUSH2 0x912 JUMPI PUSH2 0x912 PUSH2 0x1E4C JUMP JUMPDEST PUSH1 0x1 DUP2 DUP2 JUMPDEST DUP1 DUP6 GT ISZERO PUSH2 0x1EFC JUMPI DUP2 PUSH1 0x0 NOT DIV DUP3 GT ISZERO PUSH2 0x1EE2 JUMPI PUSH2 0x1EE2 PUSH2 0x1E4C JUMP JUMPDEST DUP1 DUP6 AND ISZERO PUSH2 0x1EEF JUMPI SWAP2 DUP2 MUL SWAP2 JUMPDEST SWAP4 DUP5 SHR SWAP4 SWAP1 DUP1 MUL SWAP1 PUSH2 0x1EC6 JUMP JUMPDEST POP SWAP3 POP SWAP3 SWAP1 POP JUMP JUMPDEST PUSH1 0x0 DUP3 PUSH2 0x1F13 JUMPI POP PUSH1 0x1 PUSH2 0x912 JUMP JUMPDEST DUP2 PUSH2 0x1F20 JUMPI POP PUSH1 0x0 PUSH2 0x912 JUMP JUMPDEST DUP2 PUSH1 0x1 DUP2 EQ PUSH2 0x1F36 JUMPI PUSH1 0x2 DUP2 EQ PUSH2 0x1F40 JUMPI PUSH2 0x1F5C JUMP JUMPDEST PUSH1 0x1 SWAP2 POP POP PUSH2 0x912 JUMP JUMPDEST PUSH1 0xFF DUP5 GT ISZERO PUSH2 0x1F51 JUMPI PUSH2 0x1F51 PUSH2 0x1E4C JUMP JUMPDEST POP POP PUSH1 0x1 DUP3 SHL PUSH2 0x912 JUMP JUMPDEST POP PUSH1 0x20 DUP4 LT PUSH2 0x133 DUP4 LT AND PUSH1 0x4E DUP5 LT PUSH1 0xB DUP5 LT AND OR ISZERO PUSH2 0x1F7F JUMPI POP DUP2 DUP2 EXP PUSH2 0x912 JUMP JUMPDEST PUSH2 0x1F89 DUP4 DUP4 PUSH2 0x1EC1 JUMP JUMPDEST DUP1 PUSH1 0x0 NOT DIV DUP3 GT ISZERO PUSH2 0x1F9D JUMPI PUSH2 0x1F9D PUSH2 0x1E4C JUMP JUMPDEST MUL SWAP4 SWAP3 POP POP POP JUMP JUMPDEST PUSH1 0x0 PUSH2 0x1C08 PUSH1 0xFF DUP5 AND DUP4 PUSH2 0x1F04 JUMP JUMPDEST PUSH1 0x0 PUSH1 0x1 DUP3 ADD PUSH2 0x1FC6 JUMPI PUSH2 0x1FC6 PUSH2 0x1E4C JUMP JUMPDEST POP PUSH1 0x1 ADD SWAP1 JUMP JUMPDEST PUSH1 0x1F DUP3 GT ISZERO PUSH2 0x179C JUMPI PUSH1 0x0 DUP2 PUSH1 0x0 MSTORE PUSH1 0x20 PUSH1 0x0 KECCAK256 PUSH1 0x1F DUP6 ADD PUSH1 0x5 SHR DUP2 ADD PUSH1 0x20 DUP7 LT ISZERO PUSH2 0x1FF6 JUMPI POP DUP1 JUMPDEST PUSH1 0x1F DUP6 ADD PUSH1 0x5 SHR DUP3 ADD SWAP2 POP JUMPDEST DUP2 DUP2 LT ISZERO PUSH2 0x2015 JUMPI DUP3 DUP2 SSTORE PUSH1 0x1 ADD PUSH2 0x2002 JUMP JUMPDEST POP POP POP POP POP POP JUMP JUMPDEST DUP2 MLOAD PUSH8 0xFFFFFFFFFFFFFFFF DUP2 GT ISZERO PUSH2 0x2037 JUMPI PUSH2 0x2037 PUSH2 0x1C91 JUMP JUMPDEST PUSH2 0x204B DUP2 PUSH2 0x2045 DUP5 SLOAD PUSH2 0x1DDB JUMP JUMPDEST DUP5 PUSH2 0x1FCD JUMP JUMPDEST PUSH1 0x20 DUP1 PUSH1 0x1F DUP4 GT PUSH1 0x1 DUP2 EQ PUSH2 0x2080 JUMPI PUSH1 0x0 DUP5 ISZERO PUSH2 0x2068 JUMPI POP DUP6 DUP4 ADD MLOAD JUMPDEST PUSH1 0x0 NOT PUSH1 0x3 DUP7 SWAP1 SHL SHR NOT AND PUSH1 0x1 DUP6 SWAP1 SHL OR DUP6 SSTORE PUSH2 0x2015 JUMP JUMPDEST PUSH1 0x0 DUP6 DUP2 MSTORE PUSH1 0x20 DUP2 KECCAK256 PUSH1 0x1F NOT DUP7 AND SWAP2 JUMPDEST DUP3 DUP2 LT ISZERO PUSH2 0x20AF JUMPI DUP9 DUP7 ADD MLOAD DUP3 SSTORE SWAP5 DUP5 ADD SWAP5 PUSH1 0x1 SWAP1 SWAP2 ADD SWAP1 DUP5 ADD PUSH2 0x2090 JUMP JUMPDEST POP DUP6 DUP3 LT ISZERO PUSH2 0x20CD JUMPI DUP8 DUP6 ADD MLOAD PUSH1 0x0 NOT PUSH1 0x3 DUP9 SWAP1 SHL PUSH1 0xF8 AND SHR NOT AND DUP2 SSTORE JUMPDEST POP POP POP POP POP PUSH1 0x1 SWAP1 DUP2 SHL ADD SWAP1 SSTORE POP JUMP INVALID LOG2 PUSH5 0x6970667358 0x22 SLT KECCAK256 0xE EXTCODESIZE 0x4E 0xB9 0xC0 ADDMOD 0xF9 CALLER 0xD2 0xB3 SWAP4 0xA6 0xD5 0xFB 0xAF SWAP3 0xCE 0xD6 PUSH19 0x95D439AF7EA6AAC5B3AF2F8D8364736F6C6343 STOP ADDMOD XOR STOP CALLER LOG2 PUSH5 0x6970667358 0x22 SLT KECCAK256 0x26 MSTORE PUSH20 0xB25D5E0F46B155297ABF08C2BD5B7341A25071AB 0xCA GASLIMIT 0x1E TLOAD 0xC9 GASPRICE GASPRICE 0xAA NUMBER PUSH5 0x736F6C6343 STOP ADDMOD XOR STOP CALLER "},"methodIdentifiers":{"allClubTokens(uint256)":"0c63cb67","clubExists(string)":"ea5ded9e","clubTokens(string)":"4493e363","createClubToken(string,string,string,address,uint256)":"79200a3b","defaultTokenPrice()":"18e12e03","factoryFee()":"6286116a","getClubByIndex(uint256)":"6f6fa0c1","getClubDetails(string)":"f28801e9","getClubToken(string)":"ea81db51","getClubs(uint256,uint256)":"57d531d5","getFactoryStats()":"c9226445","getTotalClubs()":"c04016f9","owner()":"8da5cb5b","renounceOwnership()":"715018a6","transferOwnership(address)":"f2fde38b","updateDefaultTokenPrice(uint256)":"9448ead9","updateFactoryFee(uint256)":"adff1c2a","withdrawFees()":"476343ee"}}}}}