{
  "_format": "hh-sol-artifact-1",
  "contractName": "FanToken",
  "sourceName": "contracts/FanToken.sol",
  "abi": [
    {
      "inputs": [
        {
          "internalType": "string",
          "name": "_name",
          "type": "string"
        },
        {
          "internalType": "string",
          "name": "_symbol",
          "type": "string"
        },
        {
          "internalType": "string",
          "name": "_clubName",
          "type": "string"
        }
      ],
      "stateMutability": "nonpayable",
      "type": "constructor"
    },
    {
      "inputs": [
        {
          "internalType": "address",
          "name": "spender",
          "type": "address"
        },
        {
          "internalType": "uint256",
          "name": "allowance",
          "type": "uint256"
        },
        {
          "internalType": "uint256",
          "name": "needed",
          "type": "uint256"
        }
      ],
      "name": "ERC20InsufficientAllowance",
      "type": "error"
    },
    {
      "inputs": [
        {
          "internalType": "address",
          "name": "sender",
          "type": "address"
        },
        {
          "internalType": "uint256",
          "name": "balance",
          "type": "uint256"
        },
        {
          "internalType": "uint256",
          "name": "needed",
          "type": "uint256"
        }
      ],
      "name": "ERC20InsufficientBalance",
      "type": "error"
    },
    {
      "inputs": [
        {
          "internalType": "address",
          "name": "approver",
          "type": "address"
        }
      ],
      "name": "ERC20InvalidApprover",
      "type": "error"
    },
    {
      "inputs": [
        {
          "internalType": "address",
          "name": "receiver",
          "type": "address"
        }
      ],
      "name": "ERC20InvalidReceiver",
      "type": "error"
    },
    {
      "inputs": [
        {
          "internalType": "address",
          "name": "sender",
          "type": "address"
        }
      ],
      "name": "ERC20InvalidSender",
      "type": "error"
    },
    {
      "inputs": [
        {
          "internalType": "address",
          "name": "spender",
          "type": "address"
        }
      ],
      "name": "ERC20InvalidSpender",
      "type": "error"
    },
    {
      "inputs": [
        {
          "internalType": "address",
          "name": "owner",
          "type": "address"
        }
      ],
      "name": "OwnableInvalidOwner",
      "type": "error"
    },
    {
      "inputs": [
        {
          "internalType": "address",
          "name": "account",
          "type": "address"
        }
      ],
      "name": "OwnableUnauthorizedAccount",
      "type": "error"
    },
    {
      "inputs": [],
      "name": "ReentrancyGuardReentrantCall",
      "type": "error"
    },
    {
      "anonymous": false,
      "inputs": [
        {
          "indexed": true,
          "internalType": "address",
          "name": "owner",
          "type": "address"
        },
        {
          "indexed": true,
          "internalType": "address",
          "name": "spender",
          "type": "address"
        },
        {
          "indexed": false,
          "internalType": "uint256",
          "name": "value",
          "type": "uint256"
        }
      ],
      "name": "Approval",
      "type": "event"
    },
    {
      "anonymous": false,
      "inputs": [
        {
          "indexed": true,
          "internalType": "address",
          "name": "fan",
          "type": "address"
        },
        {
          "indexed": false,
          "internalType": "uint256",
          "name": "points",
          "type": "uint256"
        }
      ],
      "name": "LoyaltyPointsAwarded",
      "type": "event"
    },
    {
      "anonymous": false,
      "inputs": [
        {
          "indexed": true,
          "internalType": "address",
          "name": "previousOwner",
          "type": "address"
        },
        {
          "indexed": true,
          "internalType": "address",
          "name": "newOwner",
          "type": "address"
        }
      ],
      "name": "OwnershipTransferred",
      "type": "event"
    },
    {
      "anonymous": false,
      "inputs": [
        {
          "indexed": true,
          "internalType": "uint256",
          "name": "pollId",
          "type": "uint256"
        },
        {
          "indexed": false,
          "internalType": "string",
          "name": "question",
          "type": "string"
        },
        {
          "indexed": false,
          "internalType": "uint256",
          "name": "endTime",
          "type": "uint256"
        }
      ],
      "name": "PollCreated",
      "type": "event"
    },
    {
      "anonymous": false,
      "inputs": [
        {
          "indexed": true,
          "internalType": "address",
          "name": "fan",
          "type": "address"
        },
        {
          "indexed": false,
          "internalType": "uint256",
          "name": "amount",
          "type": "uint256"
        },
        {
          "indexed": false,
          "internalType": "string",
          "name": "reason",
          "type": "string"
        }
      ],
      "name": "RewardDistributed",
      "type": "event"
    },
    {
      "anonymous": false,
      "inputs": [
        {
          "indexed": true,
          "internalType": "address",
          "name": "from",
          "type": "address"
        },
        {
          "indexed": true,
          "internalType": "address",
          "name": "to",
          "type": "address"
        },
        {
          "indexed": false,
          "internalType": "uint256",
          "name": "value",
          "type": "uint256"
        }
      ],
      "name": "Transfer",
      "type": "event"
    },
    {
      "anonymous": false,
      "inputs": [
        {
          "indexed": true,
          "internalType": "uint256",
          "name": "pollId",
          "type": "uint256"
        },
        {
          "indexed": true,
          "internalType": "address",
          "name": "voter",
          "type": "address"
        },
        {
          "indexed": false,
          "internalType": "uint256",
          "name": "option",
          "type": "uint256"
        },
        {
          "indexed": false,
          "internalType": "uint256",
          "name": "tokensUsed",
          "type": "uint256"
        }
      ],
      "name": "Voted",
      "type": "event"
    },
    {
      "inputs": [],
      "name": "INITIAL_SUPPLY",
      "outputs": [
        {
          "internalType": "uint256",
          "name": "",
          "type": "uint256"
        }
      ],
      "stateMutability": "view",
      "type": "function"
    },
    {
      "inputs": [
        {
          "internalType": "address",
          "name": "owner",
          "type": "address"
        },
        {
          "internalType": "address",
          "name": "spender",
          "type": "address"
        }
      ],
      "name": "allowance",
      "outputs": [
        {
          "internalType": "uint256",
          "name": "",
          "type": "uint256"
        }
      ],
      "stateMutability": "view",
      "type": "function"
    },
    {
      "inputs": [
        {
          "internalType": "address",
          "name": "spender",
          "type": "address"
        },
        {
          "internalType": "uint256",
          "name": "value",
          "type": "uint256"
        }
      ],
      "name": "approve",
      "outputs": [
        {
          "internalType": "bool",
          "name": "",
          "type": "bool"
        }
      ],
      "stateMutability": "nonpayable",
      "type": "function"
    },
    {
      "inputs": [
        {
          "internalType": "address",
          "name": "account",
          "type": "address"
        }
      ],
      "name": "balanceOf",
      "outputs": [
        {
          "internalType": "uint256",
          "name": "",
          "type": "uint256"
        }
      ],
      "stateMutability": "view",
      "type": "function"
    },
    {
      "inputs": [
        {
          "internalType": "address[]",
          "name": "_fans",
          "type": "address[]"
        },
        {
          "internalType": "uint256[]",
          "name": "_amounts",
          "type": "uint256[]"
        },
        {
          "internalType": "string",
          "name": "_reason",
          "type": "string"
        }
      ],
      "name": "batchDistributeRewards",
      "outputs": [],
      "stateMutability": "nonpayable",
      "type": "function"
    },
    {
      "inputs": [
        {
          "internalType": "uint256",
          "name": "_amount",
          "type": "uint256"
        }
      ],
      "name": "burnTokens",
      "outputs": [],
      "stateMutability": "nonpayable",
      "type": "function"
    },
    {
      "inputs": [
        {
          "internalType": "uint256",
          "name": "_pollId",
          "type": "uint256"
        }
      ],
      "name": "closePoll",
      "outputs": [],
      "stateMutability": "nonpayable",
      "type": "function"
    },
    {
      "inputs": [],
      "name": "clubName",
      "outputs": [
        {
          "internalType": "string",
          "name": "",
          "type": "string"
        }
      ],
      "stateMutability": "view",
      "type": "function"
    },
    {
      "inputs": [
        {
          "internalType": "string",
          "name": "_question",
          "type": "string"
        },
        {
          "internalType": "string[]",
          "name": "_options",
          "type": "string[]"
        },
        {
          "internalType": "uint256",
          "name": "_durationInHours",
          "type": "uint256"
        }
      ],
      "name": "createPoll",
      "outputs": [],
      "stateMutability": "nonpayable",
      "type": "function"
    },
    {
      "inputs": [],
      "name": "decimals",
      "outputs": [
        {
          "internalType": "uint8",
          "name": "",
          "type": "uint8"
        }
      ],
      "stateMutability": "view",
      "type": "function"
    },
    {
      "inputs": [
        {
          "internalType": "address",
          "name": "_fan",
          "type": "address"
        },
        {
          "internalType": "uint256",
          "name": "_amount",
          "type": "uint256"
        },
        {
          "internalType": "string",
          "name": "_reason",
          "type": "string"
        }
      ],
      "name": "distributeReward",
      "outputs": [],
      "stateMutability": "nonpayable",
      "type": "function"
    },
    {
      "inputs": [
        {
          "internalType": "address",
          "name": "",
          "type": "address"
        }
      ],
      "name": "fanLoyaltyPoints",
      "outputs": [
        {
          "internalType": "uint256",
          "name": "",
          "type": "uint256"
        }
      ],
      "stateMutability": "view",
      "type": "function"
    },
    {
      "inputs": [
        {
          "internalType": "address",
          "name": "",
          "type": "address"
        },
        {
          "internalType": "uint256",
          "name": "",
          "type": "uint256"
        }
      ],
      "name": "fanRewards",
      "outputs": [
        {
          "internalType": "uint256",
          "name": "amount",
          "type": "uint256"
        },
        {
          "internalType": "string",
          "name": "reason",
          "type": "string"
        },
        {
          "internalType": "uint256",
          "name": "timestamp",
          "type": "uint256"
        }
      ],
      "stateMutability": "view",
      "type": "function"
    },
    {
      "inputs": [],
      "name": "getActivePoll",
      "outputs": [
        {
          "internalType": "uint256",
          "name": "",
          "type": "uint256"
        }
      ],
      "stateMutability": "view",
      "type": "function"
    },
    {
      "inputs": [
        {
          "internalType": "address",
          "name": "_fan",
          "type": "address"
        }
      ],
      "name": "getFanRewards",
      "outputs": [
        {
          "components": [
            {
              "internalType": "uint256",
              "name": "amount",
              "type": "uint256"
            },
            {
              "internalType": "string",
              "name": "reason",
              "type": "string"
            },
            {
              "internalType": "uint256",
              "name": "timestamp",
              "type": "uint256"
            }
          ],
          "internalType": "struct FanToken.Reward[]",
          "name": "",
          "type": "tuple[]"
        }
      ],
      "stateMutability": "view",
      "type": "function"
    },
    {
      "inputs": [
        {
          "internalType": "uint256",
          "name": "_pollId",
          "type": "uint256"
        }
      ],
      "name": "getPollResults",
      "outputs": [
        {
          "internalType": "string",
          "name": "question",
          "type": "string"
        },
        {
          "internalType": "string[]",
          "name": "options",
          "type": "string[]"
        },
        {
          "internalType": "uint256[]",
          "name": "votes",
          "type": "uint256[]"
        },
        {
          "internalType": "uint256",
          "name": "totalVotes",
          "type": "uint256"
        },
        {
          "internalType": "bool",
          "name": "active",
          "type": "bool"
        },
        {
          "internalType": "uint256",
          "name": "endTime",
          "type": "uint256"
        }
      ],
      "stateMutability": "view",
      "type": "function"
    },
    {
      "inputs": [
        {
          "internalType": "uint256",
          "name": "_pollId",
          "type": "uint256"
        },
        {
          "internalType": "address",
          "name": "_voter",
          "type": "address"
        }
      ],
      "name": "hasVoted",
      "outputs": [
        {
          "internalType": "bool",
          "name": "",
          "type": "bool"
        }
      ],
      "stateMutability": "view",
      "type": "function"
    },
    {
      "inputs": [],
      "name": "minimumTokensToVote",
      "outputs": [
        {
          "internalType": "uint256",
          "name": "",
          "type": "uint256"
        }
      ],
      "stateMutability": "view",
      "type": "function"
    },
    {
      "inputs": [],
      "name": "name",
      "outputs": [
        {
          "internalType": "string",
          "name": "",
          "type": "string"
        }
      ],
      "stateMutability": "view",
      "type": "function"
    },
    {
      "inputs": [],
      "name": "owner",
      "outputs": [
        {
          "internalType": "address",
          "name": "",
          "type": "address"
        }
      ],
      "stateMutability": "view",
      "type": "function"
    },
    {
      "inputs": [],
      "name": "pollCounter",
      "outputs": [
        {
          "internalType": "uint256",
          "name": "",
          "type": "uint256"
        }
      ],
      "stateMutability": "view",
      "type": "function"
    },
    {
      "inputs": [
        {
          "internalType": "uint256",
          "name": "",
          "type": "uint256"
        }
      ],
      "name": "polls",
      "outputs": [
        {
          "internalType": "uint256",
          "name": "id",
          "type": "uint256"
        },
        {
          "internalType": "string",
          "name": "question",
          "type": "string"
        },
        {
          "internalType": "uint256",
          "name": "endTime",
          "type": "uint256"
        },
        {
          "internalType": "bool",
          "name": "active",
          "type": "bool"
        },
        {
          "internalType": "uint256",
          "name": "totalVotes",
          "type": "uint256"
        }
      ],
      "stateMutability": "view",
      "type": "function"
    },
    {
      "inputs": [],
      "name": "renounceOwnership",
      "outputs": [],
      "stateMutability": "nonpayable",
      "type": "function"
    },
    {
      "inputs": [
        {
          "internalType": "uint256",
          "name": "_minimum",
          "type": "uint256"
        }
      ],
      "name": "setMinimumTokensToVote",
      "outputs": [],
      "stateMutability": "nonpayable",
      "type": "function"
    },
    {
      "inputs": [],
      "name": "symbol",
      "outputs": [
        {
          "internalType": "string",
          "name": "",
          "type": "string"
        }
      ],
      "stateMutability": "view",
      "type": "function"
    },
    {
      "inputs": [],
      "name": "totalSupply",
      "outputs": [
        {
          "internalType": "uint256",
          "name": "",
          "type": "uint256"
        }
      ],
      "stateMutability": "view",
      "type": "function"
    },
    {
      "inputs": [
        {
          "internalType": "address",
          "name": "to",
          "type": "address"
        },
        {
          "internalType": "uint256",
          "name": "value",
          "type": "uint256"
        }
      ],
      "name": "transfer",
      "outputs": [
        {
          "internalType": "bool",
          "name": "",
          "type": "bool"
        }
      ],
      "stateMutability": "nonpayable",
      "type": "function"
    },
    {
      "inputs": [
        {
          "internalType": "address",
          "name": "from",
          "type": "address"
        },
        {
          "internalType": "address",
          "name": "to",
          "type": "address"
        },
        {
          "internalType": "uint256",
          "name": "value",
          "type": "uint256"
        }
      ],
      "name": "transferFrom",
      "outputs": [
        {
          "internalType": "bool",
          "name": "",
          "type": "bool"
        }
      ],
      "stateMutability": "nonpayable",
      "type": "function"
    },
    {
      "inputs": [
        {
          "internalType": "address",
          "name": "newOwner",
          "type": "address"
        }
      ],
      "name": "transferOwnership",
      "outputs": [],
      "stateMutability": "nonpayable",
      "type": "function"
    },
    {
      "inputs": [
        {
          "internalType": "uint256",
          "name": "_pollId",
          "type": "uint256"
        },
        {
          "internalType": "uint256",
          "name": "_option",
          "type": "uint256"
        }
      ],
      "name": "vote",
      "outputs": [],
      "stateMutability": "nonpayable",
      "type": "function"
    }
  ],
  "bytecode": "0x608060405268056bc75e2d63100000600c553480156200001e57600080fd5b5060405162002b7238038062002b7283398101604081905262000041916200035e565b338383600362000052838262000480565b50600462000061828262000480565b5050506001600160a01b0381166200009457604051631e4fbdf760e01b8152600060048201526024015b60405180910390fd5b6200009f81620000d3565b5060016006556007620000b3828262000480565b50620000ca3369d3c21bcecceda100000062000125565b50505062000574565b600580546001600160a01b038381166001600160a01b0319831681179093556040519116919082907f8be0079c531659141344cd1fd0a4f28419497f9722a3daafe3b4186f6b6457e090600090a35050565b6001600160a01b038216620001515760405163ec442f0560e01b8152600060048201526024016200008b565b6200015f6000838362000163565b5050565b6001600160a01b038316620001925780600260008282546200018691906200054c565b90915550620002069050565b6001600160a01b03831660009081526020819052604090205481811015620001e75760405163391434e360e21b81526001600160a01b038516600482015260248101829052604481018390526064016200008b565b6001600160a01b03841660009081526020819052604090209082900390555b6001600160a01b038216620002245760028054829003905562000243565b6001600160a01b03821660009081526020819052604090208054820190555b816001600160a01b0316836001600160a01b03167fddf252ad1be2c89b69c2b068fc378daa952ba7f163c4a11628f55a4df523b3ef836040516200028991815260200190565b60405180910390a3505050565b634e487b7160e01b600052604160045260246000fd5b600082601f830112620002be57600080fd5b81516001600160401b0380821115620002db57620002db62000296565b604051601f8301601f19908116603f0116810190828211818310171562000306576200030662000296565b81604052838152602092508660208588010111156200032457600080fd5b600091505b8382101562000348578582018301518183018401529082019062000329565b6000602085830101528094505050505092915050565b6000806000606084860312156200037457600080fd5b83516001600160401b03808211156200038c57600080fd5b6200039a87838801620002ac565b94506020860151915080821115620003b157600080fd5b620003bf87838801620002ac565b93506040860151915080821115620003d657600080fd5b50620003e586828701620002ac565b9150509250925092565b600181811c908216806200040457607f821691505b6020821081036200042557634e487b7160e01b600052602260045260246000fd5b50919050565b601f8211156200047b576000816000526020600020601f850160051c81016020861015620004565750805b601f850160051c820191505b81811015620004775782815560010162000462565b5050505b505050565b81516001600160401b038111156200049c576200049c62000296565b620004b481620004ad8454620003ef565b846200042b565b602080601f831160018114620004ec5760008415620004d35750858301515b600019600386901b1c1916600185901b17855562000477565b600085815260208120601f198616915b828110156200051d57888601518255948401946001909101908401620004fc565b50858210156200053c5787850151600019600388901b60f8161c191681555b5050505050600190811b01905550565b808201808211156200056e57634e487b7160e01b600052601160045260246000fd5b92915050565b6125ee80620005846000396000f3fe608060405234801561001057600080fd5b50600436106101d95760003560e01c8063761d0ac111610104578063b384abef116100a2578063dd62ed3e11610071578063dd62ed3e14610436578063e1450ed31461046f578063f2fde38b14610482578063f8c860f41461049557600080fd5b8063b384abef146103f2578063b80ebcd314610405578063ce27489d14610425578063d02eed381461042d57600080fd5b80639534e637116100de5780639534e637146103a057806395d89b41146103b3578063a9059cbb146103bb578063ac2f0074146103ce57600080fd5b8063761d0ac1146103525780638da5cb5b146103725780638df456fb1461038d57600080fd5b8063313ce5671161017c57806365d65a141161014b57806365d65a14146103065780636d1b229d1461030e57806370a0823114610321578063715018a61461034a57600080fd5b8063313ce5671461027357806333b4097b1461028257806340738f2f146102a757806343859632146102c957600080fd5b806318160ddd116101b857806318160ddd1461023257806323b872dd1461023a5780632a7ea9d21461024d5780632ff2e9dc1461026257600080fd5b80627ed058146101de57806306fdde03146101fa578063095ea7b31461020f575b600080fd5b6101e7600c5481565b6040519081526020015b60405180910390f35b6102026104a8565b6040516101f19190611d02565b61022261021d366004611d38565b61053a565b60405190151581526020016101f1565b6002546101e7565b610222610248366004611d62565b610554565b61026061025b366004611e55565b610578565b005b6101e769d3c21bcecceda100000081565b604051601281526020016101f1565b610295610290366004611eac565b6107c9565b6040516101f196959493929190611f01565b6102ba6102b5366004611d38565b610a57565b6040516101f193929190611fa4565b6102226102d7366004611fcd565b60008281526008602090815260408083206001600160a01b038516845260040190915290205460ff1692915050565b6101e7610b26565b61026061031c366004611eac565b610b8a565b6101e761032f366004611ff9565b6001600160a01b031660009081526020819052604090205490565b610260610c57565b610365610360366004611ff9565b610c6b565b6040516101f19190612014565b6005546040516001600160a01b0390911681526020016101f1565b61026061039b36600461212a565b610d86565b6102606103ae366004611eac565b6111f4565b610202611261565b6102226103c9366004611d38565b611270565b6103e16103dc366004611eac565b61127e565b6040516101f1959493929190612204565b61026061040036600461223a565b61133b565b6101e7610413366004611ff9565b600a6020526000908152604090205481565b6102026115d5565b6101e7600b5481565b6101e761044436600461225c565b6001600160a01b03918216600090815260016020908152604080832093909416825291909152205490565b61026061047d366004611eac565b611663565b610260610490366004611ff9565b611670565b6102606104a3366004612286565b6116ae565b6060600380546104b790612363565b80601f01602080910402602001604051908101604052809291908181526020018280546104e390612363565b80156105305780601f1061050557610100808354040283529160200191610530565b820191906000526020600020905b81548152906001019060200180831161051357829003601f168201915b5050505050905090565b600033610548818585611837565b60019150505b92915050565b600033610562858285611849565b61056d8585856118c2565b506001949350505050565b610580611921565b6001600160a01b0383166105cd5760405162461bcd60e51b815260206004820152600f60248201526e496e76616c6964206164647265737360881b60448201526064015b60405180910390fd5b600082116106175760405162461bcd60e51b8152602060048201526017602482015276416d6f756e74206d75737420626520706f73697469766560481b60448201526064016105c4565b8161062d61032f6005546001600160a01b031690565b101561067b5760405162461bcd60e51b815260206004820152601a60248201527f496e73756666696369656e74206f776e65722062616c616e636500000000000060448201526064016105c4565b6106976106906005546001600160a01b031690565b84846118c2565b6001600160a01b0383166000908152600960209081526040808320815160608101835286815280840186815242938201939093528154600181810184559286529390942084516003909402019283559051908201906106f690826123ed565b5060409190910151600290910155610716670de0b6b3a7640000836124c3565b6001600160a01b0384166000908152600a60205260408120805490919061073e9084906124e5565b92505081905550826001600160a01b03167f49649141d16971a88c3cfdd73fec34babb1cf163cf8b804c8f537a023c6ce50683836040516107809291906124f8565b60405180910390a26001600160a01b0383166000805160206125998339815191526107b3670de0b6b3a7640000856124c3565b60405190815260200160405180910390a2505050565b60008181526008602052604081208054606092839283928291829182036108285760405162461bcd60e51b8152602060048201526013602482015272141bdb1b08191bd95cc81b9bdd08195e1a5cdd606a1b60448201526064016105c4565b600281015460009067ffffffffffffffff81111561084857610848611d9e565b604051908082528060200260200182016040528015610871578160200160208202803683370190505b50905060005b60028301548110156108bb57600081815260038401602052604090205482518390839081106108a8576108a8612519565b6020908102919091010152600101610877565b5081600101826002018284600701548560060160009054906101000a900460ff1686600501548580546108ed90612363565b80601f016020809104026020016040519081016040528092919081815260200182805461091990612363565b80156109665780601f1061093b57610100808354040283529160200191610966565b820191906000526020600020905b81548152906001019060200180831161094957829003601f168201915b5050505050955084805480602002602001604051908101604052809291908181526020016000905b82821015610a3a5783829060005260206000200180546109ad90612363565b80601f01602080910402602001604051908101604052809291908181526020018280546109d990612363565b8015610a265780601f106109fb57610100808354040283529160200191610a26565b820191906000526020600020905b815481529060010190602001808311610a0957829003601f168201915b50505050508152602001906001019061098e565b505050509450975097509750975097509750505091939550919395565b60096020528160005260406000208181548110610a7357600080fd5b906000526020600020906003020160009150915050806000015490806001018054610a9d90612363565b80601f0160208091040260200160405190810160405280929190818152602001828054610ac990612363565b8015610b165780601f10610aeb57610100808354040283529160200191610b16565b820191906000526020600020905b815481529060010190602001808311610af957829003601f168201915b5050505050908060020154905083565b600b546000905b60018110610b825760008181526008602052604090206006015460ff168015610b66575060008181526008602052604090206005015442105b15610b7057919050565b80610b7a8161252f565b915050610b2d565b506000905090565b33600090815260208190526040902054811115610be05760405162461bcd60e51b8152602060048201526014602482015273496e73756666696369656e742062616c616e636560601b60448201526064016105c4565b610bea338261194e565b610bfc67016345785d8a0000826124c3565b336000908152600a602052604081208054909190610c1b9084906124e5565b90915550339050600080516020612599833981519152610c4367016345785d8a0000846124c3565b60405190815260200160405180910390a250565b610c5f611921565b610c696000611984565b565b6001600160a01b0381166000908152600960209081526040808320805482518185028101850190935280835260609492939192909184015b82821015610d7b578382906000526020600020906003020160405180606001604052908160008201548152602001600182018054610ce090612363565b80601f0160208091040260200160405190810160405280929190818152602001828054610d0c90612363565b8015610d595780601f10610d2e57610100808354040283529160200191610d59565b820191906000526020600020905b815481529060010190602001808311610d3c57829003601f168201915b5050505050815260200160028201548152505081526020019060010190610ca3565b505050509050919050565b610d8e611921565b8151835114610dd85760405162461bcd60e51b8152602060048201526016602482015275082e4e4c2f2e640d8cadccee8d040dad2e6dac2e8c6d60531b60448201526064016105c4565b606483511115610e205760405162461bcd60e51b8152602060048201526013602482015272546f6f206d616e7920726563697069656e747360681b60448201526064016105c4565b60005b83518110156111ee5760006001600160a01b0316848281518110610e4957610e49612519565b60200260200101516001600160a01b031603610e995760405162461bcd60e51b815260206004820152600f60248201526e496e76616c6964206164647265737360881b60448201526064016105c4565b6000838281518110610ead57610ead612519565b602002602001015111610efc5760405162461bcd60e51b8152602060048201526017602482015276416d6f756e74206d75737420626520706f73697469766560481b60448201526064016105c4565b828181518110610f0e57610f0e612519565b6020026020010151610f2b61032f6005546001600160a01b031690565b1015610f795760405162461bcd60e51b815260206004820152601a60248201527f496e73756666696369656e74206f776e65722062616c616e636500000000000060448201526064016105c4565b610fc7610f8e6005546001600160a01b031690565b858381518110610fa057610fa0612519565b6020026020010151858481518110610fba57610fba612519565b60200260200101516118c2565b60096000858381518110610fdd57610fdd612519565b60200260200101516001600160a01b03166001600160a01b03168152602001908152602001600020604051806060016040528085848151811061102257611022612519565b602090810291909101810151825281810186905242604090920191909152825460018181018555600094855293829020835160039092020190815590820151919290919082019061107390826123ed565b50604082015181600201555050670de0b6b3a764000083828151811061109b5761109b612519565b60200260200101516110ad91906124c3565b600a60008684815181106110c3576110c3612519565b60200260200101516001600160a01b03166001600160a01b0316815260200190815260200160002060008282546110fa91906124e5565b9250508190555083818151811061111357611113612519565b60200260200101516001600160a01b03167f49649141d16971a88c3cfdd73fec34babb1cf163cf8b804c8f537a023c6ce50684838151811061115757611157612519565b60200260200101518460405161116e9291906124f8565b60405180910390a283818151811061118857611188612519565b60200260200101516001600160a01b0316600080516020612599833981519152670de0b6b3a76400008584815181106111c3576111c3612519565b60200260200101516111d591906124c3565b60405190815260200160405180910390a2600101610e23565b50505050565b6111fc611921565b6000818152600860205260409020600681015460ff166112535760405162461bcd60e51b8152602060048201526012602482015271506f6c6c206973206e6f742061637469766560701b60448201526064016105c4565b600601805460ff1916905550565b6060600480546104b790612363565b6000336105488185856118c2565b600860205260009081526040902080546001820180549192916112a090612363565b80601f01602080910402602001604051908101604052809291908181526020018280546112cc90612363565b80156113195780601f106112ee57610100808354040283529160200191611319565b820191906000526020600020905b8154815290600101906020018083116112fc57829003601f168201915b50505050600583015460068401546007909401549293909260ff909116915085565b6113436119d6565b6000828152600860205260409020600681015460ff1661139a5760405162461bcd60e51b8152602060048201526012602482015271506f6c6c206973206e6f742061637469766560701b60448201526064016105c4565b806005015442106113de5760405162461bcd60e51b815260206004820152600e60248201526d141bdb1b081a185cc8195b99195960921b60448201526064016105c4565b33600090815260048201602052604090205460ff16156114305760405162461bcd60e51b815260206004820152600d60248201526c105b1c9958591e481d9bdd1959609a1b60448201526064016105c4565b600281015482106114745760405162461bcd60e51b815260206004820152600e60248201526d24b73b30b634b21037b83a34b7b760911b60448201526064016105c4565b600c543360009081526020819052604090205410156114d55760405162461bcd60e51b815260206004820152601b60248201527f496e73756666696369656e7420746f6b656e7320746f20766f7465000000000060448201526064016105c4565b33600090815260208181526040808320548584526003850190925282208054919283926115039084906124e5565b90915550503360009081526004830160205260408120805460ff191660011790556007830180548392906115389084906124e5565b9091555050336000908152600a60208190526040822080549192909161155f9084906124e5565b90915550506040805184815260208101839052339186917fb4c54afd73915f9f756c8dee39fe0b311937871a92261a47747f7a3d32f63a0c910160405180910390a3604051600a815233906000805160206125998339815191529060200160405180910390a250506115d16001600655565b5050565b600780546115e290612363565b80601f016020809104026020016040519081016040528092919081815260200182805461160e90612363565b801561165b5780601f106116305761010080835404028352916020019161165b565b820191906000526020600020905b81548152906001019060200180831161163e57829003601f168201915b505050505081565b61166b611921565b600c55565b611678611921565b6001600160a01b0381166116a257604051631e4fbdf760e01b8152600060048201526024016105c4565b6116ab81611984565b50565b6116b6611921565b60028251101580156116ca5750600a825111155b6117165760405162461bcd60e51b815260206004820152601960248201527f496e76616c6964206e756d626572206f66206f7074696f6e730000000000000060448201526064016105c4565b600081118015611727575060a88111155b6117735760405162461bcd60e51b815260206004820152601c60248201527f4475726174696f6e206d75737420626520312d31363820686f7572730000000060448201526064016105c4565b600b805490600061178383612546565b9091555050600b546000818152600860205260409020908155600181016117aa85826123ed565b5082516117c09060028301906020860190611bff565b506117cd82610e1061255f565b6117d790426124e5565b6005820181905560068201805460ff1916600117905560006007830155600b5460405190917fc3ad3dd4f77bea708d7c21b918efa79c536b30c5048924662db7a2bd96f4831691611829918891612576565b60405180910390a250505050565b6118448383836001611a00565b505050565b6001600160a01b038381166000908152600160209081526040808320938616835292905220546000198110156111ee57818110156118b357604051637dc7a0d960e11b81526001600160a01b038416600482015260248101829052604481018390526064016105c4565b6111ee84848484036000611a00565b6001600160a01b0383166118ec57604051634b637e8f60e11b8152600060048201526024016105c4565b6001600160a01b0382166119165760405163ec442f0560e01b8152600060048201526024016105c4565b611844838383611ad5565b6005546001600160a01b03163314610c695760405163118cdaa760e01b81523360048201526024016105c4565b6001600160a01b03821661197857604051634b637e8f60e11b8152600060048201526024016105c4565b6115d182600083611ad5565b600580546001600160a01b038381166001600160a01b0319831681179093556040519116919082907f8be0079c531659141344cd1fd0a4f28419497f9722a3daafe3b4186f6b6457e090600090a35050565b6002600654036119f957604051633ee5aeb560e01b815260040160405180910390fd5b6002600655565b6001600160a01b038416611a2a5760405163e602df0560e01b8152600060048201526024016105c4565b6001600160a01b038316611a5457604051634a1406b160e11b8152600060048201526024016105c4565b6001600160a01b03808516600090815260016020908152604080832093871683529290522082905580156111ee57826001600160a01b0316846001600160a01b03167f8c5be1e5ebec7d5bd14f71427d1e84f3dd0314c0f7b2291e5b200ac8c7c3b92584604051611ac791815260200190565b60405180910390a350505050565b6001600160a01b038316611b00578060026000828254611af591906124e5565b90915550611b729050565b6001600160a01b03831660009081526020819052604090205481811015611b535760405163391434e360e21b81526001600160a01b038516600482015260248101829052604481018390526064016105c4565b6001600160a01b03841660009081526020819052604090209082900390555b6001600160a01b038216611b8e57600280548290039055611bad565b6001600160a01b03821660009081526020819052604090208054820190555b816001600160a01b0316836001600160a01b03167fddf252ad1be2c89b69c2b068fc378daa952ba7f163c4a11628f55a4df523b3ef83604051611bf291815260200190565b60405180910390a3505050565b828054828255906000526020600020908101928215611c45579160200282015b82811115611c455782518290611c3590826123ed565b5091602001919060010190611c1f565b50611c51929150611c55565b5090565b80821115611c51576000611c698282611c72565b50600101611c55565b508054611c7e90612363565b6000825580601f10611c8e575050565b601f0160209004906000526020600020908101906116ab91905b80821115611c515760008155600101611ca8565b6000815180845260005b81811015611ce257602081850181015186830182015201611cc6565b506000602082860101526020601f19601f83011685010191505092915050565b602081526000611d156020830184611cbc565b9392505050565b80356001600160a01b0381168114611d3357600080fd5b919050565b60008060408385031215611d4b57600080fd5b611d5483611d1c565b946020939093013593505050565b600080600060608486031215611d7757600080fd5b611d8084611d1c565b9250611d8e60208501611d1c565b9150604084013590509250925092565b634e487b7160e01b600052604160045260246000fd5b604051601f8201601f1916810167ffffffffffffffff81118282101715611ddd57611ddd611d9e565b604052919050565b600082601f830112611df657600080fd5b813567ffffffffffffffff811115611e1057611e10611d9e565b611e23601f8201601f1916602001611db4565b818152846020838601011115611e3857600080fd5b816020850160208301376000918101602001919091529392505050565b600080600060608486031215611e6a57600080fd5b611e7384611d1c565b925060208401359150604084013567ffffffffffffffff811115611e9657600080fd5b611ea286828701611de5565b9150509250925092565b600060208284031215611ebe57600080fd5b5035919050565b60008151808452602080850194506020840160005b83811015611ef657815187529582019590820190600101611eda565b509495945050505050565b60c081526000611f1460c0830189611cbc565b6020838203818501528189518084528284019150828160051b850101838c0160005b83811015611f6457601f19878403018552611f52838351611cbc565b94860194925090850190600101611f36565b50508681036040880152611f78818c611ec5565b95505050505050846060830152611f93608083018515159052565b8260a0830152979650505050505050565b838152606060208201526000611fbd6060830185611cbc565b9050826040830152949350505050565b60008060408385031215611fe057600080fd5b82359150611ff060208401611d1c565b90509250929050565b60006020828403121561200b57600080fd5b611d1582611d1c565b600060208083018184528085518083526040925060408601915060408160051b87010184880160005b8381101561208957603f19898403018552815160608151855288820151818a87015261206b82870182611cbc565b9289015195890195909552509487019492509086019060010161203d565b509098975050505050505050565b600067ffffffffffffffff8211156120b1576120b1611d9e565b5060051b60200190565b600082601f8301126120cc57600080fd5b813560206120e16120dc83612097565b611db4565b8083825260208201915060208460051b87010193508684111561210357600080fd5b602086015b8481101561211f5780358352918301918301612108565b509695505050505050565b60008060006060848603121561213f57600080fd5b833567ffffffffffffffff8082111561215757600080fd5b818601915086601f83011261216b57600080fd5b8135602061217b6120dc83612097565b82815260059290921b8401810191818101908a84111561219a57600080fd5b948201945b838610156121bf576121b086611d1c565b8252948201949082019061219f565b975050870135925050808211156121d557600080fd5b6121e1878388016120bb565b935060408601359150808211156121f757600080fd5b50611ea286828701611de5565b85815260a06020820152600061221d60a0830187611cbc565b604083019590955250911515606083015260809091015292915050565b6000806040838503121561224d57600080fd5b50508035926020909101359150565b6000806040838503121561226f57600080fd5b61227883611d1c565b9150611ff060208401611d1c565b60008060006060848603121561229b57600080fd5b833567ffffffffffffffff808211156122b357600080fd5b6122bf87838801611de5565b94506020915081860135818111156122d657600080fd5b8601601f810188136122e757600080fd5b80356122f56120dc82612097565b81815260059190911b8201840190848101908a83111561231457600080fd5b8584015b8381101561234c578035868111156123305760008081fd5b61233e8d8983890101611de5565b845250918601918601612318565b50979a979950505050604095909501359450505050565b600181811c9082168061237757607f821691505b60208210810361239757634e487b7160e01b600052602260045260246000fd5b50919050565b601f821115611844576000816000526020600020601f850160051c810160208610156123c65750805b601f850160051c820191505b818110156123e5578281556001016123d2565b505050505050565b815167ffffffffffffffff81111561240757612407611d9e565b61241b816124158454612363565b8461239d565b602080601f83116001811461245057600084156124385750858301515b600019600386901b1c1916600185901b1785556123e5565b600085815260208120601f198616915b8281101561247f57888601518255948401946001909101908401612460565b508582101561249d5787850151600019600388901b60f8161c191681555b5050505050600190811b01905550565b634e487b7160e01b600052601160045260246000fd5b6000826124e057634e487b7160e01b600052601260045260246000fd5b500490565b8082018082111561054e5761054e6124ad565b8281526040602082015260006125116040830184611cbc565b949350505050565b634e487b7160e01b600052603260045260246000fd5b60008161253e5761253e6124ad565b506000190190565b600060018201612558576125586124ad565b5060010190565b808202811582820484141761054e5761054e6124ad565b6040815260006125896040830185611cbc565b9050826020830152939250505056fe3992a384e919816438b9dfe10f63bac805353ba83d0b223c9fc01411a4689df9a2646970667358221220458de25e317a98fa51ee45e917a2f1f9750cbe66a8bd97309fed60860165aa5364736f6c63430008180033",
  "linkReferences": {},
  "deployedLinkReferences": {}
}