{
  "_format": "hh-sol-artifact-1",
  "contractName": "FanToken",
  "sourceName": "contracts/FanToken.sol",
  "abi": [
    {
      "inputs": [
        {
          "internalType": "string",
          "name": "_name",
          "type": "string"
        },
        {
          "internalType": "string",
          "name": "_symbol",
          "type": "string"
        },
        {
          "internalType": "uint256",
          "name": "_initialSupply",
          "type": "uint256"
        },
        {
          "internalType": "string",
          "name": "_clubName",
          "type": "string"
        },
        {
          "internalType": "string",
          "name": "_clubDescription",
          "type": "string"
        },
        {
          "internalType": "address",
          "name": "_owner",
          "type": "address"
        }
      ],
      "stateMutability": "nonpayable",
      "type": "constructor"
    },
    {
      "inputs": [
        {
          "internalType": "address",
          "name": "spender",
          "type": "address"
        },
        {
          "internalType": "uint256",
          "name": "allowance",
          "type": "uint256"
        },
        {
          "internalType": "uint256",
          "name": "needed",
          "type": "uint256"
        }
      ],
      "name": "ERC20InsufficientAllowance",
      "type": "error"
    },
    {
      "inputs": [
        {
          "internalType": "address",
          "name": "sender",
          "type": "address"
        },
        {
          "internalType": "uint256",
          "name": "balance",
          "type": "uint256"
        },
        {
          "internalType": "uint256",
          "name": "needed",
          "type": "uint256"
        }
      ],
      "name": "ERC20InsufficientBalance",
      "type": "error"
    },
    {
      "inputs": [
        {
          "internalType": "address",
          "name": "approver",
          "type": "address"
        }
      ],
      "name": "ERC20InvalidApprover",
      "type": "error"
    },
    {
      "inputs": [
        {
          "internalType": "address",
          "name": "receiver",
          "type": "address"
        }
      ],
      "name": "ERC20InvalidReceiver",
      "type": "error"
    },
    {
      "inputs": [
        {
          "internalType": "address",
          "name": "sender",
          "type": "address"
        }
      ],
      "name": "ERC20InvalidSender",
      "type": "error"
    },
    {
      "inputs": [
        {
          "internalType": "address",
          "name": "spender",
          "type": "address"
        }
      ],
      "name": "ERC20InvalidSpender",
      "type": "error"
    },
    {
      "inputs": [
        {
          "internalType": "address",
          "name": "owner",
          "type": "address"
        }
      ],
      "name": "OwnableInvalidOwner",
      "type": "error"
    },
    {
      "inputs": [
        {
          "internalType": "address",
          "name": "account",
          "type": "address"
        }
      ],
      "name": "OwnableUnauthorizedAccount",
      "type": "error"
    },
    {
      "anonymous": false,
      "inputs": [
        {
          "indexed": true,
          "internalType": "address",
          "name": "owner",
          "type": "address"
        },
        {
          "indexed": true,
          "internalType": "address",
          "name": "spender",
          "type": "address"
        },
        {
          "indexed": false,
          "internalType": "uint256",
          "name": "value",
          "type": "uint256"
        }
      ],
      "name": "Approval",
      "type": "event"
    },
    {
      "anonymous": false,
      "inputs": [
        {
          "indexed": true,
          "internalType": "address",
          "name": "previousOwner",
          "type": "address"
        },
        {
          "indexed": true,
          "internalType": "address",
          "name": "newOwner",
          "type": "address"
        }
      ],
      "name": "OwnershipTransferred",
      "type": "event"
    },
    {
      "anonymous": false,
      "inputs": [
        {
          "indexed": true,
          "internalType": "address",
          "name": "from",
          "type": "address"
        },
        {
          "indexed": true,
          "internalType": "address",
          "name": "to",
          "type": "address"
        },
        {
          "indexed": false,
          "internalType": "uint256",
          "name": "value",
          "type": "uint256"
        }
      ],
      "name": "Transfer",
      "type": "event"
    },
    {
      "inputs": [
        {
          "internalType": "address",
          "name": "owner",
          "type": "address"
        },
        {
          "internalType": "address",
          "name": "spender",
          "type": "address"
        }
      ],
      "name": "allowance",
      "outputs": [
        {
          "internalType": "uint256",
          "name": "",
          "type": "uint256"
        }
      ],
      "stateMutability": "view",
      "type": "function"
    },
    {
      "inputs": [
        {
          "internalType": "address",
          "name": "spender",
          "type": "address"
        },
        {
          "internalType": "uint256",
          "name": "value",
          "type": "uint256"
        }
      ],
      "name": "approve",
      "outputs": [
        {
          "internalType": "bool",
          "name": "",
          "type": "bool"
        }
      ],
      "stateMutability": "nonpayable",
      "type": "function"
    },
    {
      "inputs": [
        {
          "internalType": "address",
          "name": "account",
          "type": "address"
        }
      ],
      "name": "balanceOf",
      "outputs": [
        {
          "internalType": "uint256",
          "name": "",
          "type": "uint256"
        }
      ],
      "stateMutability": "view",
      "type": "function"
    },
    {
      "inputs": [],
      "name": "clubDescription",
      "outputs": [
        {
          "internalType": "string",
          "name": "",
          "type": "string"
        }
      ],
      "stateMutability": "view",
      "type": "function"
    },
    {
      "inputs": [],
      "name": "clubName",
      "outputs": [
        {
          "internalType": "string",
          "name": "",
          "type": "string"
        }
      ],
      "stateMutability": "view",
      "type": "function"
    },
    {
      "inputs": [],
      "name": "decimals",
      "outputs": [
        {
          "internalType": "uint8",
          "name": "",
          "type": "uint8"
        }
      ],
      "stateMutability": "view",
      "type": "function"
    },
    {
      "inputs": [],
      "name": "getClubInfo",
      "outputs": [
        {
          "internalType": "string",
          "name": "",
          "type": "string"
        },
        {
          "internalType": "string",
          "name": "",
          "type": "string"
        }
      ],
      "stateMutability": "view",
      "type": "function"
    },
    {
      "inputs": [],
      "name": "name",
      "outputs": [
        {
          "internalType": "string",
          "name": "",
          "type": "string"
        }
      ],
      "stateMutability": "view",
      "type": "function"
    },
    {
      "inputs": [],
      "name": "owner",
      "outputs": [
        {
          "internalType": "address",
          "name": "",
          "type": "address"
        }
      ],
      "stateMutability": "view",
      "type": "function"
    },
    {
      "inputs": [],
      "name": "renounceOwnership",
      "outputs": [],
      "stateMutability": "nonpayable",
      "type": "function"
    },
    {
      "inputs": [],
      "name": "symbol",
      "outputs": [
        {
          "internalType": "string",
          "name": "",
          "type": "string"
        }
      ],
      "stateMutability": "view",
      "type": "function"
    },
    {
      "inputs": [],
      "name": "totalSupply",
      "outputs": [
        {
          "internalType": "uint256",
          "name": "",
          "type": "uint256"
        }
      ],
      "stateMutability": "view",
      "type": "function"
    },
    {
      "inputs": [
        {
          "internalType": "address",
          "name": "to",
          "type": "address"
        },
        {
          "internalType": "uint256",
          "name": "value",
          "type": "uint256"
        }
      ],
      "name": "transfer",
      "outputs": [
        {
          "internalType": "bool",
          "name": "",
          "type": "bool"
        }
      ],
      "stateMutability": "nonpayable",
      "type": "function"
    },
    {
      "inputs": [
        {
          "internalType": "address",
          "name": "from",
          "type": "address"
        },
        {
          "internalType": "address",
          "name": "to",
          "type": "address"
        },
        {
          "internalType": "uint256",
          "name": "value",
          "type": "uint256"
        }
      ],
      "name": "transferFrom",
      "outputs": [
        {
          "internalType": "bool",
          "name": "",
          "type": "bool"
        }
      ],
      "stateMutability": "nonpayable",
      "type": "function"
    },
    {
      "inputs": [
        {
          "internalType": "address",
          "name": "newOwner",
          "type": "address"
        }
      ],
      "name": "transferOwnership",
      "outputs": [],
      "stateMutability": "nonpayable",
      "type": "function"
    },
    {
      "inputs": [
        {
          "internalType": "string",
          "name": "_newDescription",
          "type": "string"
        }
      ],
      "name": "updateClubDescription",
      "outputs": [],
      "stateMutability": "nonpayable",
      "type": "function"
    }
  ],
  "bytecode": "0x60806040523480156200001157600080fd5b50604051620013db380380620013db833981016040819052620000349162000387565b8086866003620000458382620004ea565b506004620000548282620004ea565b5050506001600160a01b0381166200008757604051631e4fbdf760e01b8152600060048201526024015b60405180910390fd5b6200009281620000e2565b506006620000a18482620004ea565b506007620000b08382620004ea565b50620000d681620000c46012600a620006cb565b620000d09087620006e3565b62000134565b50505050505062000713565b600580546001600160a01b038381166001600160a01b0319831681179093556040519116919082907f8be0079c531659141344cd1fd0a4f28419497f9722a3daafe3b4186f6b6457e090600090a35050565b6001600160a01b038216620001605760405163ec442f0560e01b8152600060048201526024016200007e565b6200016e6000838362000172565b5050565b6001600160a01b038316620001a1578060026000828254620001959190620006fd565b90915550620002159050565b6001600160a01b03831660009081526020819052604090205481811015620001f65760405163391434e360e21b81526001600160a01b038516600482015260248101829052604481018390526064016200007e565b6001600160a01b03841660009081526020819052604090209082900390555b6001600160a01b038216620002335760028054829003905562000252565b6001600160a01b03821660009081526020819052604090208054820190555b816001600160a01b0316836001600160a01b03167fddf252ad1be2c89b69c2b068fc378daa952ba7f163c4a11628f55a4df523b3ef836040516200029891815260200190565b60405180910390a3505050565b634e487b7160e01b600052604160045260246000fd5b600082601f830112620002cd57600080fd5b81516001600160401b0380821115620002ea57620002ea620002a5565b604051601f8301601f19908116603f01168101908282118183101715620003155762000315620002a5565b816040528381526020925086838588010111156200033257600080fd5b600091505b8382101562000356578582018301518183018401529082019062000337565b600093810190920192909252949350505050565b80516001600160a01b03811681146200038257600080fd5b919050565b60008060008060008060c08789031215620003a157600080fd5b86516001600160401b0380821115620003b957600080fd5b620003c78a838b01620002bb565b97506020890151915080821115620003de57600080fd5b620003ec8a838b01620002bb565b96506040890151955060608901519150808211156200040a57600080fd5b620004188a838b01620002bb565b945060808901519150808211156200042f57600080fd5b506200043e89828a01620002bb565b9250506200044f60a088016200036a565b90509295509295509295565b600181811c908216806200047057607f821691505b6020821081036200049157634e487b7160e01b600052602260045260246000fd5b50919050565b601f821115620004e557600081815260208120601f850160051c81016020861015620004c05750805b601f850160051c820191505b81811015620004e157828155600101620004cc565b5050505b505050565b81516001600160401b03811115620005065762000506620002a5565b6200051e816200051784546200045b565b8462000497565b602080601f8311600181146200055657600084156200053d5750858301515b600019600386901b1c1916600185901b178555620004e1565b600085815260208120601f198616915b82811015620005875788860151825594840194600190910190840162000566565b5085821015620005a65787850151600019600388901b60f8161c191681555b5050505050600190811b01905550565b634e487b7160e01b600052601160045260246000fd5b600181815b808511156200060d578160001904821115620005f157620005f1620005b6565b80851615620005ff57918102915b93841c9390800290620005d1565b509250929050565b6000826200062657506001620006c5565b816200063557506000620006c5565b81600181146200064e5760028114620006595762000679565b6001915050620006c5565b60ff8411156200066d576200066d620005b6565b50506001821b620006c5565b5060208310610133831016604e8410600b84101617156200069e575081810a620006c5565b620006aa8383620005cc565b8060001904821115620006c157620006c1620005b6565b0290505b92915050565b6000620006dc60ff84168362000615565b9392505050565b8082028115828204841417620006c557620006c5620005b6565b80820180821115620006c557620006c5620005b6565b610cb880620007236000396000f3fe608060405234801561001057600080fd5b50600436106101005760003560e01c806395d89b4111610097578063ce27489d11610066578063ce27489d1461020c578063d94c8c6514610214578063dd62ed3e1461021c578063f2fde38b1461025557600080fd5b806395d89b41146101c8578063970aa4bb146101d0578063a9059cbb146101e3578063c42f1f85146101f657600080fd5b8063313ce567116100d3578063313ce5671461016b57806370a082311461017a578063715018a6146101a35780638da5cb5b146101ad57600080fd5b806306fdde0314610105578063095ea7b31461012357806318160ddd1461014657806323b872dd14610158575b600080fd5b61010d610268565b60405161011a919061093a565b60405180910390f35b610136610131366004610970565b6102fa565b604051901515815260200161011a565b6002545b60405190815260200161011a565b61013661016636600461099a565b610314565b6040516012815260200161011a565b61014a6101883660046109d6565b6001600160a01b031660009081526020819052604090205490565b6101ab610338565b005b6005546040516001600160a01b03909116815260200161011a565b61010d61034c565b6101ab6101de366004610a07565b61035b565b6101366101f1366004610970565b610373565b6101fe610381565b60405161011a929190610ab8565b61010d6104a8565b61010d610536565b61014a61022a366004610ae6565b6001600160a01b03918216600090815260016020908152604080832093909416825291909152205490565b6101ab6102633660046109d6565b610543565b60606003805461027790610b19565b80601f01602080910402602001604051908101604052809291908181526020018280546102a390610b19565b80156102f05780601f106102c5576101008083540402835291602001916102f0565b820191906000526020600020905b8154815290600101906020018083116102d357829003601f168201915b5050505050905090565b600033610308818585610586565b60019150505b92915050565b600033610322858285610598565b61032d858585610617565b506001949350505050565b610340610676565b61034a60006106a3565b565b60606004805461027790610b19565b610363610676565b600761036f8282610ba1565b5050565b600033610308818585610617565b6060806006600781805461039490610b19565b80601f01602080910402602001604051908101604052809291908181526020018280546103c090610b19565b801561040d5780601f106103e25761010080835404028352916020019161040d565b820191906000526020600020905b8154815290600101906020018083116103f057829003601f168201915b5050505050915080805461042090610b19565b80601f016020809104026020016040519081016040528092919081815260200182805461044c90610b19565b80156104995780601f1061046e57610100808354040283529160200191610499565b820191906000526020600020905b81548152906001019060200180831161047c57829003601f168201915b50505050509050915091509091565b600680546104b590610b19565b80601f01602080910402602001604051908101604052809291908181526020018280546104e190610b19565b801561052e5780601f106105035761010080835404028352916020019161052e565b820191906000526020600020905b81548152906001019060200180831161051157829003601f168201915b505050505081565b600780546104b590610b19565b61054b610676565b6001600160a01b03811661057a57604051631e4fbdf760e01b8152600060048201526024015b60405180910390fd5b610583816106a3565b50565b61059383838360016106f5565b505050565b6001600160a01b03838116600090815260016020908152604080832093861683529290522054600019811015610611578181101561060257604051637dc7a0d960e11b81526001600160a01b03841660048201526024810182905260448101839052606401610571565b610611848484840360006106f5565b50505050565b6001600160a01b03831661064157604051634b637e8f60e11b815260006004820152602401610571565b6001600160a01b03821661066b5760405163ec442f0560e01b815260006004820152602401610571565b6105938383836107ca565b6005546001600160a01b0316331461034a5760405163118cdaa760e01b8152336004820152602401610571565b600580546001600160a01b038381166001600160a01b0319831681179093556040519116919082907f8be0079c531659141344cd1fd0a4f28419497f9722a3daafe3b4186f6b6457e090600090a35050565b6001600160a01b03841661071f5760405163e602df0560e01b815260006004820152602401610571565b6001600160a01b03831661074957604051634a1406b160e11b815260006004820152602401610571565b6001600160a01b038085166000908152600160209081526040808320938716835292905220829055801561061157826001600160a01b0316846001600160a01b03167f8c5be1e5ebec7d5bd14f71427d1e84f3dd0314c0f7b2291e5b200ac8c7c3b925846040516107bc91815260200190565b60405180910390a350505050565b6001600160a01b0383166107f55780600260008282546107ea9190610c61565b909155506108679050565b6001600160a01b038316600090815260208190526040902054818110156108485760405163391434e360e21b81526001600160a01b03851660048201526024810182905260448101839052606401610571565b6001600160a01b03841660009081526020819052604090209082900390555b6001600160a01b038216610883576002805482900390556108a2565b6001600160a01b03821660009081526020819052604090208054820190555b816001600160a01b0316836001600160a01b03167fddf252ad1be2c89b69c2b068fc378daa952ba7f163c4a11628f55a4df523b3ef836040516108e791815260200190565b60405180910390a3505050565b6000815180845260005b8181101561091a576020818501810151868301820152016108fe565b506000602082860101526020601f19601f83011685010191505092915050565b60208152600061094d60208301846108f4565b9392505050565b80356001600160a01b038116811461096b57600080fd5b919050565b6000806040838503121561098357600080fd5b61098c83610954565b946020939093013593505050565b6000806000606084860312156109af57600080fd5b6109b884610954565b92506109c660208501610954565b9150604084013590509250925092565b6000602082840312156109e857600080fd5b61094d82610954565b634e487b7160e01b600052604160045260246000fd5b600060208284031215610a1957600080fd5b813567ffffffffffffffff80821115610a3157600080fd5b818401915084601f830112610a4557600080fd5b813581811115610a5757610a576109f1565b604051601f8201601f19908116603f01168101908382118183101715610a7f57610a7f6109f1565b81604052828152876020848701011115610a9857600080fd5b826020860160208301376000928101602001929092525095945050505050565b604081526000610acb60408301856108f4565b8281036020840152610add81856108f4565b95945050505050565b60008060408385031215610af957600080fd5b610b0283610954565b9150610b1060208401610954565b90509250929050565b600181811c90821680610b2d57607f821691505b602082108103610b4d57634e487b7160e01b600052602260045260246000fd5b50919050565b601f82111561059357600081815260208120601f850160051c81016020861015610b7a5750805b601f850160051c820191505b81811015610b9957828155600101610b86565b505050505050565b815167ffffffffffffffff811115610bbb57610bbb6109f1565b610bcf81610bc98454610b19565b84610b53565b602080601f831160018114610c045760008415610bec5750858301515b600019600386901b1c1916600185901b178555610b99565b600085815260208120601f198616915b82811015610c3357888601518255948401946001909101908401610c14565b5085821015610c515787850151600019600388901b60f8161c191681555b5050505050600190811b01905550565b8082018082111561030e57634e487b7160e01b600052601160045260246000fdfea2646970667358221220c0290593c87fccd3e2c6b89d5810fcd60c784957928c7f36b0a1945c3780261964736f6c63430008140033",
  "linkReferences": {},
  "deployedLinkReferences": {}
}